:020000040000FA
:0600000002011A02245D5A
:03002B00022B8A1B
:030053000224D3B1
:03006B00022B580D
:100083000222B3E5C754F84401F5C7790122000001
:100093000080FB120086B90003020104E479217891
:1000A30008B800028004F709D8FCE479297802B87B
:1000B30000028004F709D8FCE49002817877791371
:1000C3008002F0A3D8FCD9FA781A90014A7A01BACF
:1000D30000028007E493A3F608DAF97AF77B149019
:1000E300014B78E379048015E493A3AD82AE838A50
:1000F300828B83F0A3AA82AB838D828E83D8E9D9C6
:10010300E77582597583C0740312012C758291754A
:100113008300740012012C75D00075813F7518811E
:10012300751902759F00020096C09FF59FE473D076
:100133009F22D083D082C09FE493C0E0740193C018
:10014300E0740293F59F22010A416363656C2045C5
:100153006E61626C650000021400416363656C208C
:1001630052616E67650000101010416363656C2077
:10017300582D436F6F7264696E617465000041634B
:1001830063656C20592D436F6F7264696E6174658A
:100193000000416363656C205A2D436F6F7264697D
:1001A3006E6174650000023D820100000C82023919
:1001B30082010000F7140257820300008302022A1F
:1001C30081010000F8140239820100000615026B58
:1001D300820100000715022A810100000915023976
:1001E30082010000161502438200000084020227E8
:1001F300820300008702022A8101000019150239D7
:1002030082010000171502458200000085020227C3
:10021300820300008902022A810100002D150239A0
:10022300820100001815024782000000860202279F
:10023300820300008B02022A810100004115110193
:1002430099010F12640400AD270111310401023D2D
:10025300820100000F82023982010000F215024B75
:1002630082010000F3150227820300009502023782
:1002730082010000FB15022982010000F415FF0032
:1002830000B4000028002800283075A000A000A0BA
:1002930000A00000080008E001F0001000100010AA
:1002A300001000100010005000500050001000100B
:1002B30000D0070000000000000F0001000500301F
:1002C3007507001000010081FF00000000FFFFFF21
:1002D300D307F107D9071508FF02020208025000ED
:1002E300A0000000E803023D820100001E820239E3
:1002F300820100008816022B82010000D602023917
:10030300820100008916022D82010000EC020239ED
:10031300820100008A16022F82010000EE020239D8
:10032300820100008B16023182080000EF020239BD
:10033300820100008C160233820100008D16FF013A
:1003430000FF20023D820100002182023982010068
:1003530000F116023582000000000002278203002C
:10036300001D031700930E930E930E930E930E939B
:100373000E930E930E930E930E930E930E930E4BBA
:10038300115D114511020202020202020202010D75
:100393000000001001023D82010000158202398233
:1003A30001000034170267820100003A0702398214
:1003B3000100003517025B820100001581023982BA
:1003C3000100003617025982010000F980023982C8
:1003D3000100003717025582010000B780023982FD
:1003E3000100003817025382010000A58002398200
:1003F3000100003917025182010000938002398203
:100403000100003A17026D820100008180023982E7
:100413000100003B17024F8201000007810239826D
:100423000100003C17024D820100003D1701E80363
:100433000577100A1209466C79626972644C61622D
:100443006F7261746F727902010507020318021853
:100453000418466C79626972644C61626F726174EC
:100463006F727920424C45DF130000E513EB13FF55
:10047300FFFF0001307503020106000000000000C9
:100483000000000000000000000000000000000069
:10049300000000000000FFFF0600800CE8030A04D0
:1004A30012023D8201000024820239820100004DC4
:1004B30018026382030000EF14023D820100001B57
:1004C300820239820100004E18026382020000F0AA
:1004D30014023D8201000012820239820100004FA2
:1004E30018026582010000F114022782030000F262
:1004F30014104B65792050726573732053746174C3
:100503006500023D82010000188202398201000069
:10051300A018027182000000F41402278203000075
:10052300F514022A81010000A11812013542840347
:100533001201350585031201352285031201355950
:100543008603120135A4860312013558870312016D
:1005530035959B03120135F89B03120135199C0352
:10056300120135C49C03120135579D031201351E38
:100573009E0312013583FE0212013500FF021201B0
:100583003510FF0212013528FF0212013548FF0220
:10059300120135CAFF02120135D8FF021201354A92
:1005A300BE031201356BBE03120135FCBE031201FB
:1005B300352D9403120135409403120135719403D0
:1005C300120135AB94031201350495031201354B27
:1005D3009503120135939503120135C29503120158
:1005E30035F195031201352896031201356F9603F1
:1005F300120135889603120135DD9603120135F693
:1006030096031201354497031201357E97031201B5
:100613003548AC021201354BAD0212013584AD02EF
:10062300120135A7AD02120135B9AD02120135F73A
:10063300AD0212013573AE021201353BAF02120156
:10064300355DAF02120135F4AF0212013546B00237
:1006530012013577B00212013584B002120135EE72
:10066300B00212013545B10212013548B10212013F
:100673003581B10212013584B1021201358EB10206
:10068300120135E2B10212013523B20212013556CD
:10069300B20212013593B20212013595B30212016F
:1006A3003539B402120135A2B402120135E0B402A5
:1006B3001201354C8C03120135748C03120135A1E0
:1006C3008C03120135D98C03120135378D031201C6
:1006D30035838D03120135EA8D031201352A8E030A
:1006E300120135678E03120135958E031201353FD2
:1006F3008F03120135498F03120135568F031201FF
:1007030035898F03120135958F03120135AD8F03A0
:10071300120135B78F03120135BEBC03120135CC6C
:10072300BC03120135E4BC03120135FBBC03120107
:1007330035CBB80112013575B90112013588BA01FB
:1007430012013504BB0112013522BC011201355ED1
:10075300BC01120135F9BC01120135DDBD011201E5
:1007630035A9BE0112013537C001120135A8C001F8
:1007730012013562C10112013554C20112013594CF
:10078300C20112013548C3011201357AC3011201B6
:100793003570C501120135B2C501120135D0C5014D
:1007A30012013536C60112013505C701120135C9DB
:1007B300C701120135E8C901120135B3CC02120198
:1007C300359DCD0212013548CE0212013599CE0274
:1007D30012013549CF02120135BACF021201359FFA
:1007E300D002120135D3D002120135CCD10212014D
:1007F3003509D202120135E5D20212013524D302A2
:1008030012013540D3021201350BAC031201358FAF
:10081300AC03120135BAAC03120135D4AD03120196
:10082300354590031201355B90031201357990032E
:100833001201358A9103120135949103120135BFD8
:100843009203120135B69303120135239403120167
:100853003514D90212013544DA021201357BDA026A
:10086300120135C5DA0212013588DC021201357630
:1008730082011201350283011201356684011201DE
:1008830035728401120135AD84011201351C8501D5
:100893001201352586011201352E8701120135F526
:1008A3008701120135528901120135708901120144
:1008B300358D89011201353A8A01120135B78A0152
:1008C300120135DF8A01120135A98D01120135AEFE
:1008D3008D01120135C78F011201351590011201E7
:1008E30035859001120135C390011201359F9101A5
:1008F3001201355F9201120135AB9201120135AE3F
:100903009201120135F292011201353A930112015B
:10091300357993011201359B9301120135CF930170
:1009230012013532940112013557DE021201356589
:10093300DE02120135B8DE02120135D7DE021201E2
:10094300351CDF0212013560E002120135FBE002C3
:100953001201353FE10212013569E102120135D876
:10096300E1021201351EE20212013595E202120183
:100973003546E302120135C42B00120135D42B0096
:10098300120135752C00120135D12C001201358E60
:100993002D00120135AA2E00120135DC2E001201A2
:1009A300350B2F00120135B830001201352F3300FB
:1009B3001201359F35001201359136001201358A37
:1009C3003700120135913900120135853C001201BF
:1009D30035B43D00120135B83F00120135C840005F
:1009E3001201355742001201354843001201359672
:1009F3004300120135054400120135294400120158
:100A0300357A44001201351B49001201351C4A0096
:100A13001201357D4A00120135A84A001201356ED4
:100A23004B00120135A2EC02120135ACEC021201AB
:100A330035F1EC0212013505ED0212013595ED0297
:100A4300120135CEED0212013509EE0212013532E3
:100A5300EE0212013586EE021201359BEE021201FF
:100A630035BDEE02120135D2EE02120135E6EE0279
:100A7300120135FBEE0212013535EF021201356129
:100A8300EF0212013599EF021201353DF002120116
:100A9300356DF002120135B0F002120135DAF002C1
:100AA30012013505F102120135E0B7031201354990
:100AB300F5011201352CF601120135A7F6011201D9
:100AC30035E2F60112013533F801120135C1F8019F
:100AD30012013553FB0112013505FC0112013511D9
:100AE300FD0112013584FE01120135DDFE01120103
:100AF3003533FA0212013576FA02120135FAFA0297
:100B0300120135D1FD0212013597A70312013549B0
:100B1300A80312013545A90312013584A903120163
:100B230035DEA903120135DDAF0312013540B003F1
:100B3300120135DDB00312013512B1031201354242
:100B4300B1031201357DB1031201359DB1031201C9
:100B53003558E302120135E4E302120135A3E4023E
:100B6300120135BBE502120135D5E70212013588C2
:100B73008D02120135AD8D021201357A8E021201FA
:100B8300354E8F02120135BB8F02120135FB8F02E6
:100B9300120135979002120135CB9102120135A64D
:100BA300920212013505930212013591930212014B
:100BB30035FF93021201358B9402120135D1940251
:100BC300120135439502120135D59502120135768E
:100BD3009602120135969602120135DE9602120133
:100BE300352797021201354397021201356997029F
:100BF300120135E39702120135F197021201358094
:100C03009802120135E998021201350CE80212012B
:100C13003591E802120135D3E802120135B7E90232
:100C230012013524EA0212013568EA02120135ACD9
:100C3300EA02120135D9EA0212013501EB0212016F
:100C43003539EB0212013577EB021201359EEB02C7
:100C530012013518EC0212013562EC021201350A59
:100C63009501120135A99601120135E1980112018E
:100C7300353599011201356099011201353C9A010C
:100C83001201356C9A011201359B9A01120135AE9E
:100C93009A01120135EF9A011201351C9B011201D1
:100CA300356A9B01120135A69B01120135EB9B01AD
:100CB300120135389C01120135B29C01120135F342
:100CC3009E01120135DDA00112013519A1011201A6
:100CD30035A8A201120135EDA20112013560A3016D
:100CE300120135B5A301120135BFA301120135EA83
:100CF300A401120135F8A50112013517A70112014C
:100D03003528A7011201350C990212013585990284
:100D13001201353F9F021201354AA002120135F339
:100D2300A10212013581A202120135746000120181
:100D330035F560001201352261001201356B610047
:100D43001201356C6200120135B06200120135E602
:100D53006200120135626400120135E4640012017D
:100D630035FF64001201357065001201352D6600F0
:100D7300120135F066001201357E67001201353528
:100D83006800120135486800120135E1680012015C
:100D9300357869001201359F6900120135086A0030
:100DA300120135526A00120135A06A00120135475B
:100DB3006B00120135E56B00120135726C001201F4
:100DC30035E36C001201352A6D00120135826D0086
:100DD300120135B46D00120135756E0012013578BC
:100DE3006F00120135C16F00120135DE6F00120171
:100DF30035FD6F00120135307100120135E77100C6
:100E03001201350C72001201352172001201359165
:100E13007200120135D27200120135F6730012010D
:100E230035777400120135ABA202120135F6A20226
:100E330012013502A302120135D6A302120135EDC8
:100E4300A3021201352AA4021201355BA402120186
:100E53003593A402120135E9A402120135FFA4025D
:100E63001201353BA5021201354EA502120135755B
:100E7300A502120135A9A502120135CFA60212015E
:100E83003519A80212013515A9021201352BAA0240
:100E9300120135B92B0012013582D801120135B187
:100EA300D80112013503DC011201355ADD011201AB
:100EB3003519DE0112013580E1011201356CE201C1
:100EC300120135BEE201120135D8E2011201350AE1
:100ED300E30112013515E3011201351EE30112018D
:100EE30035D0E301120135A0E401120135E7E40135
:100EF3001201354DE501120135BFE5011201354BF4
:100F0300A7011201358BAA0112013591AA01120121
:100F13003550B10112013575B501120135E697035C
:100F23001201357C9803120135929803120135EBB7
:100F330098031201352F99031201356999031201A0
:100F430035019A03120135709A03120135799A0318
:100F5300120135859A031201359F9A03120135C98F
:100F63009A03120135DE9A03120135409B031201E5
:100F730035679B031201350080031201350D800391
:100F83001201352780031201355A80031201359867
:100F93008003120135FD8003120135128103120112
:100FA300351D81031201352A810312013541810365
:100FB3001201354F81031201355A8103120135663F
:100FC30081031201357581031201358081031201FA
:100FD30035A381031201354782031201355782037A
:100FE3001201357182031201358E8203120135A974
:100FF3008203120135CE8203120135D98203120115
:1010030035EE820312013502830312013563830334
:101013001201356983031201356F8303120135759C
:1010230083031201358D8303120135C0830312013B
:10103300350580021201359C80021201353481028C
:101043001201352482021201355B82021201356ED0
:101053008202120135DC8202120135778402120109
:10106300359E8402120135408502120135758502D1
:10107300120135868502120135FF850212013520E2
:101083008602120135388602120135908702120159
:1010930035998902120135E98B02120135EC8C0274
:1010A3001201353B8D02120135F5C901120135F2EA
:1010B300CA01120135DDCB01120135E7CB01120163
:1010C3003509CC0112013515CC0112013567CD016B
:1010D30012013596CD01120135C6CE011201350834
:1010E300CF0112013534D0011201350AD1011201A9
:1010F300355CD101120135BBD101120135F2D101A9
:101103001201352DD201120135C8D501120135E185
:10111300D50112013563D60112013571D6011201D1
:1011230035C6D601120135D4D60112013541D70196
:10113300120135B3D701120135F9D701120135ADCB
:101143007400120135CF7400120135B97600120113
:10115300355E7A00120135A17B001201357B7C00DC
:10116300120135ABB103120135D0B1031201354180
:10117300B20312013506B5021201350FB502120191
:101183003518B50212013549B60212013568B802A5
:101193001201359EB802120135D8B8021201350E7C
:1011A300B90212013548B9021201357CB9021201A4
:1011B30035A8B902120135F1B9021201352BBA0271
:1011C30012013573BA02120135C9BA02120135FE92
:1011D300BA0212013559BB0212013593BB02120147
:1011E30035E4BB021201351ABC0212013554BC02AC
:1011F30012013582BC02120135A5BC02120135076A
:10120300BF0312013533BF031201358EBF03120131
:101213003598BF03120135A8BF0312013505A20398
:101223001201352CA20312013556A203120135B166
:10123300C003120135DA4B001201353E4E00120194
:1012430035F54F001201355250001201355451004B
:10125300120135DC51001201356352001201358849
:1012630052001201357D5500120135F3550012016C
:1012730035E256001201351C57001201355C570048
:10128300120135FC58001201355159001201359EE7
:1012930059001201350C5A00120135325A0012015D
:1012A300354C5A00120135625B00120135725B0046
:1012B300120135F85C00120135185D001201354E3C
:1012C3005D00120135D25E00120135115F0012017B
:1012D300354F6000120135B2F5021201350AF602EC
:1012E30012013552F702120135C1F70212013570AE
:1012F300F8021201358FF802120135E3F8021201E8
:101303003521F9021201358BBD031201359CBD0352
:101313001201353FBE03120135FBC0031201353AFA
:10132300C103120135E5FF01120135DFBB031201D1
:1013330035EFBB0312013504BC03120135B8BC03FE
:10134300120135F4B80312013578B903120135DE01
:10135300B903120135B3B603120135DAB60312012C
:101363003530B70312013543B70312013595B7037F
:10137300120135D4B703120135D7B7031201354D26
:101383008803120135618803120135DA88031201DB
:1013930035AF8903120135818B03120135E68B03C7
:1013A300120135398C03120135F87F001201350320
:1013B300AE0312013579AF03120135DAAF0312011F
:1013C3003509C502120135E0C60212013590C80283
:1013D30012013552C902120135F3C9021201351245
:1013E300CA021201354DCB021201358CCB02120118
:1013F30035D4CB02120135EEBA0312013517BB0304
:1014030012013540BB0312013558BB031201359A53
:10141300BB03120135A1D302120135ABD302120172
:1014230035EBD30212013534D4021201356ED402E6
:10143300120135C4D402120135E3D402120135EC92
:10144300D4021201353DD50212013566D5021201CF
:10145300357BD502120135EBD50212013579D6025F
:10146300120135BDD602120135E5D60212013564EB
:10147300D702120135A7D702120135E4D7021201B0
:1014830035F6D70212013515D8021201351ED802DE
:10149300120135E8D80212013515B503120135667C
:1014A300B503120135EFB50312013555B603120129
:1014B30035D3A403120135FDA403120135F7A503A7
:1014C30012013526A603120135ACA603120135F726
:1014D300B90312013586FF0112013509AA0312016E
:1014E300353FAA0312013578AA03120135D1AB03A4
:1014F300120135B2BF03120135C8BF03120135D241
:10150300BF0312013528C00312013533BD02120196
:1015130035F0BD021201352BBE0212013553BE0256
:10152300120135B5BE0212013501BF021201356C3D
:10153300BF02120135E8BF02120135E4C0021201F5
:10154300356BC202120135EEC20212013552C302DB
:1015530012013569C3021201355FC402120135ABB2
:10156300C4021201352DF10212013542F1021201BA
:1015730035F2F10212013532F2021201354BF20259
:101583001201357EF202120135CBF202120135FF50
:10159300F20212013541F3021201353FF502120145
:1015A30035A5F5021201350EE701120135C5EA0131
:1015B30012013557EC01120135AEEC01120135CDA4
:1015C300EC011201354BED01120135DDEE01120183
:1015D30035C1EF01120135D2F301120135A6F40131
:1015E300120135DF9E03120135889F03120135A5D1
:1015F3009F031201353DA00312013568A0031201B8
:1016030035FAA00312013561B303120135C8B303E0
:101613001201352DB403120135B4B403120135445C
:10162300C103120135BD7F001201358AC103E06693
:10163300701008A3E066700A08A3E066700408A3AC
:10164300E06622C3E7960809E7960809E7960809C2
:10165300E79622C3E09608A3E09608A3E09608A3C2
:10166300E09622C008C3E096F50808A3E096420876
:1016730008A3E096420808A3E09645087001D3D07A
:101683000822080808EAC0E0EBC0E086F0E7A4FA05
:10169300180986F0E7A42AFA180986F0E7A42AFABB
:1016A300180986F0E7A42AFA1986F0E7A4FBE5F007
:1016B3002AFA190886F0E7A42BFBE5F03AFA190891
:1016C30086F0E7A42BFBE5F03AFA18180986F0E751
:1016D300A4C5F02BFBE43AFA1908E7C5F0C6A42623
:1016E300F6E5F03BFBE43AFA1886F0E7A4F6E5F0FA
:1016F3000826F6E43B08F6E43A08F6D0E0FBD0E02F
:10170300FA22E4CFC0E0E4CEC0E0E4CDC0E0E4CC14
:10171300C0E075F020E626F608E633F608E633F671
:1017230008E633F6181818EC33FCED33FDEE33FE00
:10173300EF33FFC3EC9709ED9709EE9709EF97197C
:101743001919400FFFEC97FC09ED97FD09EE97FE81
:10175300191906D5F0BFECF709EDF709EEF709EF14
:10176300F7191919D0E0FCD0E0FDD0E0FED0E0FF7E
:10177300221217DC1818181217051217CB1919198A
:10178300221217CB191919080808E618181820E7A8
:10179300E01217051217DC18181822090909E719AE
:1017A300191920E7DC080808E618181820E70302CF
:1017B30017051217DC1818181217051217DC18185A
:1017C300181217CB19191922E4C397F709E497F7ED
:1017D30009E497F709E497F722E4C396F608E49639
:1017E300F608E496F608E496F6226017080808C699
:1017F300A2E713C618C613C618C613C618C613C65F
:10180300D5E0E9226016080808C6C313C618C61334
:10181300C618C613C618C613C6D5E0EA227009084F
:101823000808226016181818C6C333C608C633C67C
:1018330008C633C608C633C6D5E0EA22E627F6084B
:1018430009E637F60809E637F60809E637F622E02F
:1018530026F608A3E036F608A3E036F608A3E0363A
:10186300F622E026F008A3E036F008A3E036F008FD
:10187300A3E036F022C3E697F60809E697F60809CF
:10188300E697F60809E697F622C3E096F008A3E088
:1018930096F008A3E096F008A3E096F022E056F64F
:1018A30008A3E056F608A3E056F608A3E056F6228E
:1018B300E056F008A3E056F008A3E056F008A3E0D2
:1018C30056F022E0F608A3E0F608A3E0F608A3E04A
:1018D300F622E6F008A3E6F008A3E6F008A3E6F094
:1018E30022E0FAA3E0FBA3E0FCA3E0FD22E0F8A3DF
:1018F300E0F9A3E0FAA3E0FB22E8F0A3E9F0A3EA0E
:10190300F0A3EBF022CAC0E0E6F0A308DAFAD0E0D5
:10191300FA22CAC0E0E0A3C582CCC582C583CDC587
:1019230083F0A3C582CCC582C583CDC583DAE6D057
:10193300E0CA22C3E498F8E499F91219778026C320
:10194300E49AFAE49BFBE920E7E9121977E498F8B3
:10195300E499F922C3E498F8E499F9121977E49821
:10196300F8E499F9C3E49AFAE49BFB22EB20E7CF6E
:10197300E920E7E0B90010BB0008E88AF084F8AA80
:10198300F022E4FBC8FA22EB70227B10C833C8C9EB
:1019930033C9335007C39AC3DBF280069A50012A36
:1019A300DBEAC833F4C8C933F4C9FA2275F008E492
:1019B300C833C8C933C933C99AC99B5004C92AC992
:1019C3003BD5F0ECFBC833F4C8E4C9FA22600D0838
:1019D300C6A2E713C618C613C6D5E0F322600C08E7
:1019E300C6C313C618C613C6D5E0F422700422601A
:1019F3000D18C6C333C608C633C6D5E0F41822256E
:101A03001810AF08F518400C15198008F518400296
:101A13001519D2AF2200C0D0251810AF08F5185001
:101A23000C05198008F51850020519D2AFD0D02241
:101A33002518F58210AF08F518400C15198008F524
:101A43001840021519D2AF851983222518F582E4AF
:101A53003519F583222518F8E43519F9222518FAE2
:101A6300E43519FB222518FCE43519FD22E473251E
:101A730018C582C0E0E51934FFC583C0E0E518C38B
:101A8300958224F810AF088583198582188008850C
:101A93008319858218D2AFCEF0A3E520F0A378088E
:101AA300E608F0A3DEFAEFF0A3E58124FAF8E608EE
:101AB300F0A3E608F0A3E608F0A30808E608F0A3FD
:101AC300E608F0A315811581D0E0FED0E0F815817A
:101AD30015811581E8C0E0EEC0E0222518C582C05B
:101AE300E0E51934FFC583C0E0E518C3958224F906
:101AF30010AF08858319858218800885831985822C
:101B030018D2AFCEF0A3E520F0A37808E608F0A33F
:101B1300DEFAEFF0A3E58124FBF8E608F0A3E6087C
:101B2300F0A30808E608F0A3E608F0A315811581E1
:101B3300D0E0FED0E0F815811581E8C0E0EEC0E00A
:101B430022851983851882E0A3FEE0A3F520780897
:101B5300E0A3F608DFFAE0A3FFE0A3C0E0E0A3C040
:101B6300E0E0A3C0E0E0A3C0E0E0A3C0E010AF0862
:101B73008582188583198008858218858319D2AFD9
:101B8300D083D082020132851983851882E0A3FEB7
:101B9300E0A3F5207808E0A3F608DFFAE0A3FFE06E
:101BA300A3C0E0E0A3C0E0E0A3C0E0E0A3C0E01076
:101BB300AF08858218858319800885821885831963
:101BC300D2AFD083D08222C0D02518C582C0E0E531
:101BD3001934FFC583C0E0E518C3958224F310AF21
:101BE300088583198582188008858319858218D210
:101BF300AFC8F0A3E9F0A3EAF0A3EBF0A37908E7F9
:101C030009F0A3D8FAECF0A3EDF0A3EEF0A3EFF004
:101C1300A3D0E0F0A3D0E0F0A3D0E0F0A3E520F060
:101C2300A3E5F0F0A322851983851882E0C0E0A321
:101C3300E0F9A3E0FAA3E0FBA37808E0F608A3DF4A
:101C4300FAE0FCA3E0FDA3E0FEA3E0FFA3E0C0E015
:101C5300A3E0C0E0A3E0F5D0A3E0F520A3E0A3F563
:101C6300F010AF088583198582188008858319854C
:101C73008218D2AFD082D083D0E0F8D0E03274049F
:101C83008006740280027401C0E0F404121A33D097
:101C9300E0121908227404800474028000CCC0E0AE
:101CA300EDC0E0E518C39CCCAD1950011D10AF0683
:101CB3008C188D1980068C188D19D2AF121915D076
:101CC300E0FDD0E0FC22D083D082E9C0E0E493A31E
:101CD300C386F0C5F095F0F908E493A386F0C5F048
:101CE30095F0700BE493A3C3994005E9048002A324
:101CF300E475F002A42582F582E5F03583F583D0FF
:101D0300E0F9E493A3C0E0E493C0E022D083D0825F
:101D1300ECC0E0EDC0E0E493A3FCE493A3FDED4C41
:101D2300600D121D5BEC24FFFCED34FFFD80EFE43E
:101D330093A3FCE493A3FDED4C600D121D9AEC24D8
:101D4300FFFCED34FFFD80EFD0E0FDD0E0FCE49339
:101D5300A3C0E0E493C0E022C0E0C3E49396087418
:101D630001939618400FE493667008087401936614
:101D73001870007019A3A3C3E49396087401939693
:101D830018A3A3400DD0E0D0E0D0E0021D4BA3A3E5
:101D9300A3A3A3A3D0E022C0E0C0F088F0E493663D
:101DA30070080874019366187000A8F0A3A3700B61
:101DB300D0F0D0E0D0E0D0E0021D4BA3A3D0F0D010
:021DC300E0221C
:101DC80074F6121ADEEAFEEBFF8C088D09EE243455
:101DD800F8E43FF9E8FCE9FDEE2435122102FAEEB9
:101DE8002437122102F88508F0A4C885F00A85096D
:101DF800F0A4250AF9EA28F8E439F97A257B0012D3
:101E08001977EA8C828D83F0FA131313541FF8EEB6
:101E180028F8E43FF9E8245DF582E439F583E0C069
:101E2800E074075AF8D0E0B800028004C313D8FC65
:101E3800A2E0EE50082434F582E43F8018243612DC
:101E48002102F5F0EA84A8F0EE28F8E43FF9E82446
:101E580038F582E439F583E0F97F03021B8A74F7C9
:101E6800121ADEEAFEEBFFEE2434122102C0E0EE85
:101E78002435F582E43FF583D0E0F08E828F83A38A
:101E8800A3A3A3A3A3A3C082C0838E828F83A3A38B
:101E9800A3A3A3121F6BD083D082E0C398F508A335
:101EA800E099F509EE247F1221026401705DEE24A9
:101EB80080121F658E828F83A3A3A3A3A3A3A3125B
:101EC80022A58E828F83A3A3A3A3A3E0FAA3E0FB9A
:101ED800C3EA9CEB9D5010C3EC98ED99402DC3EAE2
:101EE80098EB995026800EC3EA98EB994007C3EC0B
:101EF80098ED9940167CC77D04EEFAEFFB120DD3DE
:101F0800EE247FF582E43FF583E4F0AC08AD09EEFA
:101F1800FAEFFB121DC8E9F9122B4A7F02021B8A4D
:101F2800C082C083851882851983121F6BC3EA9CFF
:101F3800EB9D5010C3EC98ED99401BC3EA98EB99C0
:101F48005014800EC3EA98EB994007C3EC98ED99BA
:101F58004004790180027900D083D08222F582E49E
:101F68003FF583E0F8A3E0F922EAC39CFAEB9DFB76
:101F78002274EF121ADE90038DE064086005E064B5
:101F880007702A9061C8E060249003BBE0F4601DEC
:101F9800E0F875F00AA4C8AAF02AF974BD28FE74FE
:101FA8000339FF8E828F83A3A3A3E07003022087E7
:101FB800906060E0C0E0EE2468F582E43FF583D0ED
:101FC800E0F0750C37750D05750800750900E5D941
:101FD80014F50AE5D95403F50E60127403650E6012
:101FE80043E50A600AEE24671221027002807590A8
:101FF8000532E06401601F1220FF60047A04800249
:102008007A00E50AC39AFA95E0FB120C718A088BEC
:1020180009EA4509700512101380641220FF700444
:102028008A0C8B0DE50A6012850C82850D83F50BF1
:10203800E5D9F0A3150BE50B70F61220FF60447488
:10204800FC250AF50A780C121C85AC0AA90EEEFAD2
:10205800EFFB120E8D7402121A18E97026AA08AB4B
:102068000912149F793D8E828F83A3A3A3A3E0FA5C
:102078007B00120AD3EEFAEFFB120DF7120E9F79CE
:1020880000806F7403650E6051850A107511007821
:1020980010121C85AC0CAD0DAA08AB09120E5174B8
:1020A80002121A18EE246812210264807004747FE8
:1020B8008001E0F50C780C121C89E50EF50C780C03
:1020C800121C89A90AAC08AD099003BBE0FA7B0091
:1020D800120AA97402121A18801390038DE064087A
:1020E800600BAC0CAD0DEEFAEFFB120F1112101FC6
:1020F80079017F0A021B8AEE2482F582E43FF58388
:10210800E02274F2121ADE74FC121A02EAFEEBFFE5
:102118008909A2AFE433F508C2AF0221C6E0601B0B
:10212800780C121C85AC0BA90EEEFAEFFB120E8789
:102138007402121A187404250BF50B7401250BF59B
:10214800D9850ED9E50B6018F50A850C82850D83B3
:10215800E0F5D9A385820C85830D150AE50A70EA96
:1021680075E195EE2463F8E43FF97A007B00A2AFAD
:10217800E433F50BC2AF1222A1EC4D60328882899C
:1021880083E0FAA3E0FB8A828B831222A5888289E6
:1021980083ECF0A3EDF08A828B83E4F0A3F01222A3
:1021A800A1EC4D700A88828983A3A3E4F0A3F0E52B
:1021B8000BA2E092AF12149F9004CEE004F0EE243C
:1021C80063121F65E8496064EE2463122102240249
:1021D800F8A3E03400F988828983E5822402F50CAB
:1021E800E43583F50DE0F50BA3E0F50EEE2462125D
:1021F8002102640170369061D0E0F81220FF60047B
:102208007C0480027C007480C398FA95E0FBE50B9F
:102218002CF8E43400F9E82402F8500109C3EA98DC
:10222800EB99A2D265D03340030221259004CEE079
:10223800604D9004CFE0F89004CEE0C398500C7441
:10224800026509703A9004D0E060348E828F83A3CF
:10225800A3A3A3E08518828519831222977402121A
:102268001A4EE81222979004CDE028F07402121A50
:1022780068AA18AB197901120AFD9004CEE4F0E5BA
:1022880008A2E092AF7404121A187F07021B8AF0A2
:10229800A3E4F09004CEE0F82288828983E0FCA3CE
:1022A800E0FD22008521878522C622C0E074EB125A
:1022B8001BCAA2AFE433F508C2AF759B00906182D8
:1022C800E0A2E05030E591A2E0502A7591FE740139
:1022D80065217021122446120F5F122434121C98B3
:1022E8001228F47404121A18E964017005790112AD
:1022F8000FA7121F79906182E0A2E5505DE591A2D7
:10230800E550577591DF90038DE064076005E06440
:1023180008702F12244674016521703E120F5F1257
:102328002434121C981228F47404121A18E964014F
:1023380070057901120FA77901EEFAEFFB12210A55
:102348008018E0640D70139003AFE004F064287007
:1023580002E4F07A00E0F9121025906182E0A2E62A
:102368004003022409E591A2E6400302240975917D
:10237800BF90038DE064057008120F47120F538059
:1023880003120F4D752100120FB3E990038EF079F7
:1023980000120FA7120D3D7A017B0090038CE0F923
:1023A80012146F907803E064427056900536E0147A
:1023B800F0704EC2AF1223C000782AD0E0F618D0D1
:1023C800E0F6E59F5407F87005750DFF8003750D5D
:1023D8007FC4C0E07829E6F50A08E6550DF50B74C8
:1023E8000B780A1219E0D0E0250AF8906270E0A292
:1023F800E740F8E8C333906272F0906270E0D2E090
:10240800F0906181E0A2E35009E5E9A2E350037589
:10241800E9F7A3E0A2E75009E591A2E75003759117
:102428007FE508A2E092AF7F08021C298E828F8385
:10243800E0F8A3E0C82416F582E438F58322900377
:10244800BBE0F875F00AA4C8AAF02AF974BD28FE02
:10245800740339FF22C0E0C0D0C082C0839061837A
:10246800E0A2E05009E5BFA2E0500375BFFEE0A27C
:10247800E15009E5BFA2E1500375BFFDE0A2E250BB
:1024880009E5BFA2E2500375BFFBE0A2E35009E5EE
:10249800BFA2E3500375BFF7E0A2E45009E5BFA26D
:1024A800E4500375BFEFE0A2E55009E5BFA2E5508F
:1024B8000375BFDFE0A2E65009E5BFA2E650037549
:1024C800BFBFD083D082D0D0D0E032C0E074F21247
:1024D8001BCAE5A7A2E6500FE5A1A2E6500953A73B
:1024E800BF75A1BF122527E5A7A2E5500CE5A1A25B
:1024F800E5500653A7DF75A1DFE5A7A2E15009E57E
:10250800A1A2E1500375A1FDE5A7A2E2500CE5A147
:10251800A2E2500653A7FB75A1FB7F01021C297498
:10252800F7121ADE75210190038DE064067015120A
:102538000EC38A828B83A3A3A3A3A3A3E0FAA3E079
:10254800FB120F35A2AFE433FED2AF900393E064E1
:102558000170187A207B0090038CE0F91215897AB3
:10256800207B0090038CE0F9121475906182E0D210
:10257800E6F0900533E0602185C62280169003922C
:10258800E064017008E5C654F84405F5C653BEFC7E
:102598001222AC7401652160E4EEA2E092AF7F02E2
:1025A800021B8A008E238F2485822885832785181D
:1025B80082851983E0CEA3E0CF852882852783EB27
:1025C800C9EAC8EDCBECCA75F010C3E833C8E933E3
:1025D800C9EA33CAEB33CBC3EA9EF526EB9FF52550
:1025E800B35004AB25AA26EC33CCED33CDD5F0DAC5
:1025F800AE23AF242274E9121ADE74FA121A02EA20
:10260800FEEBFF8C0A8D0B120F6BEAF8EBF9ECFA74
:10261800EDFB8E828F831218FC90038DE024F7C3A4
:1026280094055006751401022764120EC38A088B9C
:1026380009EA45097003022761EEFCEFFDAA18AB11
:1026480019120F65850882850983A3A3780C1218CF
:10265800C6908178780C1218A0851882851983781D
:10266800101218C690817878101218A0780C79107A
:10267800121646501F780C79101218789081A87895
:102688000C1216664047850C14850D15850E1685A7
:102698000F1780459081A88510148511158512168D
:1026A8008513177814790C12187878141216665056
:1026B8001C751400751500751600751701781479C6
:1026C800101218787814790C12183F800C751401C0
:1026D80075150075160075170074097814121820FE
:1026E8009081B4780C1218C67814790C12170585E5
:1026F8000882850983A3A3A3A3A3A312278212197F
:1027080077880C890DE4F50EF50F7814790C1218FA
:102718003F7404121A4E122782121977E8FA8A0CAB
:10272800E4F50D7814790C12164650077814790CD4
:1027380012187890038DE06408600AE0640660056A
:10274800E0640570209081AC7814121666501690DB
:1027580081B07814121852800C7514007515007524
:102768001600751700850A82850B8378141218D510
:102778007406121A187F10021B8AE0F8A3E0F97A8F
:10278800D07B032274F7121ADE120F7D900531E018
:1027980064017010906245E4F0A3F053F4F343FE33
:1027A8000C5390F3120F23E5C654B84441F5C6E51F
:1027B8009E5447644170F8906185740FF090052F1E
:1027C800E0F47002A3E0604E900530E06008146009
:1027D8001B14602E804075080175090090052FE0D4
:1027E80078081219EFE508F45280802A75080175F7
:1027F800090090052FE078081219EFE508F45290C7
:10280800801475080175090090052FE078081219E1
:10281800EFE508F452A079007F02021B8A74F712D0
:102828001ADEE9FEEAFF120F7D74016E700C7A80E1
:102838007B0090038CE0F912146F902BBCE493F4A6
:102848006008E493F9120D31800953C6B8E59E5427
:102858004770FA120F29900531E064017003120DD8
:102868005590052FE0F47002A3E0604B900530E02E
:10287800600814601A14602C803D75080175090001
:1028880090052FE078081219EFE508428080287536
:10289800080175090090052FE078081219EFE5087E
:1028A8004290801375080175090090052FE078089B
:1028B8001219EFE50842A0120EC38A088B09A8086E
:1028C800A909E8496014E5E170FCE82414F582E4FC
:1028D80039F583E0F46003E0F5E174016F700A7A7A
:1028E8000190038CE0F91214FF02282074F1121AE7
:1028F800DE8A088B098C0A8D0B908178780812186B
:10290800A0740F121A4E780C1218C6908178780CA1
:102918001218A07808790C1216469081A8501078E1
:1029280008790C12187878081216664014800E7808
:102938000C7908121878780C121666500479018000
:102948000279007F08021B8A74ED121ADE8A088B4E
:10295800098C0A8D0B90817878081218A0741312CC
:102968001A4E780C1218C6908178780C1218A07834
:102978000C790812164640117808790C121878AAB2
:1029880008AB09AC0AAD0B802275100075110075F3
:1029980012007513017810790C12187878107908DC
:1029A80012183FAA10AB11AC12AD137F0C021B8A90
:1029B80090817878081218C68A828B837808121852
:1029C800B37F04021B8A74F5121ADE8C828D837819
:1029D800081218C68A828B83780812188C122A2645
:1029E800C3E09CF0A3E09D122A1840229082007850
:1029F800081218C68A828B8378081218658A828B17
:102A080083A3A3A3A3E02420F0A3E0344EF080A086
:102A1800F088828983C3E09420A3E0944E22EA24BC
:102A280004F8E43BF98C828D83A3A3A3A3E0FCA361
:102A3800E0FD888289832274F5121ADEE9FE90048B
:102A4800E9E0FAA3E0FBEE29F8E433F974E928F5A4
:102A580082748039F583E02AF508A3E03BF509780C
:102A680008121C859081F01218E41225AC74021229
:102A78001A188A088B098C0A8D0B7410780812189A
:102A880007AA08AB097F04021B8A74F1121ADE8AAE
:102A98000C8B0D8C0E8D0F7411121A4E121C9C7417
:102AA80011121A4EE02401F508A3E03400F509E4F8
:102AB800F50AF50B780C79081216859081BC780810
:102AC8001218C6780C7908121685AA0CAB0DAC0E34
:102AD800AD0F1225AC7402121A188B09EA45096069
:102AE800047A0180027A00EC2AFCE43DFD7413129A
:102AF8001A4EE0F8A3E0F9E8FEE9FFECF8EDF97A00
:102B0800717B0212197788088909E4F50AF50B8E9A
:102B1800828F8378081218D5ECF8EDF97A717B0268
:102B28001219778A088B09740578081219EF8E82B2
:102B38008F83A3A3A3A3E508F0A3E509F07F080208
:102B48001B8AC082C083E9906000F0D083D08222C3
:102B5800C0E074F2121BCAA2AFE433FED2AFE5891B
:102B6800A2E04006E589A2E1500312136D758900C1
:102B7800758900C2C5751A00EEA2E092AF7F010206
:102B88001C29C0E0C0D0E8C0E0E9C0E0A9A8D2AFE5
:102B9800C2C7751A00E9A2E7E433F8E9A2E792AFE1
:102BA800D0E0F9D0E0F8D0D0D0E032C2AF020000D7
:102BB80022020132FFFFFFFFFFFFFFFFC082C08339
:102BC800E99016F0F0D083D08202013274F6121A1E
:102BD80072E99002FFF090035FE0F5087509007450
:102BE8000278081219EFAA08AB091214E79003003B
:102BF800123587900300123974606F90035FE07597
:102C0800F003A4FAABF01214E790031D1235879075
:102C1800031D123974700B9003001239451214ED1C
:102C2800804890031D1248D97AFF7BFF1212D77A89
:102C38000080198A08750900740278081219EF12C1
:102C4800438174FF122D87E4F0A3F00A90035FE03C
:102C5800F8EAC39840DD790512098F9002FFE0F980
:102C680012087B7A197B0A120C1102442474F4129C
:102C78001A728A088B09EB548060479002FFE0F9CA
:102C88001214578A0A8B0BAE0AAF0BEE4F602A8ECE
:102C9800828F83E064B0701A1209A1E960148E82F1
:102CA8008F83A3A3A3A3E0F9EE2405FAE43FFB1264
:102CB8000971EEFAEFFB121445AA08E5096480FBD6
:102CC80080047A007B00022ED774F2121A7274FB09
:102CD800121A02EAFEEBFFEE4F60457403121A4E19
:102CE800EEF0A3EFF0851882851983ECF0A3EDF0E0
:102CF8007402121A4EE9F0AA18AB19120875E9F510
:102D08000870757413121A4EE0F50AA3E0F50BE586
:102D18000A450B60638E828F83123310EE4F700565
:102D280075080280537A067B001214E78A0C8B0D13
:102D3800A80CA90DE8497005750813803B8882899D
:102D480083E4122D87EEF0A3EF122EA3E50AF0A379
:102D5800E50BF0900303122E9C9003036017E0FC30
:102D6800A3E08003EAFCEBFD8C828D83122E9C701D
:102D7800F38C828D83123F9CA9087405024B59F08D
:102D8800A31248BBA32274F2121A728908890C751F
:102D98000D007403780C1219EF850C0A850D0B9041
:102DA8000302F0900300123DA7122E9A602E12140F
:102DB800ED7900801D890C750D007402780C1219CC
:102DC800EF9003001242408882F583A3A3E4F0A3A6
:102DD800F00990035FE0F8E9C39840D990035FE0F9
:102DE800FA850AF0A4CAA8F0850BF0A428FB1214EF
:102DF800E78A0C8B0DAE0CAF0DEE4F7003022E90D0
:102E080090035FE0FC850AF0A4CCA8F0850BF0A441
:102E180028FD79001214337C0080318D0C750D006B
:102E28007403780C1219EF8A828B83122E9588828C
:102E38008983E4F0122EA2A3A3F0A3F00DEDC395AD
:102E48000840D8EE250AFEEF350BFF0C90035FE033
:102E5800F8ECC39850288C0C750D007402780C128D
:102E680019EF900300122E95E82402500109FAE99F
:102E7800FB8A828B83EEF0A3EFF07D0080BFE5082C
:102E8800900302F0790080027913024B5C124244ED
:102E9800F922A3A3123949EA4B22A31248BBA3A3E0
:102EA800A32274F4121A727900EAA2E0501F75087E
:102EB800507509817808121C8579107C047D007A88
:102EC800F27B161209897402121A18E9F980007F38
:102ED80004021B44C082C083900303123974601C2F
:102EE80088828983A3A3E06A7003A3E06B88828940
:102EF8008370E8A3A3A3A312394580047A007B005A
:102F0800022BCD74F2121A7274FD121A02EAFEEB49
:102F1800FF851882851983E4F0A3F07402121A4E13
:102F28007401F01239717014120B4B1214E79003EC
:102F380006123587123971700302309D123687EEFA
:102F48002404F50AE43FF50B850A82F583E024FEA4
:102F5800603C24FC607424FE607E24FE7003022F13
:102F6800ED24FE7003022FFA24FE700302300724BA
:102F7800FE700302301424FE700302302124FC701A
:102F88000302304224FE700302305A023096120BBC
:102F98004B900308EAF0A3EB1230A91205BDE960D3
:102FA80003023096900308121C9C8E828F83A3A381
:102FB800A3A3A31248D9850882850983123945122B
:102FC80009597402121A18023096AC18AD19EEFAA3
:102FD800EFFB1209A7023065AC18AD19EEFAEFFB4A
:102FE8001209AD8078AC18AD19EEFAEFFB1209B3EF
:102FF800806BAC18AD19EEFAEFFB1209B9805EAC24
:1030080018AD19EEFAEFFB1209BF8051AC18AD19D3
:10301800EEFAEFFB1209C580447402121A58880CA4
:10302800890D780C121C857402121A68EEFAEFFBEF
:103038001209CB7402121A188023AC18AD19EEFAD3
:10304800EFFB1209D1E9F870167402121A4EE4F077
:10305800803CAC18AD19EEFAEFFB1209D7E9F8E895
:10306800602C8E828F83A3E064146022850A828597
:103078000B83E0900308F08518828519831239457F
:10308800900309123587E8A31230A91205B7EEFAA2
:10309800EFFB12092F7402121A4EE0F97403024B67
:1030A80059F07C087D0385088285098312394922F5
:1030B80074E8121A7274FA121A027404121A4EEC94
:1030C800F0A3EDF08A128B13EA2405F50EE435130C
:1030D800F50FEA2402F510E43513F511851082F591
:1030E800831239451206AD8A0A8B0B7508007C03DA
:1030F8007D0079007A087B03121433E50E2402F56B
:1031080016E4350FF5177402121A58880C890D78D1
:103118000C121C85850E82850F83A3A3A3A3E0F55B
:103128000C750D00780C121C85E50E2405F50CE4D1
:10313800350FF50D780C121C8585168285178312BC
:103148003C4C1208937406121A188A0C8B0DE50C65
:10315800450D70030232D98020851882851983E0D5
:1031680088828983F00508851882851983A3E0C0C1
:10317800E012331AD0E0F00508E50A24FBFAE50B63
:1031880034FFFBC3E5089AE49B40030232D97E0072
:103198007F00851282851383A3A3A3A3E0F5097892
:1031A80009121C89E4F514F5157814121C85751498
:1031B800057515037814121C85900306121C9C745F
:1031C80009121A4E121C9CE50A24F9F9AC0CAD0D33
:1031D800851082851183123945120A017409121A61
:1031E80018E9600302327A850E82850F83A3A3A3B0
:1031F800A3A3A3A3E0F8900305E0687075E0F514B5
:103208008E157814121C851248D6850E82850F8378
:10321800A3A3A3A3A3A3A3A312394512142D740235
:10322800121A18E9604C900309123974703BE4F5DE
:10323800147814121C857CFF7DFF79078510828520
:10324800118312394512096B7402121A1812397A4D
:103258007017850E82850F83124A737404121A4EF2
:10326800124334123C7D02330D850C82850D831286
:103278003310A818A919881489157814121C857494
:1032880004121A4E121C9C85168285178312357DEE
:1032980012089F7404121A188A0C8B0DEE4F7003D3
:1032A80002315612331AEE123325123C33EF123321
:1032B80025F8A3E03400F9E50C450D6003023161FF
:1032C8008882898374FFF0050812331A74FFF005A9
:1032D80008E508601A1313543F12358D1205C9E921
:1032E800600990030912394512149F7900801685E8
:1032F8000E82850F83124A737404121A4E124334D5
:10330800123F9C790A023C06A3A3A3A3E0FEA3E014
:10331800FF22A808900309E028123C3322F0050890
:1033280008900309E0282274E8121A7274FA121A33
:10333800027402121A4E1235877404121A4EECF0F7
:10334800A3EDF07402121A4EE02405123C1CE0F5BD
:103358000CA3E0F50D7402121A4EE02402F510A336
:10336800E03400F511851082F5831239451206AD57
:10337800750800750900EA24FCFEEB34FFFF80089D
:10338800050CE50C7002050DA808C3EE98EF940033
:103398005003023539A818A919880E890F780E121A
:1033A8001C85851482851583A3A3A3A31248DD1267
:1033B8001C85E5142405F50EE43515F50F780E1275
:1033C8001C8585148285158312357B120893740633
:1033D800121A188A0E8B0FEA450F7003023539EA64
:1033E8002404F516E4350FF517851682F583E0F504
:1033F8000CA3E0F50D8518828519831248D98A82B5
:103408008B83A3A3A3E0F985108285118312394524
:10341800120881E9F50960030235397402121A4E5F
:10342800123C43F5097809121C89E4F512F5137862
:1034380012121C857512057513037812121C8590DB
:103448000306121C9C7407121A4E121C9CEEF9AC4F
:103458000EAD0F851082851183123945120A017449
:1034680009121A18E9F5096003023539E508703FB1
:10347800E4F50EF50F780E121C857CFF7DFF7909A7
:1034880085108285118312394512096B7402121A4C
:1034980018123C69700D7404121A4E1235707911A5
:1034A80002356D900305E02402900309F080149022
:1034B8000309E0FA900305E0790024025001096A43
:1034C800497072A808900305E0FAE82AFAE4340083
:1034D800FBEE9AEF9B405A851682851783E0C0E081
:1034E80090030A12331FD0E0F0050885168285176D
:1034F80083A3E0C0E00890030A12331FD0E0F00570
:10350800089003051248DD121C851248D6A8081237
:103518003C1012141B7402121A18900305E02508B7
:10352800F50874FF650C700474FF650D60030233C1
:1035380088E508601F900309E0F5F0E50884123576
:103548008D1205CFE9600990030A12394512149FBC
:1035580079008011E509700375090A7404121A4E7E
:10356800123570A909023C06123DABE50CF0A3E543
:103578000DF022A3A3124B68AA0CAB0D22A3A3EA59
:10358800F0A3EBF022900308F07C087D03851082FD
:103598008511831239492274EC121A7274FC121ABA
:1035A800021240AC7402121A6812393F1208998A42
:1035B8000C8B0DEA450D7003023677123687A81872
:1035C800A919881089117810121C857CFF7DFF7954
:1035D8000B85088285098312394512096B7402121A
:1035E8001A1812377D700C850A82850B83123C7A73
:1035F8000236848E828F83A3A3A3A3E0F5127812E8
:10360800121C89E4F512F5137812121C857512083C
:103618007513037812121C857810121C8574091210
:103628001A4E121C9C7409121A4EE0F9AC0CAD0D1E
:10363800850882850983123945120A017409121A0C
:1036480018E9FE70157C087D0385088285098312B8
:1036580039451205D5E97009802074166E70027E0E
:103668000090030912394512149FEE7004800B7EF6
:1036780001850A82850B83123F99EEF9023FAEEE6F
:103688002402F508E43FF5092274EC121A7274FC5E
:10369800121A02EAFEEBFF8C0E8D0FEE2405F508D8
:1036A800E43FF5097402121A6885088285098312B5
:1036B80039451208998A0C8B0DEA450D70030237BB
:1036C8006DEE2402F50AE43FF50BA818A919881035
:1036D80089117810121C857CFF7DFF790D12393F06
:1036E80012096B7402121A1812377D700B85088242
:1036F800850983123C7A807A8E828F83A3A3A3A341
:10370800E0F5127812121C89850882850983A3A323
:10371800121C9C7512087513037812121C857810F8
:10372800121C857409121A4E121C9C7409121A4E26
:10373800E0F912393B120A017409121A18E9FE70ED
:103748000F7C087D0312393F1205DBE970098020E0
:1037580074166E70027E0090030912394512149F88
:10376800EE7004800B7E01850882850983123F99DB
:10377800EEF9023FAE123984F510A3E0F511EA45DF
:10378800112274E8121A7274FE121A028A168B1722
:103798008C148D15EA2405F50CE43517F50DEA248B
:1037A80002F50EE43517F50F850E82F583123945BB
:1037B8001206AD8A088B09750B007C037D00790021
:1037C8007A087B03121433750A00E50814F510040F
:1037D80024FFF508E50934FFF5098054900308E053
:1037E800FA900305E0F8EA28F8E43400F9E50898C7
:1037F800E50999500D900308E0F8E510C398900387
:1038080005F0E0F5127513007812121C851248D6DF
:10381800900309E02AFAA3E03400FB12141B740297
:10382800121A18900305E0F8900308E028F0050A3A
:10383800850C82850D83A3A31242504003023920D0
:10384800900308E0C39508E495094003023920AEC7
:103858000AEE2EFEE433FF12395FAC18AD19124898
:10386800F1E439FB1208998A128B13AC12AD13ECF0
:103878004D701B750B0112394F123F9D90030912B1
:103888002E9C600312149FA90B7402023C08851633
:1038980082851783A3A3A3A3E0F50B780B121C89D9
:1038A800E4F512F5137812121C85751205751303C9
:1038B8007812121C85900306121C9C7407121A4E6B
:1038C800121C9CA910850E82850F83123945120A95
:1038D800017409121A18E9F50B709B900309123943
:1038E8007460030237E4E4F512F5137812121C85AC
:1038F8007CFF7DFF790F850E82850F831239451273
:10390800096B7402121A1812397A60030237E4122A
:10391800394F123C7E0238917C087D03850E8285E2
:103928000F831239451205E1E960030238847900F2
:10393800023891AC0CAD0D850A82850B831239498A
:1039480022E0FAA3E0FB2212395FE0FAA3E0F9EAE9
:1039580085148285158322850C82850D83E02EF8D7
:10396800A3E03FF98882898322900306124A77E808
:103978004922123984F8A3E0F9E84922900309EAB8
:10398800F0A3EBF0900309E02274E8121A7274FABB
:10399800121A027404121A4E1235878C168D177477
:1039A80004121A4EE02405F50EA3E03400F50F7456
:1039B80004121A4EE02402123C1C1239451206ADBC
:1039C8008A0A8B0B7F007E00A818A9198808890924
:1039D8007808121C85850E82850F83A3A3A3A3E014
:1039E800F5088E097808121C85E50E2405F508E40B
:1039F800350FF5097808121C85850E82850F83A37B
:103A0800A3123C4C1208937406121A188A0C8B0DD8
:103A18008029123C3DF00F123C3DF00F9003051237
:103A28003F88121C851248D6EFF8123C1012141B5E
:103A38007402121A18900305E02FFFE50C450D706B
:103A480003023ACC8518828519831240BEA3A3A32A
:103A5800E0F9851482851583123945120881E9FE3B
:103A6800E50C2404F510E4350DF511EE70507404DE
:103A7800121A4E123C43F5087808121C89E4F5081E
:103A8800F5097808121C8575080575090378081268
:103A98001C85900306121C9C7407121A4E121C9C5B
:103AA800E50A24FAF9AC0CAD0D851482851583124C
:103AB8003945120A017409121A18E9FE6039123CD4
:103AC80059123F9CEF7003023BF3900309E0F5F0B5
:103AD800EF84900308F07C087D03851482851583A4
:103AE8001239451205E7E9600990030A12394512AF
:103AF800149F7900023C068F08EF703BE4F512F53D
:103B0800137812121C857CFF7DFF7911851482853C
:103B1800158312394512096B7402121A18123C697E
:103B28007009123C59123C7D023C06900305E024C2
:103B380004900309F08035900305E0F8900309E04C
:103B4800FAE82404FCE43400FDEC6A4D6003023A10
:103B5800D2E50A24FAFAE50B34FFFBE50828F8E475
:103B68003400F9EA98EB995003023AD2851082851D
:103B78001183E0C0E090030AE02FF8A3E034008846
:103B880082F583D0E0F00F851082851183A3E0C011
:103B9800E0123C2AD0E0F00F7402121A5888088903
:103BA800097808121C857402121A4E121C9C850E84
:103BB80082850F8312357B12089F7404121A188AA3
:103BC8000C8B0DEA450D7003023A1A7402121A4E54
:103BD800E0C0E0123C2AD0E0F00F7402121A4EA3A3
:103BE800E0C0E0123C2AD0E0023A22EE70027E0ADF
:103BF800850E82850F83123C5F123F9CEEF9740696
:103C0800121A187F10021B4490030AE028FAA3E056
:103C18003400FB22F514A3E03400F515851482F571
:103C28008322123C2E2290030AE02FFAA3E03400EC
:103C38008A82F58322123C2E74FF22123DABA3A385
:103C4800A3A3E022124B68850E82850F831239499F
:103C580022851082851183124A77851682851783FB
:103C68002290030AEAF0A3EBF090030A124A77E8DD
:103C78004922123FA2E8F0A3E9F079112274EA126E
:103C88001A7274FE121A028A088B098C128D13EAB2
:103C98002405FEE43509FFAC18AD198E828F831216
:103CA80039451208998A0C8B0DEE2406F50EE43F6F
:103CB800F50FEA450D7003023D7DE5082402F50A7B
:103CC800E43509F50B8A828B83A3A3A3E0A2E55010
:103CD800288518828519831239451209F58A108BAF
:103CE80011EA45116020791212393B85108285113D
:103CF80083121A70E9F50C707F850E82850F83E0B8
:103D0800600979528011750C0E806D8508828509CD
:103D180083A3A3A3A3E0F9E4F508F5097808121C26
:103D2800858E828F83A3A3E0F5087808121C858E00
:103D3800828F83A3A3A3121C9C8E828F831248D9DF
:103D480012393F120A077406121A18E9F50C701195
:103D5800850E82850F83E0702D12393F1205ED80A4
:103D6800257416650C7011750C007418121A4E1211
:103D78003DA7E48010750C01124A6F8512828513E5
:103D880083E8F0A3E9F0850E82850F83E06004796B
:103D9800008002A90C7402121A187F0E021B44122A
:103DA8003DAB22E0F8A3E0F58388822274EC121A76
:103DB8007274F7121A028A0A8B0B8C108D11EA247E
:103DC80005FEE4350BFF750C00AC18AD198E828F1B
:103DD800831239451208998A088B09EA4509700344
:103DE800023F73E50A2402F50A5002050B8A828B0A
:103DF80083A3A3A3E0A2E5502F8518828519831217
:103E080039451209F58A0C8B0DEA450D604F791278
:103E1800AC08AD0912393F850C82850D83121A70E2
:103E2800E9F50C6003023F76850A82850B83E0F58D
:103E380008A3E0F509AA08FB1209E9EA4B70197A08
:103E4800FF7BFF1209E9EA4B7003023F698A828B04
:103E580083E508F0A3E509F07508008008750C0EE5
:103E6800023F760508900302E0F8E508C39840038E
:103E7800023F6985080E750F007403780E1219EF5A
:103E88008A828B83A3A3E0250EF8A3E0350F1243A3
:103E98003D70D08E828F83123F911235878E828F2C
:103EA80083A3A3123F91123585EE2404F508E43F5D
:103EB800F509850882F583E088828983A3A3A3A3F3
:103EC800F0A3E4F0EE2405F50EE43FF50F850E822D
:103ED800F583123F91A3A3A3A31235857512077525
:103EE80013007812121C85EEFCEFFD7404121A60A0
:103EF80012141B7402121A18E4F5127812121C8597
:103F0800850882850983E0FC7D00791712393F1204
:103F1800096B7402121A187407121A4E1235877434
:103F280007121A4EE0FA4B603D8508828509831214
:103F38003F88121C85850E82850F831248D912147A
:103F48001B7402121A187402121A6812393F1205E9
:103F5800F3E960267407121A4E12394512149F802D
:103F680019750C098008750C118003750C01124A2B
:103F78006F851082851183123F9CA90C74098028D3
:103F8800E0F5087509007808221239498882898382
:103F980022123FA2E8F0A3E9F022E0F8A3E0F985B5
:103FA8000E82850F83227404121A187F0C021B4498
:103FB80074EC121A721240AC751000EE2402F50C63
:103FC800E43FF50D850C82F5831239451209E98A1B
:103FD800088B09EA45097003024090850A82850B1F
:103FE80083E064016003024085AC08AD09AA0AAB0E
:103FF8000B1209DDE9606E85088285098312331288
:10400800EE2406F50AE43FF50B8E828F83A3A312F4
:104018001C9C8E828F83A3A3A3A3121C9C850A8257
:10402800850B83121C9C79188E828F831240BE12D6
:104038003945120A077406121A18E9F874166870D6
:104048000B850A82850B83E4F0A38014E860128E46
:10405800828F83123945850E82850F83EAF0A3EBA0
:10406800F088108018780E121C85AC08AD09EEFA9D
:10407800EFFB1209E37402121A18E9F510AA08AB4B
:10408800091209EFE510700E850C82850D8312392F
:10409800451205F98009741665107003751000A99A
:1040A80010023FB3EAFEEBFF8C0E8D0FEE2405F5F0
:1040B8000AE43FF50B22124B68850C82850D83229A
:1040C80074EA121A727508007509007E007F00757F
:1040D8000A00EC2402F510E43DF5118035EC650882
:1040E8007003ED6509600302417D88828983A3A37B
:1040F800E06A7003A3E06B707C88828983A3A3A322
:10410800A3124A73EE28FEEF39FFEA28FAEB39FBCF
:10411800050A12424D503A850A0C750D0074037851
:104128000C1219EF85108285118312424012433D0B
:10413800601FE508450970A58C088D098882898368
:1041480012331088828983A3A3E02EFAA3E03F806C
:10415800BEE50AC39402500302423B750800750984
:1041680000EE4F6010EEFAEFFB1214998A0E8B0FD7
:10417800EA450F7005790002423D750B00024210B6
:10418800850B0C750D007403780C1219EF851082DD
:10419800851183E0250CF50CA3E0350DF50DE50C34
:1041A8002406F514E4350DF515851482F5831243BC
:1041B800426042E50C2404F512E4350DF51385122E
:1041C80082F583121C9CE50E2508FAE50F3509FBDC
:1041D80012141B7402121A18851282851383E025A3
:1041E80008F508A3E03509F50985148285158312B9
:1041F800394512149FE50B600D7C087D007900AAF3
:104208000CAB0D121433050BE50BC3950A500302D2
:104218004188851082851183124A7388828983A315
:10422800A3A3A3A3A3E50EF0A3E50F122EA3EEF01C
:10423800A3EFF07901023DA212424422E0250CF8D6
:10424800A3E0350D22900302E0F8E50AC398227432
:10425800F0121A728A0E8B0F8C0A8D0B750D007571
:104268000C0080507916EE2406F508E43FF5098E17
:10427800828F83A3A3121C9C8E828F83A3A3A3A3E4
:10428800121C9C850882850983121C9C850E8285D8
:104298000F83A3A3123945120A077406121A18E9E4
:1042A800F50D7416650D706C850882850983E4F038
:1042B800A3F0050C900302E0F8E50CC3985066AA39
:1042C8000C8A08750900740378081219EF850A82A8
:1042D800850B83A3A312438CE8FEE9FF8E828F83AC
:1042E8001243426040EA2401F508E43400F50990DD
:1042F8000302E065087002E509601488828983A3D7
:10430800A3A3A3A3A3A3A3123974600302426C79E5
:104318001802426EE9609B124A6F7410121A4E120C
:104328004334123F9CA90D7F08021B44E0FAA3E026
:10433800F5838A8222F988828983124B68EC4D22A0
:1043480074F6121A727C0080010C90035FE0F8EC9E
:10435800C398501E8C08750900740278081219EF6A
:10436800124381E06A7003A3E06B70DDE8FAE9FBB1
:1043780080047A007B0002442490030012438C8856
:1043880082898322E02508F8A3E03509F92274F22E
:10439800121A728A088B09750A0080278E828F8309
:1043A800A3A3A3A3122E9A600312149F7C087D0076
:1043B8007900EEFAEFFB1214338E828F83E4F0A3B8
:1043C800F0050A12424D5027850A0C750D0074033A
:1043D800780C1219EF850882850983A3A3E0250CC0
:1043E800FEA3E0350DFF8E828F8312397470AD8580
:1043F800088285098374FFF0A3F0024B5C74F612FF
:104408001A7212099B8A828B83E582458370067A29
:10441800007B008007A3A3A3A31239457F02021BD8
:104428004474F4121A7289088C828D83E0640270D5
:104438003C124A12FEA3E0F9EEF8740268700374A5
:1044480029697029750A02750B00780A121C85748F
:1044580010121A4E121C9C7410121A4E121C9CA98F
:10446800081212E97406121A18E9F9800279010291
:104478002ED774E8121A7274FB121A02E985188290
:10448800851983F08A168B17ECFEEDFF7510008EE8
:10449800828F83A3A3A3E0A2E4502D741D121A4EA9
:1044A8001239451209F58A828B83E58245837003A8
:1044B8000248B1790AEEFCEFFDAA16AB17121A7082
:1044C800E9F51060030248B4741F121A4EE0F508AB
:1044D800A3E0F5097421121A4EE0F50AA3E0F50BE2
:1044E8007423121A4EE0F50EA3E0F50F8E828F8327
:1044F800E064026003024852A3124A738508828569
:104508000983A3858212858313EE2406F50CE43F04
:10451800F50D888289831248F1F514E439F5157888
:1045280014121D0F01000028012854450700022815
:104538001946032887450029484701297347022956
:104548001447032948470429EC475248E50E450F0C
:10455800600302484D850C82850D83124A73E8FA80
:10456800E9FB8A828B83E0850A82850B831248FCEB
:10457800121C858A828B83A3E0FCA3E00247D6E560
:104588000E450F600302484D850A82850B8374012E
:10459800F01248E6850882850983F07C007D008E4C
:1045A800828F83A3A3A3A3E02401FAA3E03400FB32
:1045B800120899EA4B60408A828B83E02402F885CE
:1045C8000A82850B83E028F0EA2404F8E43BF988A2
:1045D800828983E085128285138312490A1248FC76
:1045E800121C858A828B83A31248D9E5082403FA12
:1045F800E43509FB0247DB850A82850B83E0240446
:10460800F07C047D007900AA12AB1312143302481F
:10461800B4E50E450F600302484D1248E6FEA3E0DC
:10462800FF850A82850B837404F0EE85088285096C
:1046380083F0EF851282851383F07403121A68EEF3
:10464800FAEFFB1208998A0C8B0DEA450D700302EC
:1046580046F78A828B83A3A31233107401121A5867
:10466800880E890F780E121C857405121A4E121CBA
:104678009C7CFF7DFF12089F7404121A188B0FEAA6
:10468800450F7033850C82850D831248DD121C8519
:10469800850C82850D83A3121C9C7C027D007A3BCD
:1046A8007B8212069B7404121A18E9700A740112AC
:1046B8001A4E74FFF0A3F08E828F83E06402703983
:1046C800750C02750D00780C121C858E828F83A3E1
:1046D8001248D9E5082404FAE43509FB12141B74BE
:1046E80002121A18850A82850B83E0240280097455
:1046F80001121A4EEEF0A3EFF07401121A4E12488E
:10470800CB7401121A4E1248C2024847E50E450FF3
:10471800600302484D850C82850D83124B61AA16F1
:10472800AB171212EF850A82850B837402F0850895
:1047380082850983EAF0851282851383EB02484A51
:10474800E50E450F600302484D1248E6F8A3E0F96C
:10475800850A82850B837402F0E8850882850983BF
:10476800F0E985128285138302484A850C82850DFB
:1047780083123945121415EAFAF8C3950EE4950F19
:10478800405CE8650E450F70047A00802185188228
:10479800851983E0FCE50E2CFCE4350FFDC3EC988D
:1047A800ED94005003E08005E50ECAC39AFAEA8545
:1047B8000A82850B83F08A0A750B00780A121C8519
:1047C800850C82850D83E0250EFCA3E0350FFDAA3C
:1047D80008AB0912141B7402121A180248B4751097
:1047E800070248B4E50E450F705B850C82850D8382
:1047F800124A73850A82850B837407F0888289833D
:104808001248C31248BBE0851282851383F0E8245E
:1048180002FAE439FB8A828B831248CB8A828B8323
:104828001248C2A3A3122EA21248D0F0E82405F819
:10483800500109888289831248D0A312490AA3A388
:10484800A3A3F0806775100B8062741D121A4E12B4
:10485800394512099B8A828B83E5824583604A1217
:104868004A73880C890DE8450D603E7425121A4E6E
:10487800E0F5107810121C89780E121C85780A123F
:104888001C857808121C857407121A4EE0F9EEFC94
:10489800EFFDAA16AB17850C82850D83121A70746A
:1048A80007121A18E9F510800375100EA91074057F
:1048B800023C08F088828983A322A3E085088285C8
:1048C800098322124911F022124911A3A32290034D
:1048D80006124B6822E0F50E750F00780E22850C43
:1048E80082850D83123DABE022E0FAA3E0F8E4C82C
:1048F800F9EA2822F08A828B83E0F50A750B0078A2
:104908000A221248BB12491122E0850882850983D0
:10491800A3A32274EE121A7274FE121A028A088B6A
:1049280009ECFEEDFF890AAC18AD19EEFAEFFB129F
:1049380008998A0C8B0DEA450D7003024A03851805
:104948008285198312394512099B8A828B83E582F5
:10495800458370030249FEA3A3124A73880E890F88
:10496800E8450F70030249FE7414121A4EE0F51060
:10497800A3E0F511E50AF50B780B121C89741912DE
:104988001A4E121C9C7810121C85741B121A4EE0C9
:10499800F9AC0CAD0DAA08AB09850E82850F831200
:1049A8001A707405121A18E9F50B705274FE650A2C
:1049B800604C850C82850D83E064027041124A12B6
:1049C800FAA3E0F9EAF87402687003742969702E92
:1049D8008510828511831248F1F50CE439F50D78BC
:1049E8000C121C85EEFCEFFDAA08AB09120A1F7415
:1049F80002121A188008750B0E8003750B01A90B9B
:104A08007402121A187F0A021B44A3124A7788827A
:104A18008983E02274F6121A7274FE121A02740C58
:104A2800121A4E124A73E8851882851983F07401A8
:104A3800121A4EE9F0E4F508F5097808121C857594
:104A480008027808121C857404121A588808890903
:104A58007808121C8579FE120A077406121A18744F
:104A680002121A180244248E828F83124A7722E097
:104A7800F8A3E0F92274F7121A72EAFEEBFF89082C
:104A880090031D1248D91212EFEA5402600BA908CC
:104A9800EEFAEFFB12088D800279017F01021B44B8
:104AA80074F2121A7274FE121A02EAFEEBFF890AF5
:104AB8007401650A60147402650A6003024B577931
:104AC80001120C2FE96003024B57EEFAEFFB1209B3
:104AD800E9EA4B60031209EFA818A919880889099F
:104AE8007808121C857508027509007808121C855B
:104AF8007508277509827808121C857CFF7DFF7A66
:104B0800017B001208937406121A188038850882EF
:104B1800850983A3A3A3A3A3A3124B61EEFAEFFB1A
:104B28001212D7E4F50CF50D780C121C85740212DC
:104B38001A4E121C9C7CFF7DFFAA08AB0912089F25
:104B48007404121A188A088B09E508450970BE749E
:104B580002121A187F06021B44123DAB124B682240
:104B6800E0FCA3E0FD2274F4121A728A088B09ECA7
:104B7800FEEDFF9016F0E0F4604B7A097B0012140A
:104B88003FEA4B60408A828B8374B1F0A3E4124BF6
:104B9800D0F08A828B83A3A3E508F0A3E509124B22
:104BA800D0A3EEF0A3EFF0740C121A4E124A738AD7
:104BB800828B83A3A3A3A3A3A3A3123F9C9016F065
:104BC800E0F912144B022ED7F08A828B83A3A3A399
:104BD800A32274F0121A7274FA121A028909ECFEEE
:104BE800EDFF7508008A0A8B0B780A121CC90004AD
:104BF80010004E1D4C3B4C554C6D4C8B4CA34CC679
:104C08004CDE4CF24C1C4D974DA84DBF4DDA4D0073
:104C18004E004E324D740165096003024DFB8E82D1
:104C28008F83E0F8C394034003024DFBE89017DC40
:104C3800024DD7740265096003024DFB8E828F8393
:104C480012555E9017DDE8F0A3E9024DD7740165AF
:104C5800096003024DFB124E284003024DFBE89009
:104C68000743024DD7740165096003024DFB8E822C
:104C78008F83E0F8C394054003024DFBE890074496
:104C8800024DD7740165096003024DFB124E28409E
:104C980003024DFBE8900745024DD7741065096083
:104CA80003024DFB750A10750B00780A121C857AF1
:104CB800467B0712141B7402121A18024E21740143
:104CC80065096003024DFB124E284003024DFBE8C4
:104CD800900756024DD7740165096003024DFB8E9B
:104CE800828F83E09017E0024DD774046509600352
:104CF800024DFB8E828F83780C1218C69081F07853
:104D08000C1216665003024DFB900758780C1218C7
:104D1800D5024E21E96003024DFB120833E9700504
:104D280012129B80559007EB806174076509600338
:104D3800024DFB750A06750B00780A121C858E82D7
:104D48008F83A3AC82AD837402121A60121421748B
:104D580002121A187C007D00AA18AB198E828F8364
:104D6800E0F9121247E9FEC3940A4003024E1E12EC
:104D78000833E9700CEEF91212A1795012155F8010
:104D88006D74EC2EF582E43407F583740180407469
:104D9800016509705E124E285059E8900757802F18
:104DA80074016509704D8E828F83E0F8C3940A50B0
:104DB80042E89017DF80187401650970368E828F7B
:104DC80083E0F874F928C3940A5028E89017E1F0B2
:104DD800804774016509701B9007EAE0F88E828F9E
:104DE80083E09007EAF0E87030E06401702B12125B
:104DF8008F80267508188021C3EA9427EB94005009
:104E08001574026509700F8E828F8312603E120638
:104E1800B3E9F5088003750802A908740602514C25
:104E28008E828F83E0F8C3940222A9088003121AA5
:104E3800187F04021B4474F0121A7274B1121A0219
:104E48008C0A8D0B90814A7420121A687406121904
:104E5800157420121A68121247E9FF745F121A4E6D
:104E6800E0F509EFC3940A4003024FC075F006EF5E
:104E7800A4F5087441121A687A0E74202508F912EC
:104E88001559E97009744D121A4EE0FE80027E0031
:104E98009017DCE064027005750E018003750E0042
:104EA8007408650970047422800274212508F50DC0
:104EB8007C1B7D0079007426121A60121433742644
:104EC800121A687A1BA90D121559E9702D7440122F
:104ED8001A4EE024F9C3940A5020E50EF50D780D1A
:104EE800121C897427121A68EEA2E0E433F9AA0AA0
:104EF800AB0B1207557401121A187C147D00790047
:104F0800740C121A60121433740C121A687A107422
:104F1800242508F9121559E970347C1079FF740CAE
:104F2800121A60121493E97025741C121A4EAC827E
:104F3800AD837A0474252508F9121559740C121AD0
:104F480068EEA2E0E433F9AA0AAB0B12073DAC18ED
:104F5800AD197A0C74702FF9121559E97049AA180D
:104F6800AB191212777F00EF75F003A4F8A9F0854A
:104F78001882851983E58228F8E583125715125897
:104F8800F6601D88828983A3A3E0F50E750F00786B
:104F98000E121C85AA0AAB0B120A0D7402121A18FB
:104FA8000FEFC3940440C0EEA2E1500C900742E01A
:104FB800F9AA0AAB0B120A13740465097028901732
:104FC800DCE0640270207A00900756E060027A0103
:104FD800900743E06004780480027800E84AF9AA60
:104FE8000AAB0B1208097900744F02514C74F7127E
:104FF8001A72120833E9704F9007EBE064017015DC
:1050080012129B9007EBE4F07C0AFDF97AEC7B071F
:10501800121433802A750800A80874EC28FEE434BA
:1050280007FF8E828F83E06401700BA9081212A11A
:105038008E828F83E4F00508E508C3940A40D97985
:105048005012155F12128F025A2D74F0121A7274D0
:10505800F0121A02EAFEEBFF8C088D09750A0AE9BC
:10506800600C14600914603B14607D0251481212F0
:1050780089E9F50AC3940A4003025148E50845093D
:105088007003025148750C06750D00780C121C85CA
:10509800EEFCEFFDAA08AB0912141B7402121A18D1
:1050A800025148750C00750E06750F00780E121C1B
:1050B80085EEFCEFFDE50C75F00EA4F8A9F074641C
:1050C80028FA740739FB12142D7402121A18E970A1
:1050D8000B050CE50CC3940A506680CA850C0AE5DA
:1050E8000AC3940A505A8049750C00AC18AD197A55
:1050F8001075F006E50CA42423F9121559E9701C63
:105108007C1079FFAA18AB19121493E9700EEEFC03
:10511800EFFDAA18AB19120719E9600B050CE50C8D
:10512800C3940A501B80C4850C0AE50AC3940A502C
:105138000FE50845096009AA08AB09A90A121283F4
:10514800A90A7410121A187F08021B4474F4121A60
:1051580072890975081574FF6A700374FF6B7027EC
:105168007E00AC097A027B00EEF9121265E9600351
:105178007508000EEEC3940A40E8E50960537AB357
:105188007B12120C53804A120C238A0A8B0BAE0A2C
:10519800AF0BEE4F60387C007D00EE2405FAE43F4B
:1051A800FB8E828F83A3A3A3A3E0F9121247E9F928
:1051B800C3940A500CAC097A027B00121265750878
:1051C80000E509600CEEFAEFFB1212B380037508D4
:1051D80014024E3274F2121A72ECFEEDFF750815C5
:1051E800740E121A4EE0F50AA3E0F50B74FF6A700C
:1051F8000374FF6B7021750900AC0AAD0BEEFAEF72
:10520800FBA90912126BE960037508000509E50995
:10521800C3940A503F80E2120C238A828B83E58272
:105228004583602D7C007D00E5822405FAE4358302
:10523800FBA3A3A3A3E0F9121247E9F9C3940A5008
:1052480013AC0AAD0BEEFAEFFB12126B7508008077
:1052580003750814A9087F06021B44C082C0839006
:10526800075CEAF0A3EBF0900742E0FC7D007A26A9
:105278007B001206B3900742E0F9120977025D47F6
:1052880074EE121A7274EC121A028A088B09EA2454
:105298000CF510E43509F5118A828B83A385820CFD
:1052A80085830DEA2405F50EE43509F50FEA24098E
:1052B800F50AE43509F50BEA2403FEE43509FF8A0B
:1052C800828B83A3A3E024FA700302554C24FD705B
:1052D8000302546C14700302536614601024FD70AA
:1052E8000302544F1470030254A40255521260442E
:1052F8006044E0F583888212555E880C890DE84584
:105308000D6033851082851183E0F50E780E121C2E
:1053180089EA240BF582E43509F583E0F91260384F
:105328000A0A0AEFFB850C82850D83121A70740134
:10533800121A18025552850A82850B83121C9C90FA
:1053480007581218E412074F7402121A18E970036A
:105358000255527901850A82850B8302551C750A0C
:1053680000850C82850D83E0600302541C850E8243
:10537800850F83E0A2E0400302541C9007F61260F8
:1053880047600302541C7C0E7D007900AA18AB19F3
:10539800121433851082851183125D12EA4B601056
:1053A800750A06750B00780A121C85EA2410801B02
:1053B800125D0E120C23EA4B7003025552750A0651
:1053C800750B00780A121C85EA2405FCE43BFD7481
:1053D80002121A6012141B7402121A18850E8285A2
:1053E8000F83E0A2E25004D2F08002C2F0A2F0E4FF
:1053F80033F8740C121A4E125EC612127DE970113F
:105408007A027B00900742E0F912146F7900025586
:1054180054750A1512604470030255521255737080
:1054280003025552850C82850D83E0FC79011255E3
:1054380064121A70E50A7003025552FC7903125D72
:105448000E125CC90255471260447003025552128D
:1054580055737003025552850C82850D83E0FC79E3
:10546800020255447C007D00EA2404FAE43509FB75
:105478008E828F83E0F9121247E9F8C3940A400339
:10548800025552E508240AFCE43509FD7A0475F052
:1054980006E8A42425F9121553025552125D0E9000
:1054A8000757E060079017DFE0F9806B9017DCE0A2
:1054B800700479058061120C238A0C8B0DA80CA945
:1054C8000DE8497003025552E82404F50CE439F557
:1054D8000D850882850983A3A3A3A3A3A3A3E0A2A0
:1054E800E05039850C82850D83E0F508602E850A29
:1054F80082850B83A3E054027022740E121A68E8A6
:105508002405FAE439FBA908121247E9700E790359
:105518008E828F83125D12120749802EAC0EAD0F5A
:10552800850C82850D83E0F9125D0E1212BF1260A0
:1055380044601712557360127C007900125564128A
:105548001A708006125D0E12124179017414121A33
:10555800187F0A021B44E0F8A3E0F9228E828F83A9
:10556800E0FAA3E0FB888285098322125CD7F989D7
:1055780009E845092274F5121A7274F2121A02EA3D
:10558800FE8C0A75F006E9A42420F508AC18AD19BC
:105598007A0EF9121559E970467C0679FFAA18ABFC
:1055A80019121493E97038740C121A4E125D12EA2B
:1055B800F8E50A6005EEC8488004EEF4C858F8EA31
:1055C800687001EB6015740C121A4EE8F0A3E4F051
:1055D800AC18AD197A0EA908121553790180027911
:1055E80000740E121A187F03021B4474F2121A7206
:1055F80074E6121A02890A8A088B09ECFEEDFF7418
:105608000C121A687A0E75F006E9A42420F912150E
:1056180059E960030256D87C0679FF740C121A60A7
:10562800121493E960030256D87470250AF50BAC7E
:1056380018AD197A0CF9121559E960030256D4AA63
:1056480018AB19121277E5084509701D7C0C790012
:10565800AA18AB19121493E970727C0C7D007900BA
:10566800AA18AB191214338051AC18AD19AA08AB9B
:10567800091212718A0C8B0DA80CA90DE849702229
:10568800EE4F604CAC18AD197A007B00121271EA2B
:10569800F8EBF9EA4B603988828983E508F0A3E5DD
:1056A80009F0125751FAEE6A7001EF601FEEF04FE1
:1056B800700888828983E4F0A3F0AA18AB19121243
:1056C80077AC18AD197A0CA90B1215537901800221
:1056D8007900741A121A1802525E74F7121A727E3E
:1056E80000EE75F003A4F8A9F0EC28F8ED125715B0
:1056F800E06A7003A3E06B7006E8FAE9FB800B0E22
:10570800EEC3940440DB7A007B00025A2D39F988F5
:105718008289832274F7121A727C00EC75F003A454
:10572800F8A9F0EA28F8EB125715E0F4FEA3E0F424
:10573800FF88828983EEF0A3EFF0125751F4F00C42
:10574800ECC3940440D5025A2DE82402F582E439CA
:10575800F583E02274F4121A7274F4121A02EAFE43
:10576800EBFF8C088D099007F6126047704FEE4FDB
:1057780070030258D5EC450970030258D5121289F6
:10578800E99017E2F0C3940A4033750B007C067960
:10579800FFE50B75F00EA4FAABF0745E2AFA7407F5
:1057A8003BFB121493E96003025836050BE50BC363
:1057B800940A40D9750A0AE50A9017E2F09017E2B0
:1057C800E0C3940A40030258D575F006E0A4FB90A4
:1057D80007F6126047705CEEFCEFFD7A0E74202B22
:1057E800F91215537C0C7D0079FFAA18AB19121415
:1057F80033AC18AD197A0C9017E2E02470F9121541
:1058080053750A0E750B00780A121C85EEFCEFFD25
:105818009017E2E012598E12141B7402121A189093
:1058280007F6E508F0A3E509F079000258D7850BDB
:105838000A8084E0C824061258F060197A1B742183
:105848002BF91215531258DC2406F582E438F58337
:10585800E4F0A380D31258DC240A1258F060107ABE
:105868001B74222BF91215531258DC240A80DB1200
:1058780058DC240C1258F060107A1074232BF9129B
:1058880015531258DC240C80C11258E51258F060E8
:10589800307A1074242BF91215531258E5F582E466
:1058A80038F583E02410FCA3E03400FD7A0475F099
:1058B800069017E2E0A42425F91215531258E58042
:1058C800899007EAE060031212C51212B9790174CF
:1058D8000C024E369007F6E0F8A3E0C8229007F6CF
:1058E800E0F8A3E0C8240822F582E438F5831260C2
:1058F8003EEC4D2274F4121A7274F2121A02EAFE85
:10590800EBFFE9C3940A5004EE4F70047902803427
:10591800AC18AD197A0E75F006E9A42420F9121511
:1059280059E9F508701C750A06750B00780A121CEF
:10593800857402121A68EEFAEFFB12141B74021235
:105948001A18A908740E024E3674F4121A72EAFE76
:10595800EBFF750800750A06750B00780A121C859E
:10596800EEFCEFFDE50812598E12142D7402121A7E
:1059780018E96004A908800B0508E508C3940A40E3
:10598800D4790A024E3975F00EA4F8A9F0745E288D
:10599800FA740739FB2274F7121A72750800E508C1
:1059A80075F00EA4F8A9F0745E28FE740739FFEEAE
:1059B800FCEFFD7A0E75F006E508A42420F912150F
:1059C80059E960297C067D0079FFEEFAEFFB121495
:1059D800337C067D0079FFEE2CFAE43FFB1214338A
:1059E800EE240CF582E43FF583E4F0A3F00508E526
:1059F80008C3940A40A89007EAE060031212C5128F
:105A080012B9802174F7121A727E007F007C06EFAB
:105A180012598E79FF121493E970010E0FEFC39497
:105A28000A40EAEEF97F01021B4474F7121A727EEB
:105A380000EEF91212A1E9F90EEEC3940A5003E937
:105A480060EF80E174F3121A7274CB121A0289089B
:105A58009017E2E06508701B7A017B00900742E02E
:105A6800F91214757A027B00900742E0F912147556
:105A78001212D175F006E508A4FF74202FFE7427D2
:105A8800121A687A0EEEF9121559E96003025B548E
:105A98007C0679FF7427121A60121493E9600302D6
:105AA8005B547C0E7D0079FF7427121A6012143340
:105AB8007C1B7D0079FF740C121A601214337C0C65
:105AC8007D0079FFAA18AB191214337427121A68CB
:105AD8007A0EEEF9121553E9FE740C121A687A1B45
:105AE80074212FF9121553E9F509740C121A687A02
:105AF8001B74222FF9121553E9F50A740C121A684F
:105B08007A1074232FF9121553E9F50B740C121A35
:105B1800687A1074242FF9121553E9F50C740C12D5
:105B28001A687A0474252FF9121553E9FFAC18ADD9
:105B3800197A0C74702508F9121553E9F8E5094526
