:020000040000FA
:0600000002011A02223584
:03002B000227BCED
:0300330002279E03
:03003B0002282078
:0300430002274C45
:030053000222ABDB
:03006B000227E584
:1000830002208BE5C754F84401F5C779012200002B
:100093000080FB120086B90003020104E4791B7897
:1000A30002B800028004F709D8FCE4791D7802B88D
:1000B30000028004F709D8FCE4900281788E791A53
:1000C3008002F0A3D8FCD9FA781A90014A7A01BACF
:1000D30000028007E493A3F608DAF97A0E7B1C90FA
:1000E300014B78DB79018015E493A3AD82AE838A5B
:1000F300828B83F0A3AA82AB838D828E83D8E9D9C6
:10010300E775827A7583DD740312012C758291750C
:100113008300740012012C75D00075813F7518811E
:10012300751902759F00020096C09FF59FE473D076
:100133009F22D083D082C09FE493C0E0740193C018
:10014300E0740293F59F2201C903D5030B04050450
:10015300FF0000B4000028002800283075A000A08C
:1001630000A000A00000080008E001F0001000104B
:10017300001000100010001000500050005000103C
:10018300001000D0070000000000000F0001000570
:1001930000307507001000010081FF00000000FF20
:1001A300FFFF02020288830100006B830274830154
:1001B3000000681C027E83010000B8020274830100
:1001C3000000691C028283010000CE02FFFF0100D0
:1001D300FF2002888301000068830274830100000A
:1001E300971C028A830000000000027A8303000048
:1001F300FA021700090C090C090C090C090C090C6B
:10020300090C090C090C090C090C090C090C010E49
:100213001F0EFB0DFEFF01E803057710020AFFFF27
:10022300FF00120135CDC603120135E0C6031201EA
:100233003501C7031201356CC703120135ADC7037E
:10024300120135CEC703120135EFC7031201353052
:10025300C803120135C8C80312013510C9031201BE
:100263003599B703120135ACB703120135DDB70376
:1002730012013517B80312013570B803120135B7EF
:10028300B803120135FFB8031201352EB903120169
:10029300355DB90312013594B903120135DBB90396
:1002A300120135F4B90312013549BA031201357746
:1002B300BA03120135B1BA03120135D6AF021201E6
:1002C30035D9B00212013506B10212013557B10218
:1002D3001201357AB1021201358CB1021201358F48
:1002E300B102120135CDB10212013541B202120140
:1002F30035ADB20212013575B30212013591B30265
:10030300120135C8B30212013502B4021201359944
:10031300B402120135EBB4021201351CB50212010D
:10032300351FB50212013550B5021201355DB50214
:1003330012013575B502120135DFB502120135E23E
:10034300B502120135EFB502120135F2B502120101
:100353003549B6021201355AB60212013593B60277
:1003630012013596B602120135CAB602120135CD15
:10037300B60212013521B7021201356AB702120122
:10038300357AB702120135ADB702120135BAB70299
:10039300120135BDB70212013525B8021201352706
:1003A300B902120135CBB90212013534BA02120176
:1003B3003572BA021201358DCE0212013585CF0294
:1003C300120135B9CF021201354FD0021201359A0D
:1003D300D002120135FED00212013588D10212017A
:1003E3003541D20212013563D502120135E0D6023E
:1003F30012013503D702120135269C03120135CBB6
:100403009D03120135EB9D031201350C9F0312016D
:10041300355F9F031201356EA40312013596A403C1
:10042300120135C3A403120135FBA403120135598C
:10043300A503120135A5A5031201350CA60312016C
:10044300354CA60312013589A603120135B7A6035D
:1004530012013561A7031201356BA7031201357829
:10046300A703120135ABA703120135B7A703120186
:1004730035CFA703120135D9A70312013584DA0357
:1004830012013592DA03120135AADA03120135C2D9
:10049300DA03120135D9DA03120135B3D701120198
:1004A300355DD801120135D9D801120135F7D901CB
:1004B30012013533DA01120135CEDA01120135B2F8
:1004C300DB0112013575DC01120135EDDC0112018E
:1004D300357BDE01120135ECDE01120135A6DF01A9
:1004E30012013598E001120135D8E0011201358C73
:1004F300E101120135BEE101120135B4E30112013C
:1005030035F6E30112013514E40112013599E401D2
:100513001201355DE5011201357CE7011201355405
:10052300AC031201356AAC0312013588AC03120126
:100533003599AD03120135A3AD03120135CEAE03D8
:10054300120135C5AF0312013532B0031201357004
:100553008E03120135148F031201354B8F031201E1
:1005630035958F031201355491031201358E8301A2
:100573001201353F84011201355B840112013524D8
:1005830085011201352E85011201354885011201BD
:10059300355385011201352986011201350687017C
:1005A300120135638701120135F38701120135AA60
:1005B3008801120135B88B01120135A78D01120193
:1005C30035598E01120135228F01120135679201CF
:1005D3001201351193011201353A9401120135F6D6
:1005E3009501120135969601120135E49601120127
:1005F30035239701120135F697011201352A980127
:10060300120135B798011201357EC5011201350A71
:10061300C6011201356EC7011201357AC7011201F5
:1006230035B5C70112013524C8011201352DC901A1
:1006330012013536CA01120135FDCA011201355ABC
:10064300CC0112013578CC0112013595CC01120190
:100653003560CD0112013588CD0112013552D0012B
:1006630012013557D00112013570D201120135BE86
:10067300D2011201352ED3011201356CD3011201BF
:100683003548D40112013508D50112013554D5017D
:1006930012013557D5011201359BD501120135E3FE
:1006A300D50112013522D60112013544D6011201BA
:1006B3003578D601120135DBD601120135008003EE
:1006C3001201350980031201351780031201356ABF
:1006D3008003120135898003120135CE8003120194
:1006E30035128203120135AD8203120135F1820303
:1006F3001201351B83031201358A8303120135D09E
:100703008303120135478403120135F88403120170
:1007130035942800120135A428001201354529001B
:10072300120135A129001201355E2A001201357A22
:100733002B00120135AC2B00120135DB2B0012010B
:1007430035882D00120135FF2F001201356F32005D
:100753001201356133001201355A3400120135613B
:100763003600120135553900120135843A00120161
:1007730035883C00120135983D00120135273F00B2
:10078300120135184000120135664000120135D5BB
:100793004000120135F940001201354A41001201AF
:1007A30035EB4500120135EC46001201354D47008B
:1007B3001201357847001201353E480012013567B2
:1007C300A80312013571A803120135B6A80312015B
:1007D30035CAA8031201355AA90312013582A903A8
:1007E300120135BDA903120135E6A9031201351A19
:1007F300AA031201352FAA031201359AAA03120183
:1008030035BBAA03120135CFAA03120135E4AA03AB
:100813001201351EAB0312013583AB03120135C63A
:10082300AB03120135F0AB031201352CAC031201FB
:10083300358AD603120135E6A402120135C9A50291
:1008430012013544A6021201357FA602120135D0EA
:10085300A70212013559A80212013571AA02120129
:100863003503AD02120135B5AD02120135D4AE0226
:100873001201352DAF0212013522F902120135653D
:10088300F902120135E9F902120135BCFA0212012B
:100893003593FD02120135BEC1031201356BC2034C
:1008A30012013578C303120135B7C30312013511A1
:1008B300C40312013545FE02120135A8FE021201DE
:1008C3003545FF0212013573FF0212013594FF0211
:1008D300120135CFFF02120135EFFF021201350A73
:1008E30085031201359685031201355586031201DE
:1008F300356D870312013587890312013516F60119
:100903001201353BF6011201350FF7011201357C57
:10091300F701120135D2F7011201356EF801120108
:1009230035A2F9011201357DFA01120135DCFA0114
:10093300120135ADFB0112013539FC011201353CC1
:10094300FC0112013586FC01120135F8FC0112018C
:1009530035A3FD01120135C3FD011201350BFE0163
:1009630012013527FE01120135A1FE01120135AF37
:10097300FE011201353EFF01120135A7FF011201ED
:10098300350B9303120135909303120135D2930370
:10099300120135B69403120135239503120135670D
:1009A3009503120135AB9503120135D89503120156
:1009B30035009603120135389603120135769603F6
:1009C3001201359D96031201351797031201356104
:1009D3009703120135F16000120135BE6200120166
:1009E30035AC64001201350065001201352B65003A
:1009F300120135D965001201350966001201353837
:100A030066001201354B66001201358C6600120137
:100A130035B866001201350667001201353D6700DF
:100A2300120135896700120135E867001201357B31
:100A33006800120135656900120135546A0012011C
:100A430035FF6B001201351E7100120135777100FD
:100A53001201356073001201352F7500120135B193
:100A63007500120135FF760012013510770012016F
:100A7300355CC40312013547C5031201358AC5032A
:100A8300120135D9C5031201352AC6031201357B7C
:100A9300C603120135AA48001201352B4900120181
:100AA30035584900120135A14900120135A24A0007
:100AB300120135F14A001201356D4C00120135EF78
:100AC3004C001201354C4D001201359F4D001201AF
:100AD300358E4E00120135235000120135ED5000C2
:100AE300120135FD50001201352751001201352A3C
:100AF30051001201350D5200120135F85200120156
:100B030035A553001201350254001201355B540020
:100B1300120135BF54001201356755001201350328
:100B23005600120135905600120135055700120187
:100B330035615700120135C05700120135E75700E0
:100B4300120135AC5800120135985A00120135E1F3
:100B53005A00120135115B00120135845B0012014A
:100B6300350A5D00120135BA5D00120135DF5D0003
:100B73001201351E5E00120135335E001201357617
:100B83005E00120135E65E00120135305F0012018E
:100B9300353A6000120135BB6000120135F0C40222
:100BA3001201353BC50212013547C5021201351B3F
:100BB300C60212013532C6021201356FC602120196
:100BC30035A0C602120135D8C6021201352EC7025E
:100BD30012013544C70212013580C7021201359351
:100BE300C702120135BAC702120135EEC70212015C
:100BF3003514C9021201355ECA021201355ACB02FD
:100C030012013570CC02120135E67F00120135F571
:100C1300F302120135A3F702120135D7F8021201CC
:100C230035888D0212013541900212013547900239
:100C3300120135F89202120135529502120135BEA6
:100C43008903120135558A03120135138B031201EF
:100C5300353D8B03120135738D03120135AD9901B7
:100C6300120135E899011201353CA401120135A89E
:100C7300A501120135A5A6011201352AAA01120107
:100C8300351FAB011201356BAB0112013585AB0189
:100C9300120135C6AB01120135CFAB01120135810B
:100CA300AC0112013551AD0112013598AD011201AC
:100CB30035FEAD0112013570AE011201353CB003B2
:100CC300120135D2B003120135E8B00312013541E8
:100CD300B10312013585B103120135BFB10312010E
:100CE3003557B203120135C6B203120135CFB20331
:100CF300120135DBB203120135F5B2031201351FC0
:100D0300B30312013534B30312013596B303120151
:100D130035BDB303120135F4E70212013501E802D0
:100D23001201351BE8021201354EE8021201358C1F
:100D3300E802120135F1E80212013506E902120157
:100D4300351DE9021201352BE9021201353AE90298
:100D53001201354FE90212013564E9021201356FC0
:100D6300E9021201357BE90212013588E902120119
:100D73003597E902120135A2E902120135C7E902EA
:100D83001201356BEA0212013580EA021201359530
:100D9300EA02120135AFEA02120135CCEA0212016E
:100DA30035E9EA02120135F4EA02120135A0EB0239
:100DB30012013581EC02120135A6EC02120135B1A4
:100DC300EC02120135C6EC02120135DAEC02120113
:100DD300353BED0212013541ED0212013547ED02BB
:100DE3001201354DED0212013565ED021201359800
:100DF300ED0212013598BA02120135BABA02120194
:100E03003582BB021201353CBE0212013552BF02CC
:100E130012013573C0021201354DC102120135FCB6
:100E2300C1021201350580021201359C80021201B4
:100E3300353481021201352482021201355B8202AC
:100E43001201356E8202120135DC820212013577FE
:100E530084021201359E840212013540850212017B
:100E630035758502120135868502120135FF85022B
:100E7300120135208602120135388602120135909F
:100E83008702120135998902120135E98B02120199
:100E930035EC8C021201353B8D0212013589E701D5
:100EA30012013586E80112013571E9011201357B22
:100EB300E9011201359DE901120135A9E901120188
:100EC30035FBEA011201352AEB011201355AEC0117
:100ED3001201359CEC01120135C8ED011201359E5A
:100EE300EE01120135F0EE011201354FEF0112014F
:100EF3003586EF01120135C1EF011201355CF301B3
:100F030012013575F301120135F7F30112013505AD
:100F1300F4011201355AF40112013568F40112018A
:100F230035D5F40112013547F5011201358DF5016F
:100F3300120135E4CE0312013509CF031201357ACC
:100F4300CF031201353377001201353C77001201CC
:100F530035457700120135767800120135957A0010
:100F6300120135CB7A00120135057B001201353BA6
:100F73007B00120135757B00120135A97B0012013C
:100F830035D57B001201351E7C00120135587C00DB
:100F9300120135A07C00120135F67C001201352BBD
:100FA3007D00120135867D00120135C07D001201DE
:100FB30035117E00120135477E00120135817E0016
:100FC300120135A47E0012013569DB031201359548
:100FD300DB03120135F0DB03120135FADB031201E7
:100FE300350ADC031201351AEE0212013559EE02FD
:100FF300120135E2EE02120135F7EE02120135421B
:10100300EF0212013576EF02120135B5EF0212013C
:1010130035C4EF0212013579F002120135D2F00224
:1010230012013521F1021201357AF10212013587DD
:10103300F20212013580F302120135BDF3021201EF
:10104300356D9902120135AD9902120135E19A020B
:10105300120135A99B02120135319E021201352678
:101063009F02120135629F02120135A1A1021201F2
:1010730035F3A10212013586A202120135CFA30274
:101083001201356AA402120135BBDC03120135BC1F
:10109300AF011201353CB201120135B0B3011201A7
:1010A300350DB401120135B6B401120135B3B501E2
:1010B3001201353BB601120135C7B601120135ECF9
:1010C300B6011201353CB701120135DDB901120138
:1010D300354EBA011201353ABB0112013574BB0119
:1010E300120135B4BB0112013554BD01120135851E
:1010F300BD01120135DABD0112013527BE0112010E
:101103003598BE01120135BBBE01120135D5BE01B2
:10111300120135EBBF01120135FBBF011201358C02
:10112300C101120135ACC101120135E2C101120145
:101133003566C301120135DFC3011201351EC40137
:1011430012013550C50112013517CD031201357B4C
:10115300CD031201352ACE0312013549CE03120104
:10116300359DCE03120135327F00120135437F00D6
:10117300120135D2DD0312013511DE031201359957
:10118300DE0312013598D903120135A8D9031201E0
:1011930035C3D90312013577DA031201359ED7031C
:1011A30012013522D80312013588D8031201359A6A
:1011B300D003120135C3D00312013529D103120123
:1011C3003548D1031201359CD103120135F5D10302
:1011D30012013530D20312013533D20312013574B3
:1011E300BE0312013589BE03120135C8BF031201C4
:1011F3003532C003120135A6C003120135C0C00346
:10120300120135D7C003120135EAC00312013502BA
:10121300C10312013517C10312013538C10312018D
:101223003589C1031201356CA00312013583A00374
:10123300120135FCA003120135D1A103120135A31C
:10124300A30312013508A4031201355BA4031201A1
:1012530035F87F001201353DCB03120135B3CC03C2
:1012630012013514CD03120135EBB3031201358896
:10127300B4031201351AB503120135E0B5031201A7
:101283003524B6031201354CB6031201355AB603A1
:10129300120135C4B60312013563B7031201357960
:1012A300B70312013583B70312013596B703120151
:1012B3003565D503120135D0D503120135DBD503CE
:1012C300120135EBD503120135F6D50312013512A0
:1012D300D603120135DBD30312013504D403120103
:1012E300352DD403120135C6D403120135DED403E0
:1012F30012013520D50312013526D80212013530EB
:10130300D80212013570D802120135B9D802120180
:1013130035F3D80212013549D90212013568D902D1
:10132300120135EDDB02120135F6DB0212013547FE
:10133300DC0212013570DC0212013585DC02120178
:1013430035F5DC0212013583DD02120135C7DD02FA
:10135300120135EFDD021201356EDE02120135B1E5
:10136300DE02120135EEDE0212013500DF02120148
:10137300351FDF0212013528DF02120135F2DF02C9
:101383001201353DD2031201358ED20312013517F6
:10139300D3031201357DD30312013519BB031201A7
:1013A3003543BB031201353DBC0312013562BC0357
:1013B30012013503BD0312013589BD03120135A1A5
:1013C300D8031201351BDD031201353BC90312019A
:1013D3003571C903120135AAC90312013503CB03C1
:1013E30012013514DC031201352ADC0312013534F2
:1013F300DC031201358ADC031201351EE0021201FF
:1014030035DBE00212013516E1021201353EE1023D
:10141300120135A0E102120135ECE1021201355748
:10142300E202120135D3E202120135CFE3021201C7
:101433003556E502120135D9E5021201353DE602C2
:1014430012013554E6021201354AE70212013596BC
:10145300E702120135A19703120135B69703120172
:1014630035669803120135A69803120135BF980318
:10147300120135F298031201353F990312013573B6
:101483009903120135B59903120135B39B03120178
:1014930035199C03120135CAFF011201351BDE0306
:1014A30012013552DE031201357BDE03E066701054
:1014B30008A3E066700A08A3E066700408A3E06668
:1014C30022C3E7960809E7960809E7960809E7960D
:1014D30022C3E09608A3E09608A3E09608A3E0964B
:1014E30022C008C3E096F50808A3E096420808A3C3
:1014F300E096420808A3E09645087001D3D008227D
:10150300080808EAC0E0EBC0E086F0E7A4FA18098F
:1015130086F0E7A42AFA180986F0E7A42AFA18093C
:1015230086F0E7A42AFA1986F0E7A4FBE5F02AFA85
:10153300190886F0E7A42BFBE5F03AFA190886F0C0
:10154300E7A42BFBE5F03AFA18180986F0E7A4C5DF
:10155300F02BFBE43AFA1908E7C5F0C6A426F6E532
:10156300F03BFBE43AFA1886F0E7A4F6E5F0082628
:10157300F6E43B08F6E43A08F6D0E0FBD0E0FA22C2
:10158300E4CFC0E0E4CEC0E0E4CDC0E0E4CCC0E012
:1015930075F020E626F608E633F608E633F608E6A5
:1015A30033F6181818EC33FCED33FDEE33FEEF334E
:1015B300FFC3EC9709ED9709EE9709EF97191919EE
:1015C300400FFFEC97FC09ED97FD09EE97FE191903
:1015D30006D5F0BFECF709EDF709EEF709EFF719B8
:1015E3001919D0E0FCD0E0FDD0E0FED0E0FF22608E
:1015F30016080808C6C313C618C613C618C613C6EA
:1016030018C613C6D5E0EA22700908080822601636
:10161300181818C6C333C608C633C608C633C60867
:10162300C633C6D5E0EA22E627F60809E637F60808
:1016330009E637F60809E637F622E026F608A3E0BE
:1016430036F608A3E036F608A3E036F622E026F0E5
:1016530008A3E036F008A3E036F008A3E036F02252
:10166300C3E697F60809E697F60809E697F6080928
:10167300E697F622C3E096F008A3E096F008A3E00D
:1016830096F008A3E096F022E657F60809E657F627
:101693000809E657F60809E657F622E056F608A3C6
:1016A300E056F608A3E056F608A3E056F622E05605
:1016B300F008A3E056F008A3E056F008A3E056F0C4
:1016C30022E066F608A3E066F608A3E066F608A340
:1016D300E066F622E0F608A3E0F608A3E0F608A326
:1016E300E0F622E6F008A3E6F008A3E6F008A3E696
:1016F300F022E0FAA3E0FBA3E0FCA3E0FD22EAF082
:10170300A3EBF0A3ECF0A3EDF022E0F8A3E0F9A340
:10171300E0FAA3E0FB22E8F0A3E9F0A3EAF0A3EBED
:10172300F022CAC0E0E6F0A308DAFAD0E0FA22CA4F
:10173300C0E0E0A3C582CCC582C583CDC583F0A339
:10174300C582CCC582C583CDC583DAE6D0E0CA2283
:10175300C3E498F8E499F91217948026C3E49AFA3B
:10176300E49BFBE920E7E9121794E498F8E499F97C
:1017730022C3E498F8E499F9121794E498F8E499E9
:10178300F9C3E49AFAE49BFB22EB20E7CFE920E7D5
:10179300E0B90010BB0008E88AF084F8AAF022E45C
:1017A300FBC8FA22EB70227B10C833C8C933C93394
:1017B3005007C39AC3DBF280069A50012ADBEAC8BA
:1017C30033F4C8C933F4C9FA2275F008E4C833C83E
:1017D300C933C933C99AC99B5004C92AC93BD5F037
:1017E300ECFBC833F4C8E4C9FA22600D08C6A2E7CB
:1017F30013C618C613C6D5E0F322600C08C6C3137C
:10180300C618C613C6D5E0F422700422600D18C6AC
:10181300C333C608C633C6D5E0F41822251810AF63
:1018230008F518400C15198008F51840021519D24F
:10183300AF2200C0D0251810AF08F518500C0519B9
:101843008008F51850020519D2AFD0D0222518F51B
:101853008210AF08F518400C15198008F5184002DE
:101863001519D2AF851983222518F582E43519F5A8
:1018730083222518F8E43519F9222518FAE43519D5
:10188300FB222518FCE43519FD22E4732518C582D3
:10189300C0E0E51934FFC583C0E0E518C395822491
:1018A300F810AF0885831985821880088583198508
:1018B3008218D2AFCEF0A3E520F0A37808E608F0B3
:1018C300A3DEFAEFF0A3E58124FAF8E608F0A3E635
:1018D30008F0A3E608F0A30808E608F0A3E608F07A
:1018E300A315811581D0E0FED0E0F815811581158F
:1018F30081E8C0E0EEC0E0222518C582C0E0E5190A
:1019030034FFC583C0E0E518C3958224F910AF08FE
:101913008583198582188008858319858218D2AF3B
:10192300CEF0A3E520F0A37808E608F0A3DEFAEFF3
:10193300F0A3E58124FBF8E608F0A3E608F0A3088A
:1019430008E608F0A3E608F0A315811581D0E0FEB0
:10195300D0E0F815811581E8C0E0EEC0E0228519DA
:1019630083851882E0A3FEE0A3F5207808E0A3F6C0
:1019730008DFFAE0A3FFE0A3C0E0E0A3C0E0E0A338
:10198300C0E0E0A3C0E0E0A3C0E010AF0885821888
:101993008583198008858218858319D2AFD083D0B7
:1019A30082020132851983851882E0A3FEE0A3F544
:1019B300207808E0A3F608DFFAE0A3FFE0A3C0E085
:1019C300E0A3C0E0E0A3C0E0E0A3C0E010AF08855F
:1019D30082188583198008858218858319D2AFD030
:1019E30083D08222C0D02518C582C0E0E51934FF18
:1019F300C583C0E0E518C3958224F310AF0885833F
:101A0300198582188008858319858218D2AFC8F09A
:101A1300A3E9F0A3EAF0A3EBF0A37908E709F0A3A5
:101A2300D8FAECF0A3EDF0A3EEF0A3EFF0A3D0E02F
:101A3300F0A3D0E0F0A3D0E0F0A3E520F0A3E5F01D
:101A4300F0A322851983851882E0C0E0A3E0F9A3FF
:101A5300E0FAA3E0FBA37808E0F608A3DFFAE0FCD2
:101A6300A3E0FDA3E0FEA3E0FFA3E0C0E0A3E0C08A
:101A7300E0A3E0F5D0A3E0F520A3E0A3F5F010AFD9
:101A8300088583198582188008858319858218D271
:101A9300AFD082D083D0E0F8D0E0327404800674F3
:101AA3000280027401C0E0F404121850D0E012174F
:101AB30025227404800474028000CCC0E0EDC0E0F1
:101AC300E518C39CCCAD1950011D10AF068C188DC1
:101AD3001980068C188D19D2AF121732D0E0FDD0C1
:101AE300E0FC22D083D082E9C0E0E493A3C386F074
:101AF300C5F095F0F908E493A386F0C5F095F0706E
:101B03000BE493A3C3994005E9048002A3E475F0B1
:101B130002A42582F582E5F03583F583D0E0F9E46C
:101B230093A3C0E0E493C0E022D083D082ECC0E072
:101B3300EDC0E0E493A3FCE493A3FDED4C600D1230
:101B43001B78EC24FFFCED34FFFD80EFE493A3FC52
:101B5300E493A3FDED4C600D121BB7EC24FFFCEDE9
:101B630034FFFD80EFD0E0FDD0E0FCE493A3C0E0C0
:101B7300E493C0E022C0E0C3E49396087401939613
:101B830018400FE493667008087401936618700098
:101B93007019A3A3C3E49396087401939618A3A39F
:101BA300400DD0E0D0E0D0E0021B68A3A3A3A3A321
:101BB300A3D0E022C0E0C0F088F0E4936670080888
:101BC30074019366187000A8F0A3A3700BD0F0D033
:0F1BD300E0D0E0D0E0021B68A3A3D0F0D0E02266
:101BE40074F61218FBEAFEEBFF8C088D09EE243420
:101BF400F8E43FF9E8FCE9FDEE2435121ED9FAEECB
:101C04002437121ED9F88508F0A4C885F00A85097E
:101C1400F0A4250AF9EA28F8E439F97A257B0012B8
:101C24001794EA8C828D83F0FA131313541FF8EE81
:101C340028F8E43FF9E8245DF582E439F583E0C04F
:101C4400E074075AF8D0E0B800028004C313D8FC4B
:101C5400A2E0EE50082434F582E43F8018243612C2
:101C64001ED9F5F0EA84A8F0EE28F8E43FF9E82458
:101C740038F582E439F583E0F97F030219A774F794
:101C84001218FBEAFEEBFFEE2434121ED9C0E0EE7C
:101C94002435F582E43FF583D0E0F08E828F83A370
:101CA400A3A3A3A3A3A3C082C0838E828F83A3A371
:101CB400A3A3A3121D4AD083D082E0C398F508A33E
:101CC400E099F509EE247F121ED96401705DEE24BB
:101CD40080121D448E828F83A3A3A3A3A3A3A31264
:101CE400207C8E828F83A3A3A3A3A3E0FAA3E0FBAB
:101CF400C3EA9CEB9D5010C3EC98ED99402DC3EAC8
:101D040098EB995026800EC3EA98EB994007C3ECF0
:101D140098ED9940167CBD7D06EEFAEFFB120B3D63
:101D2400EE247FF582E43FF583E4F0AC08AD09EEE0
:101D3400FAEFFB121BE4E9F912273E7F020219A70E
:101D4400F582E43FF583E0F8A3E0F92274EF12187A
:101D5400FB900369E064086005E06407702A906101
:101D6400C8E06024900397E0F4601DE0F875F00C7F
:101D7400A4C8AAF02AF9749928FE740339FF8E8244
:101D84008F83A3A3A3E07003021E5E906060E0C093
:101D9400E0EE2468F582E43FF583D0E0F0750CF9B9
:101DA400750D06750800750900E5D914F50AE5D91D
:101DB4005403F50E60127403650E6043E50A600A6D
:101DC400EE2467121ED9700280759006F4E0640157
:101DD400601F121ED660047A0480027A00E50AC3EA
:101DE4009AFA95E0FB1209E78A088B09EA4509701B
:101DF40005120DD78064121ED670048A0C8B0DE573
:101E04000A6012850C82850D83F50BE5D9F0A315C4
:101E14000BE50B70F6121ED6604474FC250AF50A15
:101E2400780C121AA2AC0AA90EEEFAEFFB120C03FC
:101E34007402121835E97026AA08AB0912138979BD
:101E44003D8E828F83A3A3A3A3E0FA7B00120861D3
:101E5400EEFAEFFB120B61120C637900806F7403CE
:101E6400650E6051850A107511007810121AA2AC23
:101E74000CAD0DAA08AB09120BC77402121835EE8B
:101E84002468121ED964807004747F8001E0F50C0C
:101E9400780C121AA6E50EF50C780C121AA6A90AEB
:101EA400AC08AD09900397E0FA7B00120831740284
:101EB4001218358013900369E06408700BAC0CAD04
:101EC4000DEEFAEFFB120C33120DE379017F0A02D7
:101ED40019A7EE2482F582E43FF583E02274F2121E
:101EE40018FB74FC12181FEAFEEBFF8909A2AFE489
:101EF40033F508C2AF021F9DE0601B780C121AA2D2
:101F0400AC0BA90EEEFAEFFB120BFD74021218359E
:101F14007404250BF50B7401250BF5D9850ED9E551
:101F24000B6018F50A850C82850D83E0F5D9A3852D
:101F3400820C85830D150AE50A70EA75E195EE2495
:101F440063F8E43FF97A007B00A2AFE433F50BC2F7
:101F5400AF122078EC4D603288828983E0FAA3E0E6
:101F6400FB8A828B8312207C88828983ECF0A3ED28
:101F7400F08A828B83E4F0A3F0122078EC4D700A8F
:101F840088828983A3A3E4F0A3F0E50BA2E092AFD7
:101F94001213899006C4E004F0EE2463121D44E891
:101FA400496064EE2463121ED92402F8A3E03400CD
:101FB400F988828983E5822402F50CE43583F50DE2
:101FC400E0F50BA3E0F50EEE2462121ED964017055
:101FD400369061D0E0F8121ED660047C0480027C46
:101FE400007480C398FA95E0FBE50B2CF8E4340008
:101FF400F9E82402F8500109C3EA98EB99A2D265E2
:10200400D0334003021EFC9006C4E0604D9006C528
:10201400E0F89006C4E0C398500C74026509703A65
:102024009006C6E060348E828F83A3A3A3A3E085C9
:10203400188285198312206E740212186BE812201C
:102044006E9006C3E028F07402121885AA18AB1922
:10205400790112088B9006C4E4F0E508A2E092AF7F
:1020640074041218357F070219A7F0A3E4F0900650
:10207400C4E0F82288828983E0FCA3E0FD2200000A
:10208400851B87851CC622C0E074EB1219E7A2AF3A
:10209400E433F508C2AF759B00906182E0A2E05082
:1020A40030E591A2E0502A7591FE7401651B702100
:1020B40012221E120CFF12220C121AB512267A7466
:1020C40004121835E9640170057901120D3B121DE3
:1020D40050906182E0A2E5505DE591A2E55057750C
:1020E40091DF900369E064076005E06408702F12D3
:1020F400221E7401651B703E120CFF12220C121A70
:10210400B512267A7404121835E964017005790150
:10211400120D3B7901EEFAEFFB121EE18018E06428
:102124000D701390038BE004F064287002E4F07ADD
:1021340000E0F9120DE9906182E0A2E64003022179
:10214400E1E591A2E640030221E17591BF900369A4
:10215400E064057008120CE7120CF38003120CED16
:10216400751B00120D59E990036AF07900120D3BBA
:10217400120AA77A017B00900368E0F912135990C0
:102184007803E0644270569006F8E014F0704EC292
:10219400AF12219800781ED0E0F618D0E0F6E59F43
:1021A4005407F87005750DFF8003750D7FC4C0E0FA
:1021B400781DE6F50A08E6550DF50B740B780A123E
:1021C40017FDD0E0250AF8906270E0A2E740F8E835
:1021D400C333906272F0906270E0D2E0F09061815B
:1021E400E0A2E35009E5E9A2E3500375E9F7A3E0AF
:1021F400A2E75009E591A2E7500375917FE508A293
:10220400E092AF7F08021A468E828F83E0F8A3E043
:10221400C82416F582E438F58322900397E0F87514
:10222400F00CA4C8AAF02AF9749928FE740339FFA3
:1022340022C0E0C0D0C082C083906183E0A2E0509D
:1022440009E5BFA2E0500375BFFEE0A2E15009E535
:10225400BFA2E1500375BFFDE0A2E25009E5BFA2B1
:10226400E2500375BFFBE0A2E35009E5BFA2E350CF
:102274000375BFF7E0A2E45009E5BFA2E45003757B
:10228400BFEFE0A2E55009E5BFA2E5500375BFDF4B
:10229400E0A2E65009E5BFA2E6500375BFBFD083B4
:1022A400D082D0D0D0E032C0E074F21219E7E5A7B2
:1022B400A2E6500FE5A1A2E6500953A7BF75A1BF3E
:1022C4001222FFE5A7A2E5500CE5A1A2E5500653B2
:1022D400A7DF75A1DFE5A7A2E15009E5A1A2E150BE
:1022E4000375A1FDE5A7A2E2500CE5A1A2E2500608
:1022F40053A7FB75A1FB7F01021A4674F71218FB62
:10230400751B01900369E064067015120C878A82BC
:102314008B83A3A3A3A3A3A3E0FAA3E0FB120CD58E
:10232400A2AFE433FED2AF90036FE0640170187A79
:10233400207B00900368E0F91214797A207B0090E6
:102344000368E0F912135F906182E0D2E6F0900630
:10235400F5E0602185C61C801690036EE064017070
:1023640008E5C654F84405F5C653BEFC122084742F
:1023740001651B60E4EEA2E092AF7F020219A7742C
:10238400E91218FB74FA12181FEAFEEBFF8C0A8D8F
:102394000B120D0BEAF8EBF9ECFAEDFB8E828F834E
:1023A400121719900369E024F7C3940550067514B5
:1023B400010224EA120C878A088B09EA4509700392
:1023C4000224E7EEFCEFFDAA18AB19120D058508EF
:1023D40082850983A3A3780C1216D790830C780CFA
:1023E40012169E85188285198378101216D7908349
:1023F4000C781012169E780C79101214C4501F78A1
:102404000C79101216639082F0780C1214E4404791
:10241400850C14850D15850E16850F178045908241
:10242400F085101485111585121685131778147903
:102434000C12166378141214E4501C7514007515EC
:102444000075160075170178147910121663781444
:10245400790C12162A800C75140175150075160076
:102464007517007409781412160B90835C780C129B
:1024740016D77814790C121583850882850983A3ED
:10248400A3A3A3A3A3122508121794880C890DE40F
:10249400F50EF50F7814790C12162A740412186BC1
:1024A400122508121794E8FA8A0CE4F50D781479C9
:1024B4000C1214C450077814790C12166390036933
:1024C400E06408600AE064066005E064057020903A
:1024D40082F878141214E450169082FC78141216C0
:1024E4003D800C7514007515007516007517008570
:1024F4000A82850B8378141216E674061218357F47
:10250400100219A7E0F8A3E0F97AD07B032274F74C
:102514001218FB120D1D9006F3E064017010906216
:1025240045E4F0A3F053F4F343FE0C5390F3120C80
:10253400C3E5C654B84441F5C6E59E5447644170AA
:10254400F8906185740FF09006F1E0F47002A3E056
:10255400604E9006F2E0600814601B14602E804008
:102564007508017509009006F1E0780812180CE569
:1025740008F45280802A7508017509009006F1E07C
:10258400780812180CE508F4529080147508017547
:1025940009009006F1E0780812180CE508F452A03E
:1025A40079007F020219A774F71218FBE9FEEAFF0B
:1025B400120D1D74016E700C7A807B00900368E02C
:1025C400F912135990288CE493F46008E493F912F7
:1025D4000A9B800953C6B8E59E544770FA120CC989
:1025E4009006F3E064017003120AB99006F1E0F476
:1025F4007002A3E0604B9006F2E0600814601A14C5
:10260400602C803D7508017509009006F1E078089A
:1026140012180CE50842808028750801750900909D
:1026240006F1E0780812180CE5084290801375084A
:10263400017509009006F1E0780812180CE50842CB
:10264400A0120C878A088B09A808A909E849601414
:10265400E5E170FCE82414F582E439F583E0F460E4
:1026640003E0F5E174016F700A7A01900368E0F900
:102674001213EF0225A674F11218FB8A088B098C39
:102684000A8D0B90830C780812169E740F12186B27
:10269400780C1216D790830C780C12169E78087951
:1026A4000C1214C49082F050107808790C1216633E
:1026B40078081214E44014800E780C79081216631A
:1026C400780C1214E450047901800279007F080226
:1026D40019A774ED1218FB8A088B098C0A8D0B90CC
:1026E400830C780812169E741312186B780C121649
:1026F400D790830C780C12169E780C79081214C4A7
:1027040040117808790C121663AA08AB09AC0AAD1B
:102714000B80227510007511007512007513017875
:1027240010790C1216637810790812162AAA10ABC5
:1027340011AC12AD137F0C0219A7C082C083E990BB
:102744006000F0D083D08222C0E074F21219E7A2B4
:10275400AFE433FED2AFC2C0E5D1A2E4500675D1D6
:102764000F1212AB751A00EEA2E092AF7F01021AAB
:1027740046C0E074F21219E7A2AFE433FED2AFE52B
:1027840089A2E150031211CD758900C2C5751A00E2
:10279400EEA2E092AF7F01021A46C0E074F2121971
:1027A400E7A2AFE433FED2AFE58BA2E050031211EF
:1027B400CD758B00C2E880D5C0E0C0D0E8C0E0E9A8
:1027C400C0E0A9A8D2AFC2C7751A00E9A2E7E433F2
:1027D400F8E9A2E792AFD0E0F9D0E0F8D0D0D0E0A9
:1027E40032C0E074F21219E7A2AFE433FED2AF753F
:1027F4008900C2C5900E247401F0751A00FA900D78
:10280400F2E0F91213EF900FA8E0F8A3E068700269
:10281400D285EEA2E092AF7F01021A46C0E0C0D09A
:10282400E8C0E0E9C0E0EAC0E0C082C083A2AFE44F
:1028340033FAD2AF900FA8E0F8A3E0687008539A77
:10284400FBA374018022C2E9900FA8E0F874012868
:10285400F0742828F582E4340FF583E0F5C1900F75
:10286400A8E0C394804002E4F0EAA2E092AFD083EF
:10287400D082D0E0FAD0E0F9D0E0F8D0D0D0E03285
:06288400C2AF02000022B9
:10288C00FFFFFFFFFFFFFFFFC082C083E9901C9694
:10289C00F0D083D08202013274F612188FE99002C4
:1028AC00DCF090033BE0F50875090074027808121F
:1028BC00180CAA08AB091213D79002DD12325790EC
:1028CC0002DD123644606F90033BE075F003A4FA0E
:1028DC00ABF01213D79002FA1232579002FA12365A
:1028EC0044700B9002DD1236151213DD80489002F5
:1028FC00FA1245A97AFF7BFF1211497A0080198AD6
:10290C00087509007402780812180C12405174FFF3
:10291C00122A57E4F0A3F00A90033BE0F8EAC398BC
:10292C0040DD79051207299002DCE0F91206157AD0
:10293C00B37B071209870240F474F412188F8A08CB
:10294C008B09EB548060479002DCE0F91213418A4A
:10295C000A8B0BAE0AAF0BEE4F602A8E828F83E090
:10296C0064B0701A12073BE960148E828F83A3A3A4
:10297C00A3A3E0F9EE2405FAE43FFB12070BEEFAF1
:10298C00EFFB12132FAA08E5096480FB80047A0080
:10299C007B00022BA774F212188F74FB12181FEA1B
:1029AC00FEEBFFEE4F6045740312186BEEF0A3EFD5
:1029BC00F0851882851983ECF0A3EDF074021218DF
:1029CC006BE9F0AA18AB1912060FE9F508707574CB
:1029DC001312186BE0F50AA3E0F50BE50A450B6042
:1029EC00638E828F83122FE0EE4F70057508028084
:1029FC00537A067B001213D78A0C8B0DA80CA90DE9
:102A0C00E8497005750813803B88828983E4122A93
:102A1C0057EEF0A3EF122B73E50AF0A3E50BF09041
:102A2C0002E0122B6C9002E06017E0FCA3E0800344
:102A3C00EAFCEBFD8C828D83122B6C70F38C828DF7
:102A4C0083123C6CA9087405024829F0A312458B2B
:102A5C00A32274F212188F8908890C750D00740367
:102A6C00780C12180C850C0A850D0B9002DFF09077
:102A7C0002DD123A77122B6A602E1213DD79008078
:102A8C001D890C750D007402780C12180C9002DD67
:102A9C00123F108882F583A3A3E4F0A3F0099003FE
:102AAC003BE0F8E9C39840D990033BE0FA850AF083
:102ABC00A4CAA8F0850BF0A428FB1213D78A0C8BA0
:102ACC000DAE0CAF0DEE4F7003022B6090033BE08C
:102ADC00FC850AF0A4CCA8F0850BF0A428FD7900A5
:102AEC001213177C0080318D0C750D007403780C5B
:102AFC0012180C8A828B83122B6588828983E4F0EE
:102B0C00122B72A3A3F0A3F00DEDC3950840D8EEE1
:102B1C00250AFEEF350BFF0C90033BE0F8ECC39855
:102B2C0050288C0C750D007402780C12180C900245
:102B3C00DD122B65E82402500109FAE9FB8A828B2D
:102B4C0083EEF0A3EFF07D0080BFE5089002DFF08C
:102B5C0079008002791302482C123F14F922A3A3A6
:102B6C00123619EA4B22A312458BA3A3A32274F4A9
:102B7C0012188F7900EAA2E0501F7508C1750982FE
:102B8C007808121AA279107C047D007A987B1C12AA
:102B9C0007237402121835E9F980007F04021961C9
:102BAC00C082C0839002E0123644601C8882898304
:102BBC00A3A3E06A7003A3E06B8882898370E8A307
:102BCC00A3A3A312361580047A007B0002289D74FF
:102BDC00F212188F74FD12181FEAFEEBFF85188293
:102BEC00851983E4F0A3F0740212186B7401F012CF
:102BFC00364170141208D91213D79002E3123257CF
:102C0C001236417003022D6D123357EE2404F50A6F
:102C1C00E43FF50B850A82F583E024FE603C24FC3E
:102C2C00607424FE607E24FE7003022CBD24FE70B2
:102C3C0003022CCA24FE7003022CD724FE7003025C
:102C4C002CE424FE7003022CF124FC7003022D12E0
:102C5C0024FE7003022D2A022D661208D99002E57B
:102C6C00EAF0A3EB122D7912026DE96003022D66D6
:102C7C009002E5121AB98E828F83A3A3A3A3A31289
:102C8C0045A98508828509831236151206F374024C
:102C9C00121835022D66AC18AD19EEFAEFFB1207BF
:102CAC0041022D35AC18AD19EEFAEFFB1207478037
:102CBC0078AC18AD19EEFAEFFB12074D806BAC181F
:102CCC00AD19EEFAEFFB120753805EAC18AD19EE9E
:102CDC00FAEFFB1207598051AC18AD19EEFAEFFB65
:102CEC0012075F80447402121875880C890D780CD9
:102CFC00121AA27402121885EEFAEFFB1207657411
:102D0C00021218358023AC18AD19EEFAEFFB12073E
:102D1C006BE9F87016740212186BE4F0803CAC1876
:102D2C00AD19EEFAEFFB120771E9F8E8602C8E8210
:102D3C008F83A3E064146022850A82850B83E09064
:102D4C0002E5F08518828519831236159002E61279
:102D5C003257E8A3122D79120267EEFAEFFB120636
:102D6C00C9740212186BE0F97403024829F07CE56F
:102D7C007D028508828509831236192274E812189F
:102D8C008F74FA12181F740412186BECF0A3EDF088
:102D9C008A128B13EA2405F50EE43513F50FEA2499
:102DAC0002F510E43513F511851082F583123615F2
:102DBC001203B18A0A8B0B7508007C037D00790025
:102DCC007AE57B02121317E50E2402F516E4350F93
:102DDC00F5177402121875880C890D780C121AA24A
:102DEC00850E82850F83A3A3A3A3E0F50C750D00BC
:102DFC00780C121AA2E50E2405F50CE4350FF50D2E
:102E0C00780C121AA285168285178312391C1206A9
:102E1C002D74061218358A0C8B0DE50C450D7003BC
:102E2C00022FA98020851882851983E088828983E6
:102E3C00F00508851882851983A3E0C0E0122FEAFB
:102E4C00D0E0F00508E50A24FBFAE50B34FFFBC3E0
:102E5C00E5089AE49B4003022FA97E007F008512AF
:102E6C0082851383A3A3A3A3E0F5097809121AA6FC
:102E7C00E4F514F5157814121AA27514E2751502FE
:102E8C007814121AA29002E3121AB9740912186B70
:102E9C00121AB9E50A24F9F9AC0CAD0D851082852E
:102EAC00118312361512079B7409121835E9600349
:102EBC00022F4A850E82850F83A3A3A3A3A3A3A3EA
:102ECC00E0F89002E2E0687075E0F5148E15781465
:102EDC00121AA21245A6850E82850F83A3A3A3A363
:102EEC00A3A3A3A31236151213117402121835E9F9
:102EFC00604C9002E6123644703BE4F514781412E0
:102F0C001AA27CFF7DFF790785108285118312360A
:102F1C0015120705740212183512364A7017850EF1
:102F2C0082850F83124743740412186B12400412EB
:102F3C00394D022FDD850C82850D83122FE0A818E8
:102F4C00A919881489157814121AA2740412186B12
:102F5C00121AB985168285178312324D12063974EE
:102F6C00041218358A0C8B0DEE4F7003022E2612AC
:102F7C002FEAEE122FF5123903EF122FF5F8A3E01A
:102F8C003400F9E50C450D6003022E3188828983EB
:102F9C0074FFF00508122FEA74FFF00508E50860CD
:102FAC001A1313543F12325D120279E96009900230
:102FBC00E612361512138979008016850E82850F5C
:102FCC0083124743740412186B124004123C6C7940
:102FDC000A0238D6A3A3A3A3E0FEA3E0FF22A8080D
:102FEC009002E6E02812390322F00508089002E668
:102FFC00E0282274E812188F74FA12181F74021247
:10300C00186B123257740412186BECF0A3EDF074B9
:10301C000212186BE024051238ECE0F50CA3E0F575
:10302C000D740212186BE02402F510A3E03400F5C5
:10303C0011851082F5831236151203B175080075CF
:10304C000900EA24FCFEEB34FFFF8008050CE50CBC
:10305C007002050DA808C3EE98EF940050030232DD
:10306C0009A818A919880E890F780E121AA28514AE
:10307C0082851583A3A3A3A31245AD121AA2E5144E
:10308C002405F50EE43515F50F780E121AA28514E9
:10309C008285158312324B12062D74061218358A4E
:1030AC000E8B0FEA450F7003023209EA2404F51661
:1030BC00E4350FF517851682F583E0F50CA3E0F5E2
:1030CC000D8518828519831245A98A828B83A3A347
:1030DC00A3E0F985108285118312361512061BE9BF
:1030EC00F5096003023209740212186B123913F5D8
:1030FC00097809121AA6E4F512F5137812121AA21D
:10310C007512E27513027812121AA29002E3121AC7
:10311C00B9740712186B121AB9EEF9AC0EAD0F8513
:10312C00108285118312361512079B7409121835FB
:10313C00E9F5096003023209E508703FE4F50EF584
:10314C000F780E121AA27CFF7DFF790985108285FB
:10315C0011831236151207057402121835123939FB
:10316C00700D740412186B123240791102323D90BA
:10317C0002E2E024029002E6F080149002E6E0FA0B
:10318C009002E2E0790024025001096A497072A8A9
:10319C00089002E2E0FAE82AFAE43400FBEE9AEF37
:1031AC009B405A851682851783E0C0E09002E71297
:1031BC002FEFD0E0F00508851682851783A3E0C0B9
:1031CC00E0089002E7122FEFD0E0F005089002E241
:1031DC001245AD121AA21245A6A8081238E0121216
:1031EC00FF74021218359002E2E02508F50874FF0E
:1031FC00650C700474FF650D6003023058E50860BF
:10320C001F9002E6E0F5F0E5088412325D12027FB1
:10321C00E960099002E712361512138979008011C2
:10322C00E509700375090A740412186B123240A96F
:10323C00090238D6123A7BE50CF0A3E50DF022A377
:10324C00A3124838AA0CAB0D22A3A3EAF0A3EBF00F
:10325C00229002E5F07CE57D0285108285118312B7
:10326C0036192274EC12188F74FC12181F123D7C44
:10327C00740212188512360F1206338A0C8B0DEA63
:10328C00450D7003023347123357A818A91988103B
:10329C0089117810121AA27CFF7DFF790B850882A8
:1032AC00850983123615120705740212183512346B
:1032BC004D700C850A82850B8312394A0233548E69
:1032CC00828F83A3A3A3A3E0F5127812121AA6E4AB
:1032DC00F512F5137812121AA27512E5751302780D
:1032EC0012121AA27810121AA2740912186B121A5E
:1032FC00B9740912186BE0F9AC0CAD0D8508828518
:10330C00098312361512079B7409121835E9FE70E1
:10331C00157CE57D0285088285098312361512021B
:10332C0085E97009802074166E70027E009002E6AA
:10333C00123615121389EE7004800B7E01850A82F9
:10334C00850B83123C69EEF9023C7EEE2402F508F3
:10335C00E43FF5092274EC12188F74FC12181FEA62
:10336C00FEEBFF8C0E8D0FEE2405F508E43FF509FE
:10337C007402121885850882850983123615120687
:10338C00338A0C8B0DEA450D700302343DEE24029A
:10339C00F50AE43FF50BA818A919881089117810C3
:1033AC00121AA27CFF7DFF790D12360F12070574DD
:1033BC000212183512344D700B8508828509831260
:1033CC00394A807A8E828F83A3A3A3A3E0F5127867
:1033DC0012121AA6850882850983A3A3121AB9753D
:1033EC0012E57513027812121AA27810121AA2742E
:1033FC000912186B121AB9740912186BE0F912360B
:10340C000B12079B7409121835E9FE700F7CE57DD1
:10341C000212360F12028BE97009802074166E703E
:10342C00027E009002E6123615121389EE700480AB
:10343C000B7E01850882850983123C69EEF9023CFA
:10344C007E123654F510A3E0F511EA45112274E80A
:10345C0012188F74FE12181F8A168B178C148D1568
:10346C00EA2405F50CE43517F50DEA2402F50EE413
:10347C003517F50F850E82F5831236151203B18AB6
:10348C00088B09750B007C037D0079007AE57B02C3
:10349C00121317750A00E50814F5100424FFF5083B
:1034AC00E50934FFF50980549002E5E0FA9002E258
:1034BC00E0F8EA28F8E43400F9E50898E5099950B1
:1034CC000D9002E5E0F8E510C3989002E2F0E0F50B
:1034DC00127513007812121AA21245A69002E6E099
:1034EC002AFAA3E03400FB1212FF74021218359072
:1034FC0002E2E0F89002E5E028F0050A850C8285EE
:10350C000D83A3A3123F2040030235F09002E5E0A7
:10351C00C39508E4950940030235F0AE0AEE2EFE81
:10352C00E433FF12362FAC18AD191245C1E439FB48
:10353C001206338A128B13AC12AD13EC4D701B7543
:10354C000B0112361F123C6D9002E6122B6C6003BD
:10355C00121389A90B74020238D885168285178339
:10356C00A3A3A3A3E0F50B780B121AA6E4F512F5AE
:10357C00137812121AA27512E27513027812121A2B
:10358C00A29002E3121AB9740712186B121AB9A995
:10359C0010850E82850F8312361512079B74091243
:1035AC001835E9F50B709B9002E612364460030265
:1035BC0034B4E4F512F5137812121AA27CFF7DFFD5
:1035CC00790F850E82850F8312361512070574024A
:1035DC0012183512364A60030234B412361F1239EF
:1035EC004E0235617CE57D02850E82850F83123695
:1035FC0015120291E960030235547900023561AC71
:10360C000CAD0D850A82850B8312361922E0FAA3C4
:10361C00E0FB2212362FE0FAA3E0F9EA851482854A
:10362C00158322850C82850D83E02EF8A3E03FF9EB
:10363C0088828983229002E3124747E84922123696
:10364C0054F8A3E0F9E849229002E6EAF0A3EBF083
:10365C009002E6E02274E812188F74FA12181F74A4
:10366C000412186B1232578C168D17740412186BC7
:10367C00E02405F50EA3E03400F50F740412186B6A
:10368C00E024021238EC1236151203B18A0A8B0BA5
:10369C007F007E00A818A919880889097808121AD1
:1036AC00A2850E82850F83A3A3A3A3E0F5088E0940
:1036BC007808121AA2E50E2405F508E4350FF50971
:1036CC007808121AA2850E82850F83A3A312391CC7
:1036DC0012062D74061218358A0C8B0D802912399E
:1036EC000DF00F12390DF00F9002E2123C58121A25
:1036FC00A21245A6EFF81238E01212FF740212184B
:10370C00359002E2E02FFFE50C450D700302379C6B
:10371C00851882851983123D8EA3A3A3E0F9851425
:10372C008285158312361512061BE9FEE50C24045E
:10373C00F510E4350DF511EE7050740412186B127F
:10374C003913F5087808121AA6E4F508F509780873
:10375C00121AA27508E27509027808121AA29002D0
:10376C00E3121AB9740712186B121AB9E50A24FA83
:10377C00F9AC0CAD0D851482851583123615120724
:10378C009B7409121835E9FE6039123929123C6C08
:10379C00EF70030238C39002E6E0F5F0EF8490027C
:1037AC00E5F07CE57D0285148285158312361512B1
:1037BC000297E960099002E7123615121389790015
:1037CC000238D68F08EF703BE4F512F5137812121D
:1037DC001AA27CFF7DFF7911851482851583123620
:1037EC00151207057402121835123939700912397D
:1037FC002912394D0238D69002E2E024049002E6F8
:10380C00F080359002E2E0F89002E6E0FAE8240459
:10381C00FCE43400FDEC6A4D60030237A2E50A2497
:10382C00FAFAE50B34FFFBE50828F8E43400F9EA72
:10383C0098EB9950030237A2851082851183E0C062
:10384C00E09002E7E02FF8A3E034008882F583D003
:10385C00E0F00F851082851183A3E0C0E01238FAE6
:10386C00D0E0F00F740212187588088909780812D4
:10387C001AA2740212186B121AB9850E82850F8364
:10388C0012324B12063974041218358A0C8B0DEA5D
:10389C00450D70030236EA740212186BE0C0E01298
:1038AC0038FAD0E0F00F740212186BA3E0C0E012EB
:1038BC0038FAD0E00236F2EE70027E0A850E82856E
:1038CC000F8312392F123C6CEEF974061218357FE7
:1038DC00100219619002E7E028FAA3E03400FB2201
:1038EC00F514A3E03400F515851482F58322123803
:1038FC00FE229002E7E02FFAA3E034008A82F583DF
:10390C00221238FE74FF22123A7BA3A3A3A3E02257
:10391C00124838850E82850F831236192285108243
:10392C00851183124747851682851783229002E7FB
:10393C00EAF0A3EBF09002E7124747E84922123C69
:10394C0072E8F0A3E9F079112274EA12188F74FE70
:10395C0012181F8A088B098C128D13EA2405FEE4B9
:10396C003509FFAC18AD198E828F831236151206ED
:10397C00338A0C8B0DEE2406F50EE43FF50FEA4569
:10398C000D7003023A4DE5082402F50AE43509F5F9
:10399C000B8A828B83A3A3A3E0A2E550288518820F
:1039AC0085198312361512078F8A108B11EA45116F
:1039BC006020791212360B85108285118312188DB6
:1039CC00E9F50C707F850E82850F83E060097952D2
:1039DC008011750C0E806D850882850983A3A3A3C5
:1039EC00A3E0F9E4F508F5097808121AA28E828F83
:1039FC0083A3A3E0F5087808121AA28E828F83A302
:103A0C00A3A3121AB98E828F831245A912360F12F4
:103A1C0007A17406121835E9F50C7011850E828514
:103A2C000F83E0702D12360F12029D8025741665DF
:103A3C000C7011750C00741812186B123A77E48024
:103A4C0010750C0112473F851282851383E8F0A391
:103A5C00E9F0850E82850F83E0600479008002A96D
:103A6C000C74021218357F0E021961123A7B22E097
:103A7C00F8A3E0F58388822274EC12188F74F71285
:103A8C00181F8A0A8B0B8C108D11EA2405FEE43565
:103A9C000BFF750C00AC18AD198E828F8312361586
:103AAC001206338A088B09EA45097003023C43E588
:103ABC000A2402F50A5002050B8A828B83A3A3A366
:103ACC00E0A2E5502F85188285198312361512074E
:103ADC008F8A0C8B0DEA450D604F7912AC08AD093D
:103AEC0012360F850C82850D8312188DE9F50C604A
:103AFC0003023C46850A82850B83E0F508A3E0F5BA
:103B0C0009AA08FB120783EA4B70197AFF7BFF1294
:103B1C000783EA4B7003023C398A828B83E508F0F9
:103B2C00A3E509F07508008008750C0E023C4605EB
:103B3C00089002DFE0F8E508C3984003023C3985A1
:103B4C00080E750F007403780E12180C8A828B8382
:103B5C00A3A3E0250EF8A3E0350F12400D70D08E14
:103B6C00828F83123C611232578E828F83A3A312F1
:103B7C003C61123255EE2404F508E43FF509850842
:103B8C0082F583E088828983A3A3A3A3F0A3E4F046
:103B9C00EE2405F50EE43FF50F850E82F583123CFD
:103BAC0061A3A3A3A31232557512077513007812E3
:103BBC00121AA2EEFCEFFD740412187D1212FF749F
:103BCC0002121835E4F5127812121AA285088285B1
:103BDC000983E0FC7D00791712360F120705740279
:103BEC00121835740712186B123257740712186BAF
:103BFC00E0FA4B603D850882850983123C58121A05
:103C0C00A2850E82850F831245A91212FF7402122F
:103C1C001835740212188512360F1202A3E96026A9
:103C2C00740712186B1236151213898019750C094A
:103C3C008008750C118003750C0112473F851082AA
:103C4C00851183123C6CA90C74098028E0F5087569
:103C5C0009007808221236198882898322123C7254
:103C6C00E8F0A3E9F022E0F8A3E0F9850E82850FD5
:103C7C00832274041218357F0C02196174EC12182B
:103C8C008F123D7C751000EE2402F50CE43FF50D0F
:103C9C00850C82F5831236151207838A088B09EA84
:103CAC0045097003023D60850A82850B83E064013F
:103CBC006003023D55AC08AD09AA0AAB0B1207779D
:103CCC00E9606E850882850983122FE2EE2406F5E1
:103CDC000AE43FF50B8E828F83A3A3121AB98E824E
:103CEC008F83A3A3A3A3121AB9850A82850B83120F
:103CFC001AB979188E828F83123D8E1236151207DF
:103D0C00A17406121835E9F8741668700B850A82CE
:103D1C00850B83E4F0A38014E860128E828F8312EB
:103D2C003615850E82850F83EAF0A3EBF0881080A0
:103D3C0018780E121AA2AC08AD09EEFAEFFB1207B6
:103D4C007D7402121835E9F510AA08AB091207891F
:103D5C00E510700E850C82850D831236151202A9A2
:103D6C008009741665107003751000A910023C834D
:103D7C00EAFEEBFF8C0E8D0FEE2405F50AE43FF501
:103D8C000B22124838850C82850D832274EA121896
:103D9C008F7508007509007E007F00750A00EC2401
:103DAC0002F510E43DF5118035EC65087003ED6506
:103DBC00096003023E4D88828983A3A3E06A7003E5
:103DCC00A3E06B707C88828983A3A3A3A3124743CF
:103DDC00EE28FEEF39FFEA28FAEB39FB050A123F11
:103DEC001D503A850A0C750D007403780C12180CD2
:103DFC00851082851183123F1012400D601FE5085B
:103E0C00450970A58C088D0988828983122FE0885A
:103E1C00828983A3A3E02EFAA3E03F80BEE50AC308
:103E2C0094025003023F0B750800750900EE4F60B9
:103E3C0010EEFAEFFB1213838A0E8B0FEA450F700C
:103E4C00057900023F0D750B00023EE0850B0C75E9
:103E5C000D007403780C12180C851082851183E008
:103E6C00250CF50CA3E0350DF50DE50C2406F51429
:103E7C00E4350DF515851482F5831240126042E588
:103E8C000C2404F512E4350DF513851282F583121A
:103E9C001AB9E50E2508FAE50F3509FB1212FF7465
:103EAC0002121835851282851383E02508F508A3C4
:103EBC00E03509F509851482851583123615121320
:103ECC0089E50B600D7C087D007900AA0CAB0D1206
:103EDC001317050BE50BC3950A5003023E588510CA
:103EEC008285118312474388828983A3A3A3A3A34A
:103EFC00A3E50EF0A3E50F122B73EEF0A3EFF07910
:103F0C0001023A72123F1422E0250CF8A3E0350DA1
:103F1C00229002DFE0F8E50AC3982274F012188FA1
:103F2C008A0E8B0F8C0A8D0B750D00750C00805052
:103F3C007916EE2406F508E43FF5098E828F83A3EB
:103F4C00A3121AB98E828F83A3A3A3A3121AB985C5
:103F5C000882850983121AB9850E82850F83A3A363
:103F6C001236151207A17406121835E9F50D7416E0
:103F7C00650D706C850882850983E4F0A3F0050C4F
:103F8C009002DFE0F8E50CC3985066AA0C8A08751D
:103F9C0009007403780812180C850A82850B83A318
:103FAC00A312405CE8FEE9FF8E828F831240126000
:103FBC0040EA2401F508E43400F5099002DFE065DD
:103FCC00087002E509601488828983A3A3A3A3A3C4
:103FDC00A3A3A31236446003023F3C7918023F3E70
:103FEC00E9609B12473F741012186B124004123C8C
:103FFC006CA90D7F08021961E0FAA3E0F5838A82AF
:10400C0022F988828983124838EC4D2274F61218F2
:10401C008F7C0080010C90033BE0F8ECC398501EA1
:10402C008C087509007402780812180C124051E0C3
:10403C006A7003A3E06B70DDE8FAE9FB80047A0098
:10404C007B000240F49002DD12405C88828983225E
:10405C00E02508F8A3E03509F92274F212188F8ACA
:10406C00088B09750A0080278E828F83A3A3A3A3D4
:10407C00122B6A60031213897C087D007900EEFA1A
:10408C00EFFB1213178E828F83E4F0A3F0050A1254
:10409C003F1D5027850A0C750D007403780C1218FF
:1040AC000C850882850983A3A3E0250CFEA3E035CB
:1040BC000DFF8E828F8312364470AD850882850980
:1040CC008374FFF0A3F002482C74F612188F1207B9
:1040DC00358A828B83E582458370067A007B00806B
:1040EC0007A3A3A3A31236157F0202196174F4125D
:1040FC00188F89088C828D83E06402703C1246E232
:10410C00FEA3E0F9EEF87402687003742969702953
:10411C00750A02750B00780A121AA2741012186B29
:10412C00121AB9741012186B121AB9A90812114F7D
:10413C007406121835E9F980027901022BA774E88C
:10414C0012188F74FB12181FE9851882851983F0D9
:10415C008A168B17ECFEEDFF7510008E828F83A3F1
:10416C00A3A3E0A2E4502D741D12186B1236151285
:10417C00078F8A828B83E5824583700302458179A0
:10418C000AEEFCEFFDAA16AB1712188DE9F51060BC
:10419C0003024584741F12186BE0F508A3E0F509BF
:1041AC00742112186BE0F50AA3E0F50B74231218B6
:1041BC006BE0F50EA3E0F50F8E828F83E064026056
:1041CC0003024522A3124743850882850983A385F0
:1041DC008212858313EE2406F50CE43FF50D8882DC
:1041EC0089831245C1F514E439F5157814121B2C8A
:1041FC00010000280128244207000228E942032874
:10420C00574200291844012943440229E443032955
:10421C0018440429BC442245E50E450F60030245B1
:10422C001D850C82850D83124743E8FAE9FB8A82CF
:10423C008B83E0850A82850B831245CC121AA28AE5
:10424C00828B83A3E0FCA3E00244A6E50E450F603D
:10425C000302451D850A82850B837401F01245B655
:10426C00850882850983F07C007D008E828F83A374
:10427C00A3A3A3E02401FAA3E03400FB120633EA63
:10428C004B60408A828B83E02402F8850A82850B7E
:10429C0083E028F0EA2404F8E43BF988828983E07F
:1042AC008512828513831245DA1245CC121AA28A22
:1042BC00828B83A31245A9E5082403FAE43509FB94
:1042CC000244AB850A82850B83E02404F07C047DD8
:1042DC00007900AA12AB13121317024584E50E45A0
:1042EC000F600302451D1245B6FEA3E0FF850A824E
:1042FC00850B837404F0EE850882850983F0EF85C5
:10430C001282851383F07403121885EEFAEFFB12F8
:10431C0006338A0C8B0DEA450D70030243C78A8263
:10432C008B83A3A3122FE07401121875880E890FCA
:10433C00780E121AA2740512186B121AB97CFF7D32
:10434C00FF12063974041218358B0FEA450F7033BF
:10435C00850C82850D831245AD121AA2850C8285BF
:10436C000D83A3121AB97C027D007A787B83120329
:10437C009F7404121835E9700A740112186B74FFDB
:10438C00F0A3F08E828F83E064027039750C027595
:10439C000D00780C121AA28E828F83A31245A9E508
:1043AC00082404FAE43509FB1212FF7402121835C2
:1043BC00850A82850B83E024028009740112186B34
:1043CC00EEF0A3EFF0740112186B12459B740112FE
:1043DC00186B124592024517E50E450F6003024516
:1043EC001D850C82850D83124831AA16AB1712114C
:1043FC0055850A82850B837402F0850882850983B2
:10440C00EAF0851282851383EB02451AE50E450FFF
:10441C00600302451D1245B6F8A3E0F9850A8285B2
:10442C000B837402F0E8850882850983F0E9851214
:10443C008285138302451A850C82850D83123615ED
:10444C001212F9EAFAF8C3950EE4950F405CE86590
:10445C000E450F70047A008021851882851983E03F
:10446C00FCE50E2CFCE4350FFDC3EC98ED940050EC
:10447C0003E08005E50ECAC39AFAEA850A82850B29
:10448C0083F08A0A750B00780A121AA2850C8285B1
:10449C000D83E0250EFCA3E0350FFDAA08AB091235
:1044AC0012FF7402121835024584751007024584F8
:1044BC00E50E450F705B850C82850D831247438595
:1044CC000A82850B837407F08882898312459312C4
:1044DC00458BE0851282851383F0E82402FAE439D7
:1044EC00FB8A828B8312459B8A828B83124592A313
:1044FC00A3122B721245A0F0E82405F8500109888C
:10450C008289831245A0A31245DAA3A3A3A3F0804A
:10451C006775100B8062741D12186B12361512071A
:10452C00358A828B83E5824583604A124743880C27
:10453C00890DE8450D603E742512186BE0F5107876
:10454C0010121AA6780E121AA2780A121AA2780859
:10455C00121AA2740712186BE0F9EEFCEFFDAA1602
:10456C00AB17850C82850D8312188D7407121835C4
:10457C00E9F510800375100EA91074050238D8F0F7
:10458C0088828983A322A3E085088285098322126D
:10459C0045E1F0221245E1A3A3229002E312483830
:1045AC0022E0F50E750F00780E22850C82850D83A6
:1045BC00123A7BE022E0FAA3E0F8E4C8F9EA2822F8
:1045CC00F08A828B83E0F50A750B00780A2212457B
:1045DC008B1245E122E0850882850983A3A322740E
:1045EC00EE12188F74FE12181F8A088B09ECFEED60
:1045FC00FF890AAC18AD19EEFAEFFB1206338A0CE0
:10460C008B0DEA450D70030246D3851882851983FC
:10461C001236151207358A828B83E5824583700327
:10462C000246CEA3A3124743880E890FE8450F70AC
:10463C00030246CE741412186BE0F510A3E0F511CA
:10464C00E50AF50B780B121AA6741912186B121ACC
:10465C00B97810121AA2741B12186BE0F9AC0CADDD
:10466C000DAA08AB09850E82850F8312188D74056F
:10467C00121835E9F50B705274FE650A604C850C06
:10468C0082850D83E0640270411246E2FAA3E0F9E0
:10469C00EAF87402687003742969702E851082859B
:1046AC0011831245C1F50CE439F50D780C121AA2E0
:1046BC00EEFCEFFDAA08AB091207B974021218350B
:1046CC008008750B0E8003750B01A90B7402121870
:1046DC00357F0A021961A312474788828983E02239
:1046EC0074F612188F74FE12181F740C12186B12B9
:1046FC004743E8851882851983F0740112186BE919
:10470C00F0E4F508F5097808121AA2750802780881
:10471C00121AA27404121875880889097808121ADA
:10472C00A279FE1207A174061218357402121835FC
:10473C000240F48E828F8312474722E0F8A3E0F9FF
:10474C002274F712188FEAFEEBFF89089002FA1216
:10475C0045A9121155EA5402600BA908EEFAEFFBB9
:10476C00120627800279017F0102196174F2121876
:10477C008F74FE12181FEAFEEBFF890A7401650A9A
:10478C0060147402650A600302482779011209A5B6
:10479C00E96003024827EEFAEFFB120783EA4B604D
:1047AC0003120789A818A919880889097808121A08
:1047BC00A27508027509007808121AA275087A7594
:1047CC0009837808121AA27CFF7DFF7A017B001204
:1047DC00062D74061218358038850882850983A346
:1047EC00A3A3A3A3A3124831EEFAEFFB121149E4E1
:1047FC00F50CF50D780C121AA2740212186B121A21
:10480C00B97CFF7DFFAA08AB091206397404121893
:10481C00358A088B09E508450970BE7402121835F3
:10482C007F06021961123A7B12483822E0FCA3E0A1
:10483C00FD2274F412188F8A088B09ECFEEDFF90A0
:10484C001C96E0F4604B7A097B00121329EA4B604A
:10485C00408A828B8374B1F0A3E41248A0F08A8260
:10486C008B83A3A3E508F0A3E5091248A0A3EEF0FF
:10487C00A3EFF0740C12186B1247438A828B83A33C
:10488C00A3A3A3A3A3A3123C6C901C96E0F9121350
:10489C0035022BA7F08A828B83A3A3A3A322C08209
:1048AC00C0839061907404F0A37448F0A37402F078
:1048BC009061807440F09061BC7403F090618774D7
:1048CC0019F0906265741BF0906249E0C3941390E8
:1048DC00619C40107409F09060667401F090619FC7
:1048EC007428800D740BF0906066E4F090619F74F6
:1048FC002CF0124A957009C29190036D7467800573
:10490C0090036D7461F0124AE790288CE493F46084
:10491C0006E493F9120A9B7905120DCB024D29C0BE
:10492C0082C083E9540FF9906185E0696012E5C695
:10493C0054B84441F5C6E59E5447644170F8E9F01B
:10494C0053C6B8E59E544770FA024D29C082C08305
:10495C00A8A853A87E906181E4F0A3F0A3F0C2BA9A
:10496C00539AFEC289759B00C2C275E9007591000D
:10497C0075BF0075A91175B905906181F0A374C05C
:10498C00F0A3E4F0D2BA439A0174805842A8024DC5
:10499C0029F0024D29C082C08374F812181F9003AD
:1049AC006B1260A97003024A8D90036BE054406057
:1049BC00177908AA18AB19120BA9AA18AB19120867
:1049CC001990036BE054BFF0E054806010790C7ABE
:1049DC00197B07120BA990036BE0547FF0E0A2E067
:1049EC00501E124A957009C29190036D7467800530
:1049FC0090036D7461F012081F90036BE054FEF08D
:104A0C00E05402601E124ADA7009D29190036D7460
:104A1C0071800590036D746AF012081F90036BE0AF
:104A2C0054FDF0E054046010902890124AEA1208E9
:104A3C002590036BE054FBF0E05408601090289133
:104A4C00124AEA12082590036BE054F7F0E0541078
:104A5C00600D124AE712082590036BE054EFF0E06A
:104A6C005420600A12082590036BE054DFF0A3E099
:104A7C005401600D120AB912082B90036CE054FE1D
:104A8C00F07408121835024D2990619A124CDC9082
:104A9C0006F3E0640122C082C083E960051460174C
:104AAC008029124A957009C29190036D7467801A1F
:104ABC0090036D74618013124ADA7009D2919003DD
:104ACC006D7471800590036D746AF0024D299061CC
:104ADC009A124CCE9006F3E0640122902892E49353
:104AEC00906186F02274EA12188F74F412181F90D9
:104AFC008300AC18AD19740412173290289093F4FB
:104B0C006003024C63907808E0C394025003024C9B
:104B1C004790829374041218857408121732A818DF
:104B2C00A91988148915740412187588088909AE96
:104B3C0008AF097510FF7511FF750EFF7C00750C21
:104B4C0048750D78801274086C7003024BDD740983
:104B5C006C607E740A6C6079850C82850D83780894
:104B6C001216D78E828F83A909E50AC9F8881274A8
:104B7C001878081215F2E5124508F8C3E098A3E07E
:104B8C0099850C82850D8378081216D740188E8271
:104B9C008F83741878081215F2E5124508F8E0C3F3
:104BAC0098F8A3E0801A741878081215F2E51245EB
:104BBC0008FAE9FB8E828F831253FEEAC398F8EB56
:104BCC0099F9C3E89510E995115006881089118C54
:104BDC000E0CE50C2404F50C5002050DECC39413DB
:104BEC005003024B5274FF6510700474FF65116022
:104BFC0024850E087402780812180C74482508F5E0
:104C0C008274783509F58378081216D78514828555
:104C1C001583E508F0EE2402FE50010F8514828501
:104C2C001583A3858214858315740C12186BE58289
:104C3C006E7003E5836F6003024B3F7508017509C5
:104C4C00007808121AA274021218857A247B0A12B0
:104C5C0011A37402121835740C1218357F0E021938
:104C6C0061C082C0839061AE7468F0A3746AF090E6
:104C7C00624574FBF0A304F053F4FD43FE0290066E
:104C8C00F37401F09061A0E0643A90619A7019128B
:104C9C004CDC740164017009C29190036D746780DF
:104CAC001E90036D74618017124CCE7401640170F8
:104CBC0009D29190036D7471800590036D746A0232
:104CCC00499D743FF0A3745AF09061A0747FF02258
:104CDC007433F0A37455F09061A0743AF0227F0401
:104CEC00021961C082C0839006D1E06401701190FA
:104CFC0006D7E064016019E07006A3E0640160105F
:104D0C009006E8E06401700C9006EEE0640170041B
:104D1C00790C800279008005E0F912273ED083D00F
:104D2C0082020132E0C4333354C022888289831258
:104D3C0052BFA882A983222414F582E438F5832279
:104D4C00C082C0839006DB7425F09006D97401F004
:104D5C00A3E4F07A01FB120D47124D98241AF58248
:104D6C00E438F58374DDF0A3740AF09006D8E0649F
:104D7C000170169006D7E070107901120DA7120D74
:104D8C0077120DA17900120DB3024D299006C712AE
:104D9C0051212274F612188F74FA12181F9006D033
:104DAC00E064017008120AC59006D0E4F075E1F1D8
:104DBC00124D982415F582E438F5837401F09006B1
:104DCC00D2E06401704B9082A9AC18AD1974061234
:104DDC00173275D90D9006C9124D304403F5D975AB
:104DEC0082CA7583061252BBE58264D07004E583D7
:104DFC00640670F1A818A919124D37740612186BB5
:104E0C00E582687003E5836970EE75E19579018040
:104E1C00027900120D4D901CBA124E857445F0A308
:104E2C00740CF0A3124E85124E85124FF3744BF096
:104E3C00A3740C1250089006C9E0F97ACA7B0612CA
:104E4C000D299006DBE0F912273E7901120D5390E3
:104E5C0083041216F5120D6B9083141216F5120DB5
:104E6C00357900120DBF124D98124D437416F09007
:104E7C0003697405F004025520743FF0A3740CF020
:104E8C00A32274F712188F8908A808E875F00CA4EF
:104E9C00C8AAF02AF9749928FE740339FF9006E029
:104EAC00E0F97AE17B06120D299006EEE070257987
:104EBC0000120D89EE240BF582EF3401F583E070BE
:104ECC0004790080027901EE2405FAEF3401FB121B
:104EDC000D2F80057901120D8975E1F175D923909B
:104EEC0006E0124D304405F5D97582E17583061242
:104EFC0052BBE58264E77004E583640670F175D9F2
:104F0C000075D90075D90075D90075D90075D9000F
:104F1C00EE24221253741253937003E9658370F6D6
:104F2C00EE242612537F2403F8E43583F9125393AD
:104F3C007003E9658370F6EE242B125388242C122F
:104F4C005388242D125388242E125388242F125345
:104F5C0088243012538824311253882432125388F7
:104F6C002433125388245D12537F2405F8E43583CF
:104F7C00F91253937003E9658370F6EE2437125FD0
:104F8C0028541FF8EE242A125F28C43354E048F545
:104F9C00D975E195901CBA740FF0A3740CF0A3743E
:104FAC0015F0A3740C124FEA741BF0A3740C12507E
:104FBC00089006EDE0F912273E9083041216F512C4
:104FCC000D6B9083141216F5120D3590600DE4F0F4
:104FDC007901120DBF9003697406F002575CF0A3BF
:104FEC00124FF3124FF322124FF7227409F0A374ED
:104FFC000CF0A37409F0A3740CF0A32212500C2231
:10500C00F0901CC8125018A312501822124FF774AB
:10501C0009F0A3740CF02274EC12188F9006DE12B7
:10502C005B7E78101216D79006EFE0FAF875F00C4C
:10503C00A4C8ACF02C125CFAFFEE2EFEEF33FF8E00
:10504C000CF50D750E00750F00851008851109857E
:10505C00120A85130B908338780812163D780812C3
:10506C001A9E85100885110985120A85130B78087C
:10507C00790C12162A7810790C121583E4F50EF5BA
:10508C000F7808790C1216638A0C750D007403786E
:10509C000C12180C7808790C12162A90830C7808CC
:1050AC0012169EAA08AB09AC0AAD0B1226D67404D4
:1050BC001218358A088B09A808A909C3EE98EF992C
:1050CC005006E82EF8E93FF9E890600EF0E9A3F0FD
:1050DC00EEA3F0EFA3F090600D74C1F07F0C0219F9
:1050EC0061C082C0839006C712510D9006DB024D41
:1050FC0024C082C0839006DE12510D9006ED024D45
:10510C0024125121125117F0A3F0222406F582E447
:10511C0038F583E422E0F8A3E0C82202013274F6E9
:10512C0012188F1252C46004780480027800E824AC
:10513C000EF8ECC39850030251F87C0C9006F9E47D
:10514C00F0EA2476F582E43BF583E09006FAF0EA87
:10515C0024771251FD9006FB1252079006FCF0EAE0
:10516C0024791251FD9006FD1252079006FEF0EACA
:10517C00247B1251FD9006FF125207900700F0EAB3
:10518C00247D1251FD900701125207900702F0EA9C
:10519C002474F8E43BF98A828B83A3A3A3A3A3E032
:1051AC00FEA3E0FF88828983E02EF0A3E03F125833
:1051BC00A19007031252079007041252E86017756A
:1051CC0008F97509067808121AA27903120BFD74F6
:1051DC00021218357C1012552EECFE1252BBDEFB5F
:1051EC0075E1957904120D717901800279000255EF
:1051FC0023F8E43BF988828983E0221258A6A3E0C5
:10520C002274F612188F1252C4600478048002784B
:10521C0000E8240AF8ECC39850030252B67E0890BA
:10522C0006F97401F07CBD7D0678FA79067F0512CB
:10523C0052D2A882A983DFF7EA2480FCE43BFD8AE2
:10524C00828B83A3A3A3A3A3E0F508A3E0F5098CA9
:10525C00828D83E02508F0A3E03509F01252D208C4
:10526C00A9838C828D83E0888289831252E860192D
:10527C007508F97509067808121AA27C08790312C8
:10528C000BFD74021218357E0C74012EF5D975D9EC
:10529C00037582F9758306EEFF1252BBDFFB75E1D5
:1052AC00957904120D71790180027900025523124F
:1052BC0052BF22E0F5D9A3229061D0E0F87480C3EC
:1052CC0098FC1252ED221252D6228C828D83E088E9
:1052DC008289831260E688828983A322F01252EDC0
:1052EC0022EA2482F582E43BF583E02274F712185B
:1052FC008FEAFEEBFF9061D0E0706875D91875D914
:10530C000375D903EE249B12539A1253937003E93D
:10531C00658370F6EE24A312538824A412538824B8
:10532C009312539A1253937003E9658370F6EE242B
:10533C00871253741253937003E9658370F675E109
:10534C00957908EE2493FAE43FFB120B9D7904EE59
:10535C002487FAE43FFB120B9D7904120D71125451
:10536C00A88002790002575C12537F2404F8E435BC
:10537C0083F922F582E43FF583E58222F582E43F4E
:10538C00F583E0F5D9EE221252BFE8658222125362
:10539C007F2408F8E43583F92274F612188FEAFE9C
:1053AC00EBFF9006F97406125451121AA27C017983
:1053BC0003120BFD740212183575D90675D90375D5
:1053CC0082F97583061254497004E583640670F5FE
:1053DC0075E195900369E064087010EE246FF58216
:1053EC00E43F1253FCEE2471125EB779010255238F
:1053FC00F5831260B52274F612188FEAFEEBFF905B
:10540C0061D0E070339006F9740A125451121AA24A
:10541C007C017903120BFD740212183575D90675CF
:10542C00D9037582F97583061254497004E58364B7
:10543C000670F51254A5800279000255231252BF52
:10544C00E58264FE22F07508F97509067808227465
:10545C00F612188FEAFEEBFF9061D0E070367801FF
:10546C009006F9740BF0900369E0640770197508E5
:10547C00F97509067808121AA27C017903120BFD42
:10548C00740212183578051256F01252BBDAFB1260
:10549C0054A58002790002552375E195EE246F1214
:1054AC0060AFEE2471F582E43FF583E8F0A3E9F0F8
:1054BC0079012274F612188F1255F1600478048069
:1054CC00027800E8240BF8EAC39840447C09900663
:1054DC00F9740812553D12554CDDFB125F25601B0B
:1054EC007508F97509067808121AA27903EEFAEF15
:1054FC00FB120BFD74021218357C0D125528125537
:10550C00E970FB75E1957904120D711254A88002B3
:10551C00790080031218357F0202196112552E8C06
:10552C00082274012CF5D975D9037582F975830697
:10553C0022F0EE24E4F8E43FF97AFA7B067D0822A7
:10554C0088828983E08A828B831258A6A3A882A9B9
:10555C00838A828B83A3AA82AB832274F612188F60
:10556C001255F16004780480027800E82408F8EA07
:10557C00C398406478069006F9740CF0900386E0AA
:10558C009006FAF0900387E09006FBF0900388E019
:10559C009006FCF0900389E09006FDF090038AE001
:1055AC009006FE125680601B7508F975090678087E
:1055BC00121AA27C067903EEFA120BFD7402121871
:1055CC0035780A12567A1255E970FB75E195790413
:1055DC00120D711254A8800279000255231252BF89
:1055EC001508E50822EAFEEBFF9061D0E0F8748024
:1055FC00C398FA1256852274F612188F1255F16060
:10560C0004780480027800E82404F8EAC39840592E
:10561C0078029006F9E8F0EE24F6125F289006FA6C
:10562C00125680601B7508F97509067808121AA2C3
:10563C007C027903EEFA120BFD740212183578060F
:10564C0012567A1255E970FB75E195EE24731258D7
:10565C0092EE247F12589212588FA3F07904120DF7
:10566C0071EE240D1254AB800279000255231256B0
:10567C00F6880822F012568522EE2482F582E43F49
:10568C00F583E02274F612188F1252C46004780469
:10569C0080027800E82404F8ECC398404278029029
:1056AC0006F97407F0EA24F7F582E43BF583E09001
:1056BC0006FA1252E860197508F97509067808128D
:1056CC001AA27C027903120BFD74021218357806AB
:1056DC001256F01252BBDAFB75E195790180027912
:1056EC00000255231256F6E8FA22740128F5D975F2
:1056FC00D9037582F97583062274F712188FE9FFA6
:10570C00A2AFE433FEC2AF7C0080010C1257AD5047
:10571C0010ECF8EA28F8E43BF9125E136F70EC8099
:10572C0016EA246EF8E43BF9E0FCEA2CFAE43BFBC5
:10573C0012574AEF12589BEEA2E092AF8012EA2465
:10574C006AF582E43BF58322F0EEA2E092AF790099
:10575C007F01021961C082C083A2AFE433FDC2AFE6
:10576C001257B514F07C00801DECF8EA28F8E43BE5
:10577C00F9E8246B125E16C0E0E8246AF582E4397D
:10578C00F583D0E0F00C1257AD40DEEA246DF582C3
:10579C00E43BF58374FF1257DAEDA2E092AF024DB1
:1057AC00291257B5F8ECC39822EA246EF582E43B33
:1057BC00F583E022C082C083A8A8C2AF12574AE981
:1057CC001257DAE8A2E7E433FAE8A2E780CEF0EA6F
:1057DC002469F582E43BF583E4F02274F312188F0C
:1057EC00EAFEEBFFECFAEDFB8A828B83A3A3A3A367
:1057FC00E0541FF0EE2436125892750A00EE245D28
:10580C00FCE43FFD8A828B83E08C828D83F0750BE8
:10581C0000E50A33333354F8F50C8A828B83E0F5B8
:10582C0008750900E50B78081217EDE508A2E050A1
:10583C0027EE2436F8E43FF988828983E0F508EEF8
:10584C002508F508E43FF509E5082438F582E43528
:10585C0009F583E50C12589B050B050CE50BC3945D
:10586C000840B7050A8A828B83A3AA82AB838C82F9
:10587C008D83A3AC82AD83E50AC3940540867F0576
:10588C00021961EE241DF582E43FF583E4F0221247
:10589C0058A104F0221258A6E022F08882898322B3
:1058AC0074F712188F900395E064037003025A4446
:1058BC007C0075829B758303E06003025A2EECF822
:1058CC0075F00CA4C8AAF02AF9749928FA74033953
:1058DC00FB8A828B83A3A37401125A66E4F0EC8AD0
:1058EC00828B83A3A3A3A3F01260307401F0EA248B
:1058FC0067F582E43BF5837401125A60E4F0A3125D
:10590C005A60A3A3125A76240FF582E43BF58374F4
:10591C0001F0EA2435125A4B2418125A7B241C121B
:10592C005A4B241D125A6F247F125A4B2473125A4D
:10593C004B2468F582E43BF58374801257DAEA2431
:10594C006E125A4B24EC125A4B24ED125A4B24EE85
:10595C00125A4B24EF125A4B24F0125A6F24F212A3
:10596C005A6F24F5125A4B2482125A4B24D2125AD3
:10597C004B24D3125A4B24D4125A7B24D8125A7B60
:10598C0024DE125A4B24E0125A4B24DC125A4B24BC
:10599C00E1125A4B24E2125A4B24F8125A6F24FA91
:1059AC00125A6F24FC125A6F24FE125A6F240B12D7
:1059BC005A552405125A552406125A552407125AC0
:1059CC00552408125A552409125A55240A125A55AC
:1059DC0012574B74FF7804F0A3D8FCEA245DF8E46A
:1059EC003BF97CBD7D06125A8F64C27003ED6406D0
:1059FC0070F4EA24E4F8E43BF97C7D7D03125A8FC1
:105A0C0064857003ED640370F4900395E004F06416
:105A1C000170298A828B83A3A3A3A3E0900397F040
:105A2C00801A0CE582240CF582E5833401F583ECB5
:105A3C00C3940350030258C47A007B0002575CF5F0
:105A4C0082E43BF583E4F0EA22F582EB3401F58342
:105A5C00E4F0EA22125A66A3A322F08A828B83A373
:105A6C00A3A322F582E43BF583E4F0A3F0EA22F54C
:105A7C0082E43BF583125A86EA22E4F0A3F0A3F009
:105A8C00A3F0221252D6A882A983EC22C082C08332
:105A9C008A828B83A3A3A3E0600F8A828B83A3A348
:105AAC00A3E4F0900396E014F0900395E014F070EA
:105ABC000690039774FFF08A828B83A3A3E4F09083
:105ACC0006C2E0700D900396E06401700579001237
:105ADC000D3B024D29C082C083789B790388828953
:105AEC0083A3E41258A6F0125CE4E864BF7003E9E7
:105AFC00640670E9900395E4F0A3F0A374FFF075CD
:105B0C00E1F1024D2974F512188F75080075090022
:105B1C00750A007E997F038E828F83A3A3A3E06016
