:020000040000FA
:0600000002011A02227940
:03002B000229BBEC
:0300330002299D02
:030053000222EF97
:03006B00022974F3
:100083000220CFE5C754F84401F5C77901220000E7
:100093000080FB120086B90003020104E479217891
:1000A30008B800028004F709D8FCE479297802B87B
:1000B30000028004F709D8FCE490028178B1791337
:1000C3008002F0A3D8FCD9FA781A90014A7A01BACF
:1000D30000028007E493A3F608DAF97A317B1590DE
:1000E300014B780779048015E493A3AD82AE838A2C
:1000F300828B83F0A3AA82AB838D828E83D8E9D9C6
:10010300E77582B27583B5740312012C75829175FC
:100113008300740012012C75D00075813F7518811E
:10012300751902759F00020096C09FF59FE473D076
:100133009F22D083D082C09FE493C0E0740193C018
:10014300E0740293F59F2201FF0000B40000280031
:100153002800283075A000A000A000A0000008001F
:1001630008E001F000100010001000100010001053
:100173000050005000500010001000D00700000095
:100183000000000F0001000500307507001000019A
:100193000081FF00000000FFFFFF73069106790650
:1001A300B506FF02020208025000A0000000E803A7
:1001B30002D682010000A28202BC820100008C15DB
:1001C30002A882010000BF0202BC820100008D155B
:1001D30002AA82010000D50202BC820100008E1532
:1001E30002AC82010000D70202BC820100008F151D
:1001F30002AE82080000D80202BC82010000901502
:1002030002B0820100009115FF0100FF2002D68297
:100213000100009F8202BC82010000F51502B28238
:10022300000000000002B88203000006031700214B
:100233000D210D210D210D210D210D210D210D214B
:100243000D210D210D210D210DD90FEB0FD30F0220
:100253000202020202020202010D0000001001026A
:10026300D682010000C98102BC8201000038160257
:10027300D282010000230702BC820100003916026A
:10028300D0820100005D8102BC820100003A1602A7
:10029300CE82010000418102BC820100003B1602B4
:1002A300CA82010000A98002BC820100003C160240
:1002B300C882010000DF8002BC820100003D1602FB
:1002C300C682010000CD8002BC820100003E1602FE
:1002D300C482010000978002BC820100003F160225
:1002E300C2820100004F8102BC820100004016025D
:1002F300C08201000041161209466C79626972647A
:100303004C61626F7261746F72790505125000203F
:1003130003020A000201060302F0FF466C796269D8
:10032300726420424C455065726970686572616CF5
:10033300C9100000CF1001E8030577100AFFFFFF83
:1003430000013075030201060000000000000000F8
:10035300000000000000000000000000000000009A
:1003630000000000FFFF0600800CE8030A436861F9
:100373007261637465726973746963203100024347
:1003830068617261637465726973746963203200B2
:100393000843686172616374657269737469632089
:1003A30033001043686172616374657269737469C1
:1003B3006320340002436861726163746572697318
:1003C30074696320350002D682010000A58202BC55
:1003D30082010000551702DA82030000261502BAD3
:1003E30082010000561702BC82010000671702DC7D
:1003F30082010000271502BA82010000681702BCBF
:1004030082010000791702DE82020000281502BA79
:10041300820100007A1702BC820100008B1702E000
:1004230082000000291502B8820300002A1502BACF
:10043300820100008C1702BC820100009D1702D4C8
:10044300820400002C1502BA820100009E171201DB
:10045300351D90031201353090031201356190036D
:100463001201359B9003120135F490031201353BC1
:100473009103120135839103120135B291031201E5
:1004830035E191031201351892031201355F92038E
:10049300120135789203120135CD9203120135E62C
:1004A30092031201353493031201356E9303120143
:1004B3003501AB0212013504AC021201353DAC0229
:1004C30012013560AC0212013572AC02120135B073
:1004D300AC021201352CAD02120135F4AD0212014A
:1004E3003516AE02120135ADAE02120135FFAE0272
:1004F30012013530AF021201353DAF02120135A7AB
:10050300AF02120135FEAF0212013501B002120132
:10051300353AB0021201353DB00212013547B0023F
:100523001201359BB002120135DCB0021201350F06
:10053300B1021201354CB1021201354EB202120161
:1005430035F2B2021201355BB30212013599B302DF
:100553001201353C88031201356488031201359179
:100563008803120135C98803120135278903120153
:1005730035738903120135DA89031201351A8A03A7
:10058300120135578A03120135858A031201352F6B
:100593008B03120135398B03120135468B0312018C
:1005A30035798B03120135858B031201359D8B033E
:1005B300120135A78B0312013580B2031201358E68
:1005C300B203120135A6B203120135BDB203120103
:1005D30035FAA601120135A4A701120135B7A80106
:1005E30012013533A90112013551AA011201358DCA
:1005F300AA0112013528AB011201350CAC0112011D
:1006030035D8AC0112013566AE01120135D7AE0102
:1006130012013591AF0112013583B001120135C3C7
:10062300B00112013577B101120135A9B1011201EF
:10063300359FB301120135E1B301120135FFB30157
:1006430012013565B40112013534B501120135F8D3
:10065300B50112013517B801120135BACB021201E7
:1006630035A4CC021201354FCD02120135A0CD02C3
:1006730012013550CE02120135C1CE02120135A648
:10068300CF02120135DACF02120135D3D0021201A3
:100693003510D102120135ECD1021201352BD202F1
:1006A30012013547D2021201351FA503120135A3EA
:1006B300A503120135CEA503120135E8A6031201E5
:1006C30035358C031201354B8C03120135698C03CC
:1006D3001201357A8D03120135848D03120135AF72
:1006E3008E03120135A68F031201351390031201F5
:1006F30035A8D202120135D8D3021201350FD40224
:1007030012013559D4021201351CD602120135E605
:100713008201120135728301120135D6840112015F
:1007230035E284011201351D85011201358C8501E5
:100733001201359586011201359E87011201356537
:100743008801120135C28901120135E089011201C4
:1007530035FD8901120135AA8A01120135278B0162
:100763001201354F8B01120135198E011201351E0D
:100773008E01120135379001120135859001120166
:1007830035F590011201353391011201350F9201B4
:10079300120135CF92011201351B93011201351E4F
:1007A3009301120135629301120135AA93011201DB
:1007B30035E993011201350B94011201353F940180
:1007C300120135A29401120135EBD702120135F95A
:1007D300D7021201354CD8021201356BD80212012F
:1007E30035B0D802120135F4D9021201358FDA027D
:1007F300120135D3DA02120135FDDA021201356C2A
:10080300DB02120135B2DB0212013529DC021201CF
:1008130035DADC02120135F42900120135042A000D
:10082300120135A52A00120135012B00120135BE34
:100833002B00120135DA2C001201350C2D001201A8
:10084300353B2D00120135E82E001201355F3100D2
:10085300120135CF3300120135C13400120135BA0C
:100863003500120135C13700120135B53A001201C6
:1008730035E43B00120135E83D00120135F83E0036
:10088300120135874000120135784100120135C647
:10089300410012013535420012013559420012015F
:1008A30035AA42001201354B47001201354C48006E
:1008B300120135AD4800120135D848001201359EAA
:1008C30049001201350080031201350A8003120129
:1008D300354F8003120135638003120135F3800322
:1008E3001201352C81031201356781031201359002
:1008F3008103120135E48103120135F981031201E9
:10090300351B820312013530820312013544820301
:10091300120135598203120135938203120135BF47
:1009230082031201350883031201357A830312010E
:1009330035BD8303120135E78303120135128403A6
:1009430012013572AF03120135888D021201356B26
:100953008E02120135E68E02120135218F02120139
:100963003572900212013500910212013592930201
:10097300120135449402120135509502120135C318
:1009830096021201351C970212013507F402120177
:10099300354AF402120135CEF402120135A5F702ED
:1009A300120135ABA0031201355DA10312013559C4
:1009B300A20312013598A203120135F2A203120118
:1009C30035F1A80312013554A903120135F1A90326
:1009D30012013526AA0312013556AA0312013591D5
:1009E300AA03120135B1AA03120135B7E1021201BC
:1009F3003543E20212013502E3021201351AE40221
:100A030012013534E602120135BC7200120135E1E0
:100A13007200120135AE73001201358274001201A7
:100A230035EF74001201352F7500120135CB7500B7
:100A3300120135FF7600120135DA770012013539DC
:100A43007800120135C5780012013533790012019F
:100A530035BF7900120135057A00120135777A0026
:100A6300120135097B00120135AA7B00120135CA38
:100A73007B00120135127C001201355B7C001201F0
:100A830035777C001201359D7C00120135177D00FE
:100A9300120135257D00120135B47D001201351D8B
:100AA3007E001201356BE602120135F0E6021201F7
:100AB3003532E70212013516E80212013583E802E6
:100AC300120135C7E8021201350BE902120135386C
:100AD300E90212013560E90212013598E9021201B7
:100AE30035D6E902120135FDE90212013577EA0232
:100AF300120135C1EA0212013524B801120135C3CE
:100B0300B901120135FBBB011201354FBC011201C2
:100B1300357ABC0112013556BD0112013586BD017E
:100B2300120135B5BD01120135C8BD0112013509E8
:100B3300BE0112013536BE0112013584BE01120118
:100B430035C0BE0112013505BF0112013552BF0187
:100B5300120135CCBF011201350DC201120135F767
:100B6300C30112013533C401120135C2C50112019B
:100B73003507C6011201357AC601120135CFC60108
:100B8300120135D4C6011201355EC7011201357D4C
:100B9300C8011201358EC801120135C59702120131
:100BA300353E9802120135F89D02120135039F026A
:100BB300120135ACA0021201353AA102120135A48B
:100BC3005E00120135255F00120135525F001201EC
:100BD300359B5F001201359C6000120135F5600002
:100BE300120135716200120135F362001201350EF4
:100BF30063001201357F63001201353C640012016A
:100C030035FF64001201358D65001201354466001D
:100C1300120135576600120135F06600120135875F
:100C23006700120135AE6700120135176800120123
:100C330035616800120135AF68001201355669004D
:100C4300120135F46900120135816A00120135F28F
:100C53006A00120135396B00120135916B001201E4
:100C630035C36B00120135846C00120135876D00AA
:100C7300120135D06D00120135ED6D001201350CF6
:100C83006E001201353F6F00120135F66F0012013D
:100C9300351B7000120135307000120135A0700051
:100CA300120135E17000120135057200120135861B
:100CB300720012013564A102120135AFA1021201C3
:100CC30035BBA1021201358FA202120135A6A20281
:100CD300120135E3A20212013514A3021201354CAD
:100CE300A302120135A2A302120135B8A302120115
:100CF30035F4A30212013507A4021201352EA40212
:100D030012013562A40212013588A502120135D2FF
:100D1300A602120135CEA702120135E4A802120180
:100D230035F7FF011201353ED7011201356DD701A9
:100D3300120135BFDA0112013516DC01120135D576
:100D4300DC011201353CE00112013528E1011201F9
:100D5300357AE10112013594E101120135C6E10151
:100D6300120135D1E101120135DAE1011201358CAD
:100D7300E2011201355CE301120135A3E301120123
:100D83003509E4011201357BE4011201357A95013D
:100D9300120135BA9801120135C098011201357F4D
:100DA3009F01120135A4A301120135D69303120149
:100DB300356C9403120135829403120135DB9403DD
:100DC3001201351F9503120135599503120135F1AF
:100DD30095031201356096031201356996031201DA
:100DE300357596031201358F9603120135B99603B3
:100DF300120135CE96031201353097031201355790
:100E0300970312013557F80212013564F8021201F3
:100E1300357EF802120135B1F802120135EFF802FE
:100E230012013554F90212013569F90212013574C0
:100E3300F90212013581F90212013598F902120102
:100E430035A6F902120135B1F902120135BDF902D5
:100E5300120135CCF902120135D7F902120135FA24
:100E6300F9021201359EFA02120135AEFA0212019D
:100E730035C8FA02120135E5FA0212013500FB0208
:100E830012013525FB0212013530FB0212013545F3
:100E9300FB0212013559FB02120135BAFB021201A2
:100EA30035C0FB02120135C6FB02120135CCFB0231
:100EB300120135E4FB0212013517FC02120135055C
:100EC30080021201359C8002120135348102120125
:100ED300352482021201355B82021201356E8202D1
:100EE300120135DC82021201357784021201359E2C
:100EF3008402120135408502120135758502120103
:100F030035868502120135FF8502120135208602DE
:100F13001201353886021201359087021201359984
:100F23008902120135E98B02120135EC8C021201A0
:100F3300353B8D02120135B1C801120135AEC9012D
:100F430012013599CA01120135A3CA01120135C52F
:100F5300CA01120135D1CA0112013523CC01120194
:100F63003552CC0112013582CD01120135C4CD01B8
:100F7300120135F0CE01120135C6CF011201351829
:100F8300D00112013577D001120135AED001120123
:100F930035E9D00112013584D4011201359DD40104
:100FA3001201351FD5011201352DD50112013582EC
:100FB300D50112013590D501120135FDD50112017C
:100FC300356FD601120135B5D60112013505F4018D
:100FD30012013527F40112013511F601120135B65C
:100FE300F901120135F9FA01120135D3FB0112019E
:100FF30035407E00120135657E00120135D67E0034
:10100300120135BFB302120135C8B302120135D143
:10101300B30212013502B50212013521B7021201E2
:101023003557B70212013591B702120135C7B7021E
:1010330012013501B80212013535B80212013561CA
:10104300B802120135AAB802120135E4B80212013E
:10105300352CB90212013582B902120135B7B90232
:1010630012013512BA021201354CBA021201359D32
:10107300BA02120135D3BA021201350DBB021201B5
:10108300353BBB021201355EBB0212013501B403CD
:101093001201352DB40312013588B40312013592C0
:1010A300B403120135A2B403120135199B031201D3
:1010B30035409B031201356A9B03120135ECDC02B8
:1010C3001201350FDF02120135D1DF02120135554E
:1010D300E1021201350AB6031201350A4A00120170
:1010E300356E4C00120135254E00120135824E003B
:1010F300120135844F001201350C50001201359353
:101103005000120135B85000120135AD53001201E1
:10111300352354001201351255001201354C550088
:101123001201358C55001201352C570012013581FF
:101133005700120135CE57001201353C58001201F9
:10114300356258001201357C58001201359259005E
:10115300120135A25900120135285B0012013548EE
:101163005B001201357E5B00120135025D00120146
:1011730035415D001201357F5E0012013586EF02B5
:10118300120135DEEF0212013526F1021201359507
:10119300F10212013544F20212013563F202120127
:1011A30035B7F202120135F5F2021201354DB303E0
:1011B3001201355EB30312013554B60312013593A0
:1011C300B60312013556B70312013515FF0112019B
:1011D3003525FF011201353DFF01120135F1FF01F4
:1011E30012013586B0031201350AB10312013570BD
:1011F300B103120135BFAA03120135E8AA03120194
:10120300354EAB031201356DAB03120135C1AB0390
:101213001201351AAC0312013555AC0312013558CE
:10122300AC0312013599FC02120135AEFC02120126
:1012330035D2FD021201353CFE02120135B0FE0229
:10124300120135CAFE02120135E1FE02120135F424
:10125300FE021201350CFF0212013521FF021201B9
:101263003542FF0212013593FF021201353A84031E
:10127300120135518403120135CA84031201359FCB
:101283008503120135718703120135D687031201D5
:1012930035298803120135F87F0012013517A7039A
:1012A3001201358DA803120135EEA8031201350092
:1012B300AE0312013529AE0312013552AE031201FA
:1012C30035EBAE031201352DAF03120135ECBB0232
:1012D300120135F6BB0212013536BC021201357F0D
:1012E300BC02120135B9BC021201350FBD02120155
:1012F300352EBD02120135B3BF02120135BCBF0248
:101303001201350DC00212013536C0021201354BF0
:10131300C002120135BBC00212013549C1021201DC
:10132300358DC102120135B5C10212013534C20235
:1013330012013577C202120135B4C202120135C659
:10134300C202120135E5C202120135EEC2021201D8
:1013530035B8C30212013562AC03120135B3AC03D5
:101363001201353CAD03120135A2AD03120135E77D
:101373009D03120135119E031201350B9F031201C8
:10138300353A9F03120135C09F0312013589B1031A
:1013930012013553B5031201351DA3031201355351
:1013A300A3031201358CA303120135E5A403120133
:1013B30035ACB403120135C2B403120135CCB40306
:1013C30012013522B503120135E4C302120135A11E
:1013D300C402120135DCC40212013504C502120134
:1013E3003566C502120135B2C5021201351DC602AA
:1013F30012013599C60212013595C7021201351C37
:10140300C9021201359FC90212013503CA02120132
:10141300351ACA0212013510CB021201355CCB0218
:1014230012013501EB0212013516EB02120135C62A
:10143300EB0212013506EC021201351FEC02120118
:101443003552EC021201359FEC02120135D3EC0246
:1014530012013515ED0212013513EF021201357930
:10146300EF02120135CAE50112013581E9011201CA
:101473003513EB011201356AEB0112013589EB01DA
:1014830012013507EC0112013599ED011201357D89
:10149300EE011201358EF20112013562F3011201E0
:1014A30035859703120135ED97031201350A980329
:1014B300120135D598031201352899031201350B12
:1014C3009A031201359DB603120135E3B6031201E7
:1014D30035C8FF021201350FB70312013538B703C0
:1014E300E066701008A3E066700A08A3E066700463
:1014F30008A3E06622C3E7960809E7960809E7967A
:101503000809E79622C3E09608A3E09608A3E096AD
:1015130008A3E09622C008C3E096F50808A3E09666
:10152300420808A3E096420808A3E0964508700124
:10153300D3D00822080808EAC0E0EBC0E086F0E751
:10154300A4FA180986F0E7A42AFA180986F0E7A492
:101553002AFA180986F0E7A42AFA1986F0E7A4FB09
:10156300E5F02AFA190886F0E7A42BFBE5F03AFA2E
:10157300190886F0E7A42BFBE5F03AFA1818098658
:10158300F0E7A4C5F02BFBE43AFA1908E7C5F0C667
:10159300A426F6E5F03BFBE43AFA1886F0E7A4F656
:1015A300E5F00826F6E43B08F6E43A08F6D0E0FB5B
:1015B300D0E0FA22E4CFC0E0E4CEC0E0E4CDC0E066
:1015C300E4CCC0E075F020E626F608E633F608E63C
:1015D30033F608E633F6181818EC33FCED33FDEE5A
:1015E30033FEEF33FFC3EC9709ED9709EE9709EF4D
:1015F30097191919400FFFEC97FC09ED97FD09EEB8
:1016030097FE191906D5F0BFECF709EDF709EEF7C8
:1016130009EFF7191919D0E0FCD0E0FDD0E0FED0B6
:10162300E0FF226016080808C6C313C618C613C60F
:1016330018C613C618C613C6D5E0EA2270090808EF
:1016430008226016181818C6C333C608C633C6085E
:10165300C633C608C633C6D5E0EA22E627F608092C
:10166300E637F60809E637F60809E637F622E026F4
:10167300F608A3E036F608A3E036F608A3E036F64C
:1016830022E026F008A3E036F008A3E036F008A332
:10169300E036F022C3E697F60809E697F60809E66E
:1016A30097F60809E697F622C3E096F008A3E096BA
:1016B300F008A3E096F008A3E096F022E056F608BF
:1016C300A3E056F608A3E056F608A3E056F622E098
:1016D30056F008A3E056F008A3E056F008A3E0563E
:1016E300F022E0F608A3E0F608A3E0F608A3E0F68C
:1016F30022E6F008A3E6F008A3E6F008A3E6F0224A
:10170300E0FAA3E0FBA3E0FCA3E0FD22E0F8A3E002
:10171300F9A3E0FAA3E0FB22E8F0A3E9F0A3EAF0DF
:10172300A3EBF022CAC0E0E6F0A308DAFAD0E0FAAD
:1017330022CAC0E0E0A3C582CCC582C583CDC583E0
:10174300F0A3C582CCC582C583CDC583DAE6D0E0DC
:10175300CA22C3E498F8E499F91217968026C3E4E1
:101763009AFAE49BFBE920E7E9121796E498F8E478
:1017730099F922C3E498F8E499F9121796E498F8D2
:10178300E499F9C3E49AFAE49BFB22EB20E7CFE95F
:1017930020E7E0B90010BB0008E88AF084F8AAF05B
:1017A30022E4FBC8FA22EB70227B10C833C8C9338A
:1017B300C9335007C39AC3DBF280069A50012ADB70
:1017C300EAC833F4C8C933F4C9FA2275F008E4C887
:1017D30033C8C933C933C99AC99B5004C92AC93B01
:1017E300D5F0ECFBC833F4C8E4C9FA22600D08C68F
:1017F300A2E713C618C613C6D5E0F322600C08C6C9
:10180300C313C618C613C6D5E0F422700422600DB4
:1018130018C6C333C608C633C6D5E0F41822251844
:1018230010AF08F518400C15198008F5184002157B
:1018330019D2AF2200C0D0251810AF08F518500CEC
:1018430005198008F51850020519D2AFD0D022250A
:1018530018F58210AF08F518400C15198008F51813
:1018630040021519D2AF851983222518F582E43574
:1018730019F583222518F8E43519F9222518FAE415
:101883003519FB222518FCE43519FD22E4732518CC
:10189300C582C0E0E51934FFC583C0E0E518C395F0
:1018A3008224F810AF088583198582188008858300
:1018B30019858218D2AFCEF0A3E520F0A37808E60D
:1018C30008F0A3DEFAEFF0A3E58124FAF8E608F0C6
:1018D300A3E608F0A3E608F0A30808E608F0A3E6E9
:1018E30008F0A315811581D0E0FED0E0F81581152D
:1018F300811581E8C0E0EEC0E0222518C582C0E072
:10190300E51934FFC583C0E0E518C3958224F910B7
:10191300AF08858319858218800885831985821805
:10192300D2AFCEF0A3E520F0A37808E608F0A3DE5B
:10193300FAEFF0A3E58124FBF8E608F0A3E608F04C
:10194300A30808E608F0A3E608F0A315811581D0E3
:10195300E0FED0E0F815811581E8C0E0EEC0E0229A
:10196300851983851882E0A3FEE0A3F5207808E0BB
:10197300A3F608DFFAE0A3FFE0A3C0E0E0A3C0E022
:10198300E0A3C0E0E0A3C0E0E0A3C0E010AF08859F
:1019930082188583198008858218858319D2AFD070
:1019A30083D082020132851983851882E0A3FEE089
:1019B300A3F5207808E0A3F608DFFAE0A3FFE0A38D
:1019C300C0E0E0A3C0E0E0A3C0E0E0A3C0E010AF4C
:1019D300088582188583198008858218858319D222
:1019E300AFD083D08222C0D02518C582C0E0E519CC
:1019F30034FFC583C0E0E518C3958224F310AF0814
:101A03008583198582188008858319858218D2AF4A
:101A1300C8F0A3E9F0A3EAF0A3EBF0A37908E70980
:101A2300F0A3D8FAECF0A3EDF0A3EEF0A3EFF0A34C
:101A3300D0E0F0A3D0E0F0A3D0E0F0A3E520F0A342
:101A4300E5F0F0A322851983851882E0C0E0A3E0C6
:101A5300F9A3E0FAA3E0FBA37808E0F608A3DFFA12
:101A6300E0FCA3E0FDA3E0FEA3E0FFA3E0C0E0A34E
:101A7300E0C0E0A3E0F5D0A3E0F520A3E0A3F5F0F8
:101A830010AF08858319858218800885831985829C
:101A930018D2AFD082D083D0E0F8D0E03274048083
:101AA30006740280027401C0E0F404121852D0E0FC
:101AB300121727227404800474028000CCC0E0ED66
:101AC300C0E0E518C39CCCAD1950011D10AF068CC6
:101AD300188D1980068C188D19D2AF121734D0E0E7
:101AE300FDD0E0FC22D083D082E9C0E0E493A3C31D
:101AF30086F0C5F095F0F908E493A386F0C5F09558
:101B0300F0700BE493A3C3994005E9048002A3E4B6
:101B130075F002A42582F582E5F03583F583D0E0E4
:101B2300F9E493A3C0E0E493C0E022D083D082EC35
:101B3300C0E0EDC0E0E493A3FCE493A3FDED4C60AF
:101B43000D121B7AEC24FFFCED34FFFD80EFE493D0
:101B5300A3FCE493A3FDED4C600D121BB9EC24FF31
:101B6300FCED34FFFD80EFD0E0FDD0E0FCE493A377
:101B7300C0E0E493C0E022C0E0C3E493960874019C
:101B8300939618400FE493667008087401936618DF
:101B930070007019A3A3C3E4939608740193961875
:101BA300A3A3400DD0E0D0E0D0E0021B6AA3A3A31F
:101BB300A3A3A3D0E022C0E0C0F088F0E493667052
:101BC300080874019366187000A8F0A3A3700BD0E3
:101BD300F0D0E0D0E0D0E0021B6AA3A3D0F0D0E0C5
:101BE3002274F61218FDEAFEEBFF8C088D09EE2431
:101BF30034F8E43FF9E8FCE9FDEE2435121F1EFA40
:101C0300EE2437121F1EF88508F0A4C885F00A8554
:101C130009F0A4250AF9EA28F8E439F97A257B00C2
:101C2300121796EA8C828D83F0FA131313541FF85C
:101C3300EE28F8E43FF9E8245DF582E439F583E022
:101C4300C0E074075AF8D0E0B800028004C313D888
:101C5300FCA2E0EE50082434F582E43F80182436D9
:101C6300121F1EF5F0EA84A8F0EE28F8E43FF9E825
:101C73002438F582E439F583E0F97F030219A97466
:101C8300F71218FDEAFEEBFFEE2434121F1EC0E02C
:101C9300EE2435F582E43FF583D0E0F08E828F8326
:101CA300A3A3A3A3A3A3A3C082C0838E828F83A372
:101CB300A3A3A3A3121D87D083D082E0C398F50802
:101CC300A3E099F509EE247F121F1E6401705DEEF7
:101CD3002480121D818E828F83A3A3A3A3A3A3A316
:101CE3001220C18E828F83A3A3A3A3A3E0FAA3E050
:101CF300FBC3EA9CEB9D5010C3EC98ED99402DC3B8
:101D0300EA98EB995026800EC3EA98EB994007C3F3
:101D1300EC98ED9940167CB07D04EEFAEFFB120CC3
:101D230061EE247FF582E43FF583E4F0AC08AD096E
:101D3300EEFAEFFB121BE4E9F91229667F0202199E
:101D4300A9C082C083851882851983121D87C3EABF
:101D53009CEB9D5010C3EC98ED99401BC3EA98EBA4
:101D6300995014800EC3EA98EB994007C3EC98EDA1
:101D7300994004790180027900D083D08222F582D0
:101D8300E43FF583E0F8A3E0F922EAC39CFAEB9D74
:101D9300FB2274EF1218FD900376E064086005E0FF
:101DA3006407702A9061C8E060249003A4E0F460A3
:101DB3001DE0F875F00AA4C8AAF02AF974A628FE53
:101DC300740339FF8E828F83A3A3A3E07003021EE3
:101DD300A3906060E0C0E0EE2468F582E43FF58301
:101DE300D0E0F0750C20750D05750800750900E548
:101DF300D914F50AE5D95403F50E60127403650E80
:101E03006043E50A600AEE2467121F1E70028075A4
:101E130090051BE06401601F121F1B60047A04809D
:101E2300027A00E50AC39AFA95E0FB120B0B8A08C3
:101E33008B09EA45097005120EA18064121F1B70FD
:101E4300048A0C8B0DE50A6012850C82850D83F5DF
:101E53000BE5D9F0A3150BE50B70F6121F1B6044BD
:101E630074FC250AF50A780C121AA4AC0AA90EEE22
:101E7300FAEFFB120D1B7402121837E97026AA0839
:101E8300AB0912135D793D8E828F83A3A3A3A3E0D5
:101E9300FA7B0012096DEEFAEFFB120C85120D2D81
:101EA3007900806F7403650E6051850A1075110007
:101EB3007810121AA4AC0CAD0DAA08AB09120CDFF2
:101EC3007402121837EE2468121F1E6480700474A3
:101ED3007F8001E0F50C780C121AA8E50EF50C785A
:101EE3000C121AA8A90AAC08AD099003A4E0FA7B66
:101EF3000012094374021218378013900376E064CA
:101F030008600BAC0CAD0DEEFAEFFB120D9F120E39
:101F1300AD79017F0A0219A9EE2482F582E43FF527
:101F230083E02274F21218FD74FC121821EAFEEB0E
:101F3300FF8909A2AFE433F508C2AF021FE2E060F4
:101F43001B780C121AA4AC0BA90EEEFAEFFB120DC0
:101F53001574021218377404250BF50B7401250B45
:101F6300F5D9850ED9E50B6018F50A850C82850D28
:101F730083E0F5D9A385820C85830D150AE50A70E4
:101F8300EA75E195EE2463F8E43FF97A007B00A259
:101F9300AFE433F50BC2AF1220BDEC4D6032888243
:101FA3008983E0FAA3E0FB8A828B831220C18882B3
:101FB3008983ECF0A3EDF08A828B83E4F0A3F01223
:101FC30020BDEC4D700A88828983A3A3E4F0A3F0BB
:101FD300E50BA2E092AF12135D9004B7E004F0EEBC
:101FE3002463121D81E8496064EE2463121F1E24DA
:101FF30002F8A3E03400F988828983E5822402F59C
:102003000CE43583F50DE0F50BA3E0F50EEE246249
:10201300121F1E640170369061D0E0F8121F1B601E
:10202300047C0480027C007480C398FA95E0FBE58D
:102033000B2CF8E43400F9E82402F8500109C3EA50
:1020430098EB99A2D265D0334003021F419004B7A5
:10205300E0604D9004B8E0F89004B7E0C398500CEA
:1020630074026509703A9004B9E060348E828F83FC
:10207300A3A3A3A3E08518828519831220B3740256
:1020830012186DE81220B39004B6E028F07402121F
:102093001887AA18AB1979011209979004B7E4F0CD
:1020A300E508A2E092AF74041218377F070219A95A
:1020B300F0A3E4F09004B7E0F82288828983E0FC7F
:1020C300A3E0FD22008521878522C622C0E074EBB0
:1020D3001219E9A2AFE433F508C2AF759B00906112
:1020E30082E0A2E05030E591A2E0502A7591FE749F
:1020F3000165217021122262120DED122250121A73
:10210300B71227107404121837E9640170057901B6
:10211300120E35121D95906182E0A2E5505DE591A6
:10212300A2E550577591DF900376E064076005E000
:102133006408702F12226274016521703E120DED46
:10214300122250121AB71227107404121837E964B6
:102153000170057901120E357901EEFAEFFB121FBA
:10216300268018E0640D7013900398E004F064284F
:102173007002E4F07A00E0F9120EB3906182E0A2FB
:10218300E64003022225E591A2E6400302222575DB
:1021930091BF900376E064057008120DD5120DE12E
:1021A3008003120DDB752100120E41E9900377F0D5
:1021B3007900120E35120BD17A017B00900375E082
:1021C300F912132D907803E06442705690051FE0D6
:1021D30014F0704EC2AF1221DC00782AD0E0F6185A
:1021E300D0E0F6E59F5407F87005750DFF80037581
:1021F3000D7FC4C0E07829E6F50A08E6550DF50B16
:10220300740B780A1217FFD0E0250AF8906270E089
:10221300A2E740F8E8C333906272F0906270E0D2B4
:10222300E0F0906181E0A2E35009E5E9A2E3500305
:1022330075E9F7A3E0A2E75009E591A2E75003751A
:10224300917FE508A2E092AF7F08021A488E828F41
:1022530083E0F8A3E0C82416F582E438F5832290DE
:1022630003A4E0F875F00AA4C8AAF02AF974A62812
:10227300FE740339FF22C0E0C0D0C082C0839061E6
:1022830083E0A2E05009E5BFA2E0500375BFFEE082
:10229300A2E15009E5BFA2E1500375BFFDE0A2E250
:1022A3005009E5BFA2E2500375BFFBE0A2E350096A
:1022B300E5BFA2E3500375BFF7E0A2E45009E5BF11
:1022C300A2E4500375BFEFE0A2E55009E5BFA2E524
:1022D300500375BFDFE0A2E65009E5BFA2E6500355
:1022E30075BFBFD083D082D0D0D0E032C0E074F2CB
:1022F3001219E9E5A7A2E6500FE5A1A2E65009539A
:10230300A7BF75A1BF122343E5A7A2E5500CE5A122
:10231300A2E5500653A7DF75A1DFE5A7A2E15009A7
:10232300E5A1A2E1500375A1FDE5A7A2E2500CE5EA
:10233300A1A2E2500653A7FB75A1FB7F01021A4835
:1023430074F71218FD752101900376E06406701589
:10235300120D518A828B83A3A3A3A3A3A3E0FAA3A1
:10236300E0FB120DC3A2AFE433FED2AF90037CE0D7
:10237300640170187A207B00900375E0F91214470A
:102383007A207B00900375E0F9121333906182E0A9
:10239300D2E6F090051CE0602185C62280169003EA
:1023A3007BE064017008E5C654F84405F5C653BEE6
:1023B300FC1220C87401652160E4EEA2E092AF7FB5
:1023C300020219A9008E238F2485822885832785FD
:1023D3001882851983E0CEA3E0CF852882852783E1
:1023E300EBC9EAC8EDCBECCA75F010C3E833C8E912
:1023F30033C9EA33CAEB33CBC3EA9EF526EB9FF529
:1024030025B35004AB25AA26EC33CCED33CDD5F060
:10241300DAAE23AF242274E91218FD74FA121821DC
:10242300EAFEEBFF8C0A8D0B120DF9EAF8EBF9ECDF
:10243300FAEDFB8E828F8312171B900376E024F74D
:10244300C394055006751401022580120D518A08A4
:102453008B09EA4509700302257DEEFCEFFDAA18FE
:10246300AB19120DF3850882850983A3A3780C1297
:1024730016E590822F780C1216BF85188285198372
:1024830078101216E590822F78101216BF780C7907
:10249300101214F8501F780C791012169790825767
:1024A300780C1215184047850C14850D15850E16EA
:1024B300850F178045908257851014851115851255
:1024C300168513177814790C1216977814121518A9
:1024D300501C7514007515007516007517017814D6
:1024E30079101216977814790C12165E800C7514F5
:1024F3000175150075160075170074097814121606
:102503003F908293780C1216E57814790C1215B764
:10251300850882850983A3A3A3A3A3A312259E12DF
:102523001796880C890DE4F50EF50F7814790C12C3
:10253300165E740412186D12259E121796E8FA8A15
:102543000CE4F50D7814790C1214F850077814790B
:102553000C121697900376E06408600AE064066044
:1025630005E06405702090824B78141215185016FC
:102573009082477814121671800C7514007515003B
:10258300751600751700850A82850B837814121659
:10259300F474061218377F100219A9E0F8A3E0F9C2
:1025A3007AD07B032274F71218FD120E0B90051AD2
:1025B300E064017010906245E4F0A3F053F4F34338
:1025C300FE0C5390F3120DB1E5C654B84441F5C661
:1025D300E59E5447644170F8906185740FF090054F
:1025E30018E0F47002A3E0604E900519E06008144F
:1025F300601B14602E804075080175090090051852
:10260300E0780812180EE508F45280802A75080154
:10261300750900900518E0780812180EE508F452C1
:10262300908014750801750900900518E078081268
:10263300180EE508F452A079007F020219A974F775
:102643001218FDE9FEEAFF120E0B74016E700C7A8C
:10265300807B00900375E0F912132D9029ECE4932D
:10266300F46008E493F9120BC5800953C6B8E59EDC
:10267300544770FA120DB790051AE0640170031203
:102683000BE3900518E0F47002A3E0604B9005198A
:10269300E0600814601A14602C803D750801750908
:1026A30000900518E0780812180EE508428080288B
:1026B300750801750900900518E0780812180EE5F1
:1026C3000842908013750801750900900518E07899
:1026D3000812180EE50842A0120D518A088B09A8AA
:1026E30008A909E8496014E5E170FCE82414F582BF
:1026F300E439F583E0F46003E0F5E174016F700AF7
:102703007A01900375E0F91213BD02263C74F112AD
:1027130018FD8A088B098C0A8D0B90822F7808127A
:1027230016BF740F12186D780C1216E590822F786D
:102733000C1216BF7808790C1214F89082575010B7
:102743007808790C12169778081215184014800E21
:10275300780C7908121697780C1215185004790121
:10276300800279007F080219A974ED1218FD8A0806
:102773008B098C0A8D0B90822F78081216BF741365
:1027830012186D780C1216E590822F780C1216BF72
:10279300780C79081214F840117808790C121697FE
:1027A300AA08AB09AC0AAD0B8022751000751100A5
:1027B3007512007513017810790C12169778107939
:1027C3000812165EAA10AB11AC12AD137F0C0219DE
:1027D300A990822F78081216E58A828B83780812D3
:1027E30016D27F040219A974F51218FD8C828D8309
:1027F30078081216E58A828B8378081216AB1228A2
:1028030042C3E09CF0A3E09D1228344022908283CF
:1028130078081216E58A828B8378081216848A82D6
:102823008B83A3A3A3A3E02420F0A3E0344EF08082
:10283300A0F088828983C3E09420A3E0944E22EA27
:102843002404F8E43BF98C828D83A3A3A3A3E0FCC7
:10285300A3E0FD888289832274F51218FDE9FE90B6
:1028630004D2E0FAA3E0FBEE29F8E433F97412286A
:10287300F582748139F583E02AF508A3E03BF50975
:102883007808121AA490828F1217031223C87402B5
:102893001218378A088B098C0A8D0B74107808126A
:1028A3001626AA08AB097F040219A974F11218FDB0
:1028B3008A0C8B0D8C0E8D0F741112186D121ABBAE
:1028C300741112186DE02401F508A3E03400F50932
:1028D300E4F50AF50B780C790812153790823B78EA
:1028E300081216E5780C7908121537AA0CAB0DAC53
:1028F3000EAD0F1223C874021218378B09EA45096B
:1029030060047A0180027A00EC2AFCE43DFD741332
:1029130012186DE0F8A3E0F9E8FEE9FFECF8EDF931
:102923007A717B0212179688088909E4F50AF50B78
:102933008E828F8378081216F4ECF8EDF97A717BA6
:10294300021217968A088B097405780812180E8EDE
:10295300828F83A3A3A3A3E508F0A3E509F07F086F
:102963000219A9C082C083E9906000F0D083D082AD
:1029730022C0E074F21219E9A2AFE433FED2AFE54C
:1029830089A2E15003121213758900C2C5751A009A
:10299300EEA2E092AF7F01021A48C0E074F212196E
:1029A300E9A2AFE433FED2AFE58BA2E050031212EB
:1029B30013758B00C2E880D5C0E0C0D0E8C0E0E961
:1029C300C0E0A9A8D2AFC2C7751A00E9A2E7E433F1
:1029D300F8E9A2E792AFD0E0F9D0E0F8D0D0D0E0A8
:0729E30032C2AF0200002226
:1029EC00FFFFFFFFFFFFFFFFC082C083E99015F4DC
:1029FC00F0D083D08202013274F6121891E9900261
:102A0C00E8F0900348E0F5087509007402780812A4
:102A1C00180EAA08AB091213A59002E91233B7904D
:102A2C0002E91237A4606F900348E075F003A4FA32
:102A3C00ABF01213A59003061233B79003061237AE
:102A4C00A4700B9002E91237751213AB80489003F7
:102A5C00061247097AFF7BFF12117D7A0080198AD2
:102A6C00087509007402780812180E1241B174FF2F
:102A7C00122BB7E4F0A3F00A900348E0F8EAC398ED
:102A8C0040DD790512082F9002E8E0F912071B7A55
:102A9C00B97B08120AAB02425474F41218918A08DA
:102AAC008B09EB548060479002E8E0F91213158A09
:102ABC000A8B0BAE0AAF0BEE4F602A8E828F83E02F
:102ACC0064B0701A120841E960148E828F83A3A33C
:102ADC00A3A3E0F9EE2405FAE43FFB120811EEFA89
:102AEC00EFFB121303AA08E5096480FB80047A004B
:102AFC007B00022D0774F212189174FB121821EA54
:102B0C00FEEBFFEE4F6045740312186DEEF0A3EF71
:102B1C00F0851882851983ECF0A3EDF0740212187D
:102B2C006DE9F0AA18AB19120715E9F50870757460
:102B3C001312186DE0F50AA3E0F50BE50A450B60DE
:102B4C00638E828F83123140EE4F700575080280C0
:102B5C00537A067B001213A58A0C8B0DA80CA90DB9
:102B6C00E8497005750813803B88828983E4122B31
:102B7C00B7EEF0A3EF122CD3E50AF0A3E50BF0901F
:102B8C0002EC122CCC9002EC6017E0FCA3E080036A
:102B9C00EAFCEBFD8C828D83122CCC70F38C828D35
:102BAC0083123DCCA9087405024989F0A31246EBA7
:102BBC00A32274F21218918908890C750D00740304
:102BCC00780C12180E850C0A850D0B9002EBF09008
:102BDC0002E9123BD7122CCA602E1213AB7900807B
:102BEC001D890C750D007402780C12180E9002E9F8
:102BFC001240708882F583A3A3E4F0A3F00990033C
:102C0C0048E0F8E9C39840D9900348E0FA850AF007
:102C1C00A4CAA8F0850BF0A428FB1213A58A0C8B70
:102C2C000DAE0CAF0DEE4F7003022CC0900348E0BC
:102C3C00FC850AF0A4CCA8F0850BF0A428FD790043
:102C4C001212EB7C0080318D0C750D007403780C26
:102C5C0012180E8A828B83122CC588828983E4F029
:102C6C00122CD2A3A3F0A3F00DEDC3950840D8EE1F
:102C7C00250AFEEF350BFF0C900348E0F8ECC398E7
:102C8C0050288C0C750D007402780C12180E9002E2
:102C9C00E9122CC5E82402500109FAE9FB8A828B5F
:102CAC0083EEF0A3EFF07D0080BFE5089002EBF01F
:102CBC0079008002791302498C124074F922A3A383
:102CCC00123779EA4B22A31246EBA3A3A32274F486
:102CDC001218917900EAA2E0501F7508EE7509816F
:102CEC007808121AA479107C047D007AF67B1512F0
:102CFC0008297402121837E9F980007F040219635D
:102D0C00C082C0839002EC1237A4601C8882898335
:102D1C00A3A3E06A7003A3E06B8882898370E8A3A5
:102D2C00A3A3A312377580047A007B000229FD74DB
:102D3C00F212189174FD121821EAFEEBFF8518822D
:102D4C00851983E4F0A3F0740212186D7401F0126B
:102D5C0037A170141209E51213A59002EF1233B7C4
:102D6C001237A17003022ECD1234B7EE2404F50AEB
:102D7C00E43FF50B850A82F583E024FE603C24FCDD
:102D8C00607424FE607E24FE7003022E1D24FE70EF
:102D9C0003022E2A24FE7003022E3724FE70030237
:102DAC002E4424FE7003022E5124FC7003022E725A
:102DBC0024FE7003022E8A022EC61209E59002F13F
:102DCC00EAF0A3EB122ED912045DE96003022EC6C1
:102DDC009002F1121ABB8E828F83A3A3A3A3A3121A
:102DEC0047098508828509831237751207F9740221
:102DFC00121837022EC6AC18AD19EEFAEFFB1208FA
:102E0C0047022E95AC18AD19EEFAEFFB12084D8067
:102E1C0078AC18AD19EEFAEFFB120853806BAC18B6
:102E2C00AD19EEFAEFFB120859805EAC18AD19EE35
:102E3C00FAEFFB12085F8051AC18AD19EEFAEFFBFC
:102E4C0012086580447402121877880C890D780C6E
:102E5C00121AA47402121887EEFAEFFB12086B74A4
:102E6C00021218378023AC18AD19EEFAEFFB1208DA
:102E7C0071E9F87016740212186DE4F0803CAC180D
:102E8C00AD19EEFAEFFB120877E9F8E8602C8E82A8
:102E9C008F83A3E064146022850A82850B83E09003
:102EAC0002F1F08518828519831237759002F2129F
:102EBC0033B7E8A3122ED9120457EEFAEFFB120720
:102ECC00CF740212186DE0F97403024989F07CF199
:102EDC007D028508828509831237792274E81218DD
:102EEC009174FA121821740412186DECF0A3EDF021
:102EFC008A128B13EA2405F50EE43513F50FEA2438
:102F0C0002F510E43513F511851082F5831237752F
:102F1C0012054D8A0A8B0B7508007C037D00790025
:102F2C007AF17B021212EBE50E2402F516E4350F52
:102F3C00F5177402121877880C890D780C121AA4E4
:102F4C00850E82850F83A3A3A3A3E0F50C750D005A
:102F5C00780C121AA4E50E2405F50CE4350FF50DCA
:102F6C00780C121AA4851682851783123A7C1207E4
:102F7C003374061218378A0C8B0DE50C450D700353
:102F8C000231098020851882851983E08882898323
:102F9C00F00508851882851983A3E0C0E012314A38
:102FAC00D0E0F00508E50A24FBFAE50B34FFFBC37F
:102FBC00E5089AE49B40030231097E007F008512EC
:102FCC0082851383A3A3A3A3E0F5097809121AA899
:102FDC00E4F514F5157814121AA47514EE7515028F
:102FEC007814121AA49002EF121ABB740912186DFD
:102FFC00121ABBE50A24F9F9AC0CAD0D85108285CB
:10300C0011831237751208A17409121837E960037D
:10301C000230AA850E82850F83A3A3A3A3A3A3A327
:10302C00E0F89002EEE0687075E0F5148E157814F7
:10303C00121AA4124706850E82850F83A3A3A3A39D
:10304C00A3A3A3A31237751212E57402121837E961
:10305C00604C9002F21237A4703BE4F51478141211
:10306C001AA47CFF7DFF79078510828511831237A6
:10307C007512080B74021218371237AA7017850EC6
:10308C0082850F831248A3740412186D12416412C6
:10309C003AAD02313D850C82850D83123140A81862
:1030AC00A919881489157814121AA4740412186DAD
:1030BC00121ABB8516828517831233AD12073F7423
:1030CC00041218378A0C8B0DEE4F7003022F8612E8
:1030DC00314AEE123155123A63EF123155F8A3E032
:1030EC003400F9E50C450D6003022F918882898329
:1030FC0074FFF0050812314A74FFF00508E508600A
:10310C001A1313543F1233BD120469E9600990027B
:10311C00F212377512135D79008016850E82850FB9
:10312C00831248A3740412186D124164123DCC79B9
:10313C000A023A36A3A3A3A3E0FEA3E0FF22A80849
:10314C009002F2E028123A6322F00508089002F28D
:10315C00E0282274E812189174FA121821740212E1
:10316C00186D1233B7740412186DECF0A3EDF074F3
:10317C000212186DE02405123A4CE0F50CA3E0F5B0
:10318C000D740212186DE02402F510A3E03400F562
:10319C0011851082F58312377512054D750800756F
:1031AC000900EA24FCFEEB34FFFF8008050CE50C5B
:1031BC007002050DA808C3EE98EF9400500302337B
:1031CC0069A818A919880E890F780E121AA48514EB
:1031DC0082851583A3A3A3A312470D121AA4E51489
:1031EC002405F50EE43515F50F780E121AA4851486
:1031FC00828515831233AB12073374061218378A83
:10320C000E8B0FEA450F7003023369EA2404F5169E
:10321C00E4350FF517851682F583E0F50CA3E0F580
:10322C000D8518828519831247098A828B83A3A383
:10323C00A3E0F9851082851183123775120721E9F5
:10324C00F5096003023369740212186D123A73F5B2
:10325C00097809121AA8E4F512F5137812121AA4B7
:10326C007512EE7513027812121AA49002EF121A4C
:10327C00BB740712186D121ABBEEF9AC0EAD0F85AC
:10328C0010828511831237751208A1740912183730
:10329C00E9F5096003023369E508703FE4F50EF5C2
:1032AC000F780E121AA47CFF7DFF79098510828598
:1032BC00118312377512080B7402121837123A99CF
:1032CC00700D740412186D1233A0791102339D9095
:1032DC0002EEE024029002F2F080149002F2E0FA86
:1032EC009002EEE0790024025001096A497072A83C
:1032FC00089002EEE0FAE82AFAE43400FBEE9AEFCA
:10330C009B405A851682851783E0C0E09002F31229
:10331C00314FD0E0F00508851682851783A3E0C0F5
:10332C00E0089002F312314FD0E0F005089002EE65
:10333C0012470D121AA4124706A808123A4012128C
:10334C00D374021218379002EEE02508F50874FFCA
:10335C00650C700474FF650D60030231B8E50860FC
:10336C001F9002F2E0F5F0E508841233BD12046FF1
:10337C00E960099002F312377512135D7900801120
:10338C00E509700375090A740412186D1233A0A9AB
:10339C0009023A36123BDBE50CF0A3E50DF022A353
:1033AC00A3124998AA0CAB0D22A3A3EAF0A3EBF04D
:1033BC00229002F1F07CF17D02851082851183123E
:1033CC0037792274EC12189174FC121821123EDC1D
:1033DC00740212188712376F1207398A0C8B0DEA98
:1033EC00450D70030234A71234B7A818A919881018
:1033FC0089117810121AA47CFF7DFF790B85088245
:10340C0085098312377512080B740212183712359E
:10341C00AD700C850A82850B83123AAA0234B48EE5
:10342C00828F83A3A3A3A3E0F5127812121AA8E447
:10343C00F512F5137812121AA47512F1751302789D
:10344C0012121AA47810121AA4740912186D121AF6
:10345C00BB740912186DE0F9AC0CAD0D85088285B2
:10346C0009831237751208A17409121837E9FE7016
:10347C00157CF17D0285088285098312377512044B
:10348C0075E97009802074166E70027E009002F24D
:10349C0012377512135DEE7004800B7E01850A8263
:1034AC00850B83123DC9EEF9023DDEEE2402F508D0
:1034BC00E43FF5092274EC12189174FC121821EAFD
:1034CC00FEEBFF8C0E8D0FEE2405F508E43FF5099D
:1034DC0074021218878508828509831237751207C2
:1034EC00398A0C8B0DEA450D700302359DEE2402D2
:1034FC00F50AE43FF50BA818A91988108911781062
:10350C00121AA47CFF7DFF790D12376F12080B7411
:10351C00021218371235AD700B850882850983129B
:10352C003AAA807A8E828F83A3A3A3A3E0F51278A4
:10353C0012121AA8850882850983A3A3121ABB75D7
:10354C0012F17513027812121AA47810121AA474BC
:10355C000912186D121ABB740912186DE0F91237A2
:10356C006B1208A17409121837E9FE700F7CF17DFB
:10357C000212376F12047BE97009802074166E708A
:10358C00027E009002F212377512135DEE70048009
:10359C000B7E01850882850983123DC9EEF9023D37
:1035AC00DE1237B4F510A3E0F511EA45112274E8E8
:1035BC0012189174FE1218218A168B178C148D1503
:1035CC00EA2405F50CE43517F50DEA2402F50EE4B2
:1035DC003517F50F850E82F58312377512054D8A56
:1035EC00088B09750B007C037D0079007AF17B0256
:1035FC001212EB750A00E50814F5100424FFF50807
:10360C00E50934FFF50980549002F1E0FA9002EEDE
:10361C00E0F8EA28F8E43400F9E50898E50999504F
:10362C000D9002F1E0F8E510C3989002EEF0E0F591
:10363C00127513007812121AA41247069002F2E0C7
:10364C002AFAA3E03400FB1212D37402121837903A
:10365C0002EEE0F89002F1E028F0050A850C828574
:10366C000D83A3A312408040030237509002F1E077
:10367C00C39508E495094003023750AE0AEE2EFEBE
:10368C00E433FF12378FAC18AD19124721E439FB24
:10369C001207398A128B13AC12AD13EC4D701B75DB
:1036AC000B0112377F123DCD9002F2122CCC60032D
:1036BC0012135DA90B7402023A38851682851783A2
:1036CC00A3A3A3A3E0F50B780B121AA8E4F512F54B
:1036DC00137812121AA47512EE7513027812121ABC
:1036EC00A49002EF121ABB740712186D121ABBA920
:1036FC0010850E82850F831237751208A17409127A
:10370C001837E9F50B709B9002F21237A460030294
:10371C003614E4F512F5137812121AA47CFF7DFF0F
:10372C00790F850E82850F8312377512080B740280
:10373C001218371237AA600302361412377F123A66
:10374C00AE0236C17CF17D02850E82850F83123765
:10375C0075120481E960030236B479000236C1ACFB
:10376C000CAD0D850A82850B8312377922E0FAA302
:10377C00E0FB2212378FE0FAA3E0F9EA8514828588
:10378C00158322850C82850D83E02EF8A3E03FF98A
:10379C0088828983229002EF1248A7E849221237C7
:1037AC00B4F8A3E0F9E849229002F2EAF0A3EBF0B6
:1037BC009002F2E02274E812189174FA1218217433
:1037CC000412186D1233B78C168D17740412186D01
:1037DC00E02405F50EA3E03400F50F740412186D07
:1037EC00E02402123A4C12377512054D8A0A8B0BE3
:1037FC007F007E00A818A919880889097808121A70
:10380C00A4850E82850F83A3A3A3A3E0F5088E09DC
:10381C007808121AA4E50E2405F508E4350FF5090D
:10382C007808121AA4850E82850F83A3A3123A7C02
:10383C0012073374061218378A0C8B0D8029123A32
:10384C006DF00F123A6DF00F9002EE123DB8121A95
:10385C00A4124706EFF8123A401212D3740212184F
:10386C00379002EEE02FFFE50C450D70030238FC9B
:10387C00851882851983123EEEA3A3A3E0F9851463
:10388C0082851583123775120721E9FEE50C240495
:10389C00F510E4350DF511EE7050740412186D121C
:1038AC003A73F5087808121AA8E4F508F5097808AF
:1038BC00121AA47508EE7509027808121AA490025F
:1038CC00EF121ABB740712186D121ABBE50A24FA10
:1038DC00F9AC0CAD0D851482851583123775120861
:1038EC00A17409121837E9FE6039123A89123DCCDD
:1038FC00EF7003023A239002F2E0F5F0EF849002AD
:10390C00F1F07CF17D0285148285158312377512D6
:10391C000487E960099002F312377512135D790080
:10392C00023A368F08EF703BE4F512F51378121259
:10393C001AA47CFF7DFF79118514828515831237BB
:10394C007512080B7402121837123A997009123A50
:10395C0089123AAD023A369002EEE024049002F25B
:10396C00F080359002EEE0F89002F2E0FAE82404E0
:10397C00FCE43400FDEC6A4D6003023902E50A24D4
:10398C00FAFAE50B34FFFBE50828F8E43400F9EA11
:10399C0098EB995003023902851082851183E0C09F
:1039AC00E09002F3E02FF8A3E034008882F583D096
:1039BC00E0F00F851082851183A3E0C0E0123A5A23
:1039CC00D0E0F00F74021218778808890978081271
:1039DC001AA4740212186D121ABB850E82850F83FD
:1039EC001233AB12073F74041218378A0C8B0DEA92
:1039FC00450D700302384A740212186DE0C0E012D3
:103A0C003A5AD0E0F00F740212186DA3E0C0E01225
:103A1C003A5AD0E0023852EE70027E0A850E828548
:103A2C000F83123A8F123DCCEEF974061218377FC1
:103A3C00100219639002F3E028FAA3E03400FB2291
:103A4C00F514A3E03400F515851482F58322123A9F
:103A5C005E229002F3E02FFAA3E034008A82F58311
:103A6C0022123A5E74FF22123BDBA3A3A3A3E02233
:103A7C00124998850E82850F831237792285108220
:103A8C008511831248A7851682851783229002F32D
:103A9C00EAF0A3EBF09002F31248A7E84922123D9A
:103AAC00D2E8F0A3E9F079112274EA12189174FEAD
:103ABC001218218A088B098C128D13EA2405FEE456
:103ACC003509FFAC18AD198E828F8312377512072A
:103ADC00398A0C8B0DEE2406F50EE43FF50FEA4502
:103AEC000D7003023BADE5082402F50AE43509F537
:103AFC000B8A828B83A3A3A3E0A2E55028851882AE
:103B0C008519831237751208958A108B11EA4511A5
:103B1C006020791212376B85108285118312188FF1
:103B2C00E9F50C707F850E82850F83E06009795270
:103B3C008011750C0E806D850882850983A3A3A363
:103B4C00A3E0F9E4F508F5097808121AA48E828F1F
:103B5C0083A3A3E0F5087808121AA48E828F83A39E
:103B6C00A3A3121ABB8E828F8312470912376F12CE
:103B7C0008A77406121837E9F50C7011850E8285AA
:103B8C000F83E0702D12376F12048D80257416652B
:103B9C000C7011750C00741812186D123BD7E48060
:103BAC0010750C0112489F851282851383E8F0A3CF
:103BBC00E9F0850E82850F83E0600479008002A90C
:103BCC000C74021218377F0E021963123BDB22E0D1
:103BDC00F8A3E0F58388822274EC12189174F71222
:103BEC0018218A0A8B0B8C108D11EA2405FEE43502
:103BFC000BFF750C00AC18AD198E828F83123775C4
:103C0C001207398A088B09EA45097003023DA3E5BE
:103C1C000A2402F50A5002050B8A828B83A3A3A304
:103C2C00E0A2E5502F85188285198312377512088A
:103C3C00958A0C8B0DEA450D604F7912AC08AD09D5
:103C4C0012376F850C82850D8312188FE9F50C6085
:103C5C0003023DA6850A82850B83E0F508A3E0F5F7
:103C6C0009AA08FB120889EA4B70197AFF7BFF122C
:103C7C000889EA4B7003023D998A828B83E508F030
:103C8C00A3E509F07508008008750C0E023DA60529
:103C9C00089002EBE0F8E508C3984003023D9985D3
:103CAC00080E750F007403780E12180E8A828B831F
:103CBC00A3A3E0250EF8A3E0350F12416D70D08E52
:103CCC00828F83123DC11233B78E828F83A3A312CE
:103CDC003DC11233B5EE2404F508E43FF50985081F
:103CEC0082F583E088828983A3A3A3A3F0A3E4F0E5
:103CFC00EE2405F50EE43FF50F850E82F583123D9B
:103D0C00C1A3A3A3A31233B57512077513007812C0
:103D1C00121AA4EEFCEFFD740412187F1212D37465
:103D2C0002121837E4F5127812121AA4850882854B
:103D3C000983E0FC7D00791712376F12080B7402AF
:103D4C00121837740712186D1233B7740712186DE6
:103D5C00E0FA4B603D850882850983123DB8121A42
:103D6C00A4850E82850F831247091212D374021296
:103D7C001837740212188712376F120493E96026F1
:103D8C00740712186D12377512135D8019750C09B2
:103D9C008008750C118003750C0112489F851082E8
:103DAC00851183123DCCA90C74098028E0F50875A7
:103DBC0009007808221237798882898322123DD231
:103DCC00E8F0A3E9F022E0F8A3E0F9850E82850F74
:103DDC00832274041218377F0C02196374EC1218C6
:103DEC0091123EDC751000EE2402F50CE43FF50D4B
:103DFC00850C82F5831237751208898A088B09EABB
:103E0C0045097003023EC0850A82850B83E064017C
:103E1C006003023EB5AC08AD09AA0AAB0B12087DD3
:103E2C00E9606E850882850983123142EE2406F51D
:103E3C000AE43FF50B8E828F83A3A3121ABB8E82EA
:103E4C008F83A3A3A3A3121ABB850A82850B8312AB
:103E5C001ABB79188E828F83123EEE1237751208B8
:103E6C00A77406121837E9F8741668700B850A8265
:103E7C00850B83E4F0A38014E860128E828F83128A
:103E8C003775850E82850F83EAF0A3EBF0881080DE
:103E9C0018780E121AA4AC08AD09EEFAEFFB120852
:103EAC00837402121837E9F510AA08AB0912088FAF
:103EBC00E510700E850C82850D83123775120499EE
:103ECC008009741665107003751000A910023DE38B
:103EDC00EAFEEBFF8C0E8D0FEE2405F50AE43FF5A0
:103EEC000B22124998850C82850D832274EA1218D4
:103EFC00917508007509007E007F00750A00EC249E
:103F0C0002F510E43DF5118035EC65087003ED65A4
:103F1C00096003023FAD88828983A3A3E06A700322
:103F2C00A3E06B707C88828983A3A3A3A31248A30C
:103F3C00EE28FEEF39FFEA28FAEB39FB050A1240AE
:103F4C007D503A850A0C750D007403780C12180E0E
:103F5C0085108285118312407012416D601FE50837
:103F6C00450970A58C088D09888289831231408897
:103F7C00828983A3A3E02EFAA3E03F80BEE50AC3A7
:103F8C009402500302406B750800750900EE4F60F7
:103F9C0010EEFAEFFB1213578A0E8B0FEA450F70D7
:103FAC0005790002406D750B00024040850B0C75C5
:103FBC000D007403780C12180E851082851183E0A5
:103FCC00250CF50CA3E0350DF50DE50C2406F514C8
:103FDC00E4350DF515851482F5831241726042E5C6
:103FEC000C2404F512E4350DF513851282F58312B9
:103FFC001ABBE50E2508FAE50F3509FB1212D3742E
:10400C0002121837851282851383E02508F508A360
:10401C00E03509F50985148285158312377512135D
:10402C005DE50B600D7C087D007900AA0CAB0D12D0
:10403C0012EB050BE50BC3950A5003023FB8851034
:10404C00828511831248A388828983A3A3A3A3A387
:10405C00A3E50EF0A3E50F122CD3EEF0A3EFF0794D
:10406C0001023BD212407422E0250CF8A3E0350D7E
:10407C00229002EBE0F8E50AC3982274F012189132
:10408C008A0E8B0F8C0A8D0B750D00750C008050F1
:10409C007916EE2406F508E43FF5098E828F83A38A
:1040AC00A3121ABB8E828F83A3A3A3A3121ABB8560
:1040BC000882850983121ABB850E82850F83A3A300
:1040CC001237751208A77406121837E9F50D741615
:1040DC00650D706C850882850983E4F0A3F0050CEE
:1040EC009002EBE0F8E50CC3985066AA0C8A0875B0
:1040FC0009007403780812180E850A82850B83A3B5
:10410C00A31241BCE8FEE9FF8E828F8312417260DC
:10411C0040EA2401F508E43400F5099002EBE0656F
:10412C00087002E509601488828983A3A3A3A3A362
:10413C00A3A3A31237A4600302409C791802409EEB
:10414C00E9609B12489F741012186D124164123D65
:10415C00CCA90D7F08021963E0FAA3E0F5838A82EB
:10416C0022F988828983124998EC4D2274F6121830
:10417C00917C0080010C900348E0F8ECC398501E31
:10418C008C087509007402780812180E1241B1E0FF
:10419C006A7003A3E06B70DDE8FAE9FB80047A0037
:1041AC007B000242549002E91241BC88828983222E
:1041BC00E02508F8A3E03509F92274F21218918A67
:1041CC00088B09750A0080278E828F83A3A3A3A373
:1041DC00122CCA600312135D7C087D007900EEFA84
:1041EC00EFFB1212EB8E828F83E4F0A3F0050A1220
:1041FC00407D5027850A0C750D007403780C12183D
:10420C000E850882850983A3A3E0250CFEA3E03567
:10421C000DFF8E828F831237A470AD8508828509BD
:10422C008374FFF0A3F002498C74F61218911208F3
:10423C003B8A828B83E582458370067A007B008003
:10424C0007A3A3A3A31237757F0202196374F41298
:10425C00189189088C828D83E06402703C1248426C
:10426C00FEA3E0F9EEF874026870037429697029F2
:10427C00750A02750B00780A121AA4741012186DC4
:10428C00121ABB741012186D121ABBA90812118FD6
:10429C007406121837E9F980027901022D0774E8C7
:1042AC0012189174FB121821E9851882851983F074
:1042BC008A168B17ECFEEDFF7510008E828F83A390
:1042CC00A3A3E0A2E4502D741D12186D12377512C1
:1042DC0008958A828B83E582458370030246E179D7
:1042EC000AEEFCEFFDAA16AB1712188FE9F5106059
:1042FC00030246E4741F12186DE0F508A3E0F509FB
:10430C00742112186DE0F50AA3E0F50B7423121852
:10431C006DE0F50EA3E0F50F8E828F83E0640260F2
:10432C0003024682A31248A3850882850983A385CC
:10433C008212858313EE2406F50CE43FF50D88827A
:10434C008983124721F514E439F5157814121B2EC4
:10435C00010000280128844307000228494403284F
:10436C00B743002978450129A3450229444503296F
:10437C00784504291C468246E50E450F600302462B
:10438C007D850C82850D831248A3E8FAE9FB8A82AD
:10439C008B83E0850A82850B8312472C121AA48A20
:1043AC00828B83A3E0FCA3E0024606E50E450F607A
:1043BC000302467D850A82850B837401F012471631
:1043CC00850882850983F07C007D008E828F83A313
:1043DC00A3A3A3E02401FAA3E03400FB120739EAFB
:1043EC004B60408A828B83E02402F8850A82850B1D
:1043FC0083E028F0EA2404F8E43BF988828983E01E
:10440C0085128285138312473A12472C121AA48AFA
:10441C00828B83A3124709E5082403FAE43509FBD0
:10442C0002460B850A82850B83E02404F07C047D14
:10443C00007900AA12AB131212EB0246E4E50E450A
:10444C000F600302467D124716FEA3E0FF850A8229
:10445C00850B837404F0EE850882850983F0EF8563
:10446C001282851383F07403121887EEFAEFFB1295
:10447C0007398A0C8B0DEA450D70030245278A8299
:10448C008B83A3A31231407401121877880E890F05
:10449C00780E121AA4740512186D121ABB7CFF7DCB
:1044AC00FF12073F74041218378B0FEA450F703355
:1044BC00850C82850D8312470D121AA4850C8285FA
:1044CC000D83A3121ABB7C027D007ABE7B8212057F
:1044DC003B7404121837E9700A740112186D74FFDA
:1044EC00F0A3F08E828F83E064027039750C027534
:1044FC000D00780C121AA48E828F83A3124709E543
:10450C00082404FAE43509FB1212D374021218378A
:10451C00850A82850B83E024028009740112186DD0
:10452C00EEF0A3EFF0740112186D1246FB74011239
:10453C00186D1246F2024677E50E450F60030246EF
:10454C007D850C82850D83124991AA16AB17121129
:10455C0095850A82850B837402F085088285098310
:10456C00EAF0851282851383EB02467AE50E450F3D
:10457C00600302467D124716F8A3E0F9850A82858E
:10458C000B837402F0E8850882850983F0E98512B3
:10459C008285138302467A850C82850D83123775CA
:1045AC001212CDEAFAF8C3950EE4950F405CE8655B
:1045BC000E450F70047A008021851882851983E0DE
:1045CC00FCE50E2CFCE4350FFDC3EC98ED9400508B
:1045DC0003E08005E50ECAC39AFAEA850A82850BC8
:1045EC0083F08A0A750B00780A121AA4850C82854E
:1045FC000D83E0250EFCA3E0350FFDAA08AB0912D4
:10460C0012D374021218370246E47510070246E4FE
:10461C00E50E450F705B850C82850D831248A385D2
:10462C000A82850B837407F0888289831246F31201
:10463C0046EBE0851282851383F0E82402FAE43914
:10464C00FB8A828B831246FB8A828B831246F2A3EF
:10465C00A3122CD2124700F0E82405F85001098867
:10466C00828983124700A312473AA3A3A3A3F08025
:10467C006775100B8062741D12186D123775120855
:10468C003B8A828B83E5824583604A1248A3880C5F
:10469C00890DE8450D603E742512186DE0F5107813
:1046AC0010121AA8780E121AA4780A121AA47808F2
:1046BC00121AA4740712186DE0F9EEFCEFFDAA169D
:1046CC00AB17850C82850D8312188F74071218375F
:1046DC00E9F510800375100EA9107405023A38F034
:1046EC0088828983A322A3E085088285098322120C
:1046FC004741F022124741A3A3229002EF1249989E
:10470C0022E0F50E750F00780E22850C82850D8344
:10471C00123BDBE022E0FAA3E0F8E4C8F9EA282235
:10472C00F08A828B83E0F50A750B00780A22124618
:10473C00EB12474122E0850882850983A3A32274EA
:10474C00EE12189174FE1218218A088B09ECFEEDFA
:10475C00FF890AAC18AD19EEFAEFFB1207398A0C77
:10476C008B0DEA450D700302483385188285198339
:10477C0012377512083B8A828B83E582458370035E
:10478C0002482EA3A31248A3880E890FE8450F7088
:10479C000302482E741412186DE0F510A3E0F51105
:1047AC00E50AF50B780B121AA8741912186D121A67
:1047BC00BB7810121AA4741B12186DE0F9AC0CAD76
:1047CC000DAA08AB09850E82850F8312188F74050C
:1047DC00121837E9F50B705274FE650A604C850CA3
:1047EC0082850D83E064027041124842FAA3E0F91D
:1047FC00EAF87402687003742969702E851082853A
:10480C001183124721F50CE439F50D780C121AA41A
:10481C00EEFCEFFDAA08AB091208BF7402121837A0
:10482C008008750B0E8003750B01A90B740212180E
:10483C00377F0A021963A31248A788828983E02272
:10484C0074F612189174FE121821740C12186D1251
:10485C0048A3E8851882851983F0740112186DE954
:10486C00F0E4F508F5097808121AA475080278081E
:10487C00121AA47404121877880889097808121A75
:10488C00A479FE1208A7740612183774021218378E
:10489C000242548E828F831248A722E0F8A3E0F9DB
:1048AC002274F7121891EAFEEBFF890890030612A6
:1048BC004709121195EA5402600BA908EEFAEFFBB6
:1048CC0012072D800279017F0102196374F212180C
:1048DC009174FE121821EAFEEBFF890A7401650A35
:1048EC0060147402650A60030249877901120AC9CF
:1048FC00E96003024987EEFAEFFB120889EA4B6084
:10490C000312088FA818A919880889097808121A9F
:10491C00A47508027509007808121AA47508B875F0
:10492C0009827808121AA47CFF7DFF7A017B0012A1
:10493C00073374061218378038850882850983A3DB
:10494C00A3A3A3A3A3124991EEFAEFFB12117DE4EA
:10495C00F50CF50D780C121AA4740212186D121ABB
:10496C00BB7CFF7DFFAA08AB0912073F7404121829
:10497C00378A088B09E508450970BE74021218378E
:10498C007F06021963123BDB12499822E0FCA3E07C
:10499C00FD2274F41218918A088B09ECFEEDFF903D
:1049AC0015F4E0F4604B7A097B001212FDEA4B60BF
:1049BC00408A828B8374B1F0A3E4124A00F08A829D
:1049CC008B83A3A3E508F0A3E509124A00A3EEF03C
:1049DC00A3EFF0740C12186D1248A38A828B83A378
:1049EC00A3A3A3A3A3A3123DCC9015F4E0F9121337
:1049FC0009022D07F08A828B83A3A3A3A32274F050
:104A0C0012189174FA1218218909ECFEEDFF750841
:104A1C00008A0A8B0B780A121AE8000410304C4DED
:104A2C004A6B4A854A9D4ABB4AD34AF64A0E4B22E8
:104A3C004B4C4BC74BD84BEF4B0A4C304C304C6269
:104A4C004B740165096003024C2B8E828F83E0F856
:104A5C00C394034003024C2BE890171F024C0774BD
:104A6C000265096003024C2B8E828F8312538E9049
:104A7C001720E8F0A3E9024C0774016509600302F2
:104A8C004C2B124C584003024C2BE8900741024C23
:104A9C0007740165096003024C2B8E828F83E0F84A
:104AAC00C394054003024C2BE8900742024C077458
:104ABC000165096003024C2B124C584003024C2B2D
:104ACC00E8900743024C07741065096003024C2BF5
:104ADC00750A10750B00780A121AA47A447B071217
:104AEC0012D37402121837024C5174016509600319
:104AFC00024C2B124C584003024C2BE890075402EA
:104B0C004C07740165096003024C2B8E828F83E085
:104B1C00901723024C07740465096003024C2B8E1A
:104B2C00828F83780C1216E590828F780C121518F0
:104B3C005003024C2B900756780C1216F4024C5171
:104B4C00E96003024C2B1206D3E970051211418067
:104B5C00559007E98061740765096003024C2B7559
:104B6C000A06750B00780A121AA48E828F83A3ACE6
:104B7C0082AD83740212187F1212D9740212183784
:104B8C007C007D00AA18AB198E828F83E0F912107D
:104B9C00EDE9FEC3940A4003024C4E1206D3E970B1
:104BAC000CEEF9121147795012141D806D74EA2E17
:104BBC00F582E43407F58374018040740165097053
:104BCC005E124C585059E8900755802F74016509B6
:104BDC00704D8E828F83E0F8C3940A5042E8901790
:104BEC002280187401650970368E828F83E0F87408
:104BFC00F928C3940A5028E8901724F080477401D0
:104C0C006509701B9007E8E0F88E828F83E09007AF
:104C1C00E8F0E87030E06401702B121135802675D5
:104C2C0008188021C3EA9427EB9400501574026590
:104C3C0009700F8E828F83125E6E120553E9F50890
:104C4C008003750802A9087406024F7C8E828F833C
:104C5C00E0F8C3940222A90880031218377F0402DB
:104C6C00196374F012189174B11218218C0A8D0BFF
:104C7C009081F47420121887740612173474201261
:104C8C0018871210EDE9FF745F12186DE0F509EF4B
:104C9C00C3940A4003024DF075F006EFA4F50874B6
:104CAC00411218877A0E74202508F9121417E9702E
:104CBC0009744D12186DE0FE80027E0090171FE003
:104CCC0064027005750E018003750E007408650989
:104CDC0070047422800274212508F50D7C1B7D0064
:104CEC007900742612187F1212EB74261218877A28
:104CFC001BA90D121417E9702D744012186DE024C5
:104D0C00F9C3940A5020E50EF50D780D121AA8740B
:104D1C0027121887EEA2E0E433F9AA0AAB0B1205AE
:104D2C00F574011218377C147D007900740C12187C
:104D3C007F1212EB740C1218877A1074242508F960
:104D4C00121417E970347C1079FF740C12187F124E
:104D5C001351E97025741C12186DAC82AD837A0462
:104D6C0074252508F9121417740C121887EEA2E09A
:104D7C00E433F9AA0AAB0B1205DDAC18AD197A0CA9
:104D8C0074702FF9121417E97049AA18AB19121183
:104D9C001D7F00EF75F003A4F8A9F0851882851922
:104DAC0083E58228F8E583125545125726601D8845
:104DBC00828983A3A3E0F50E750F00780E121AA456
:104DCC00AA0AAB0B1208AD74021218370FEFC3947A
:104DDC000440C0EEA2E1500C900740E0F9AA0AABE7
:104DEC000B1208B374046509702890171FE0640255
:104DFC0070207A00900754E060027A01900741E03D
:104E0C006004780480027800E84AF9AA0AAB0B1215
:104E1C0006A97900744F024F7C74F7121891120690
:104E2C00D3E9704F9007E9E06401701512114190BD
:104E3C0007E9E4F07C0AFDF97AEA7B071212EB80B1
:104E4C002A750800A80874EA28FEE43407FF8E824D
:104E5C008F83E06401700BA9081211478E828F8337
:104E6C00E4F00508E508C3940A40D9795012141DE2
:104E7C0012113502585D74F012189174F012182149
:104E8C00EAFEEBFF8C088D09750A0AE9600C1460C8
:104E9C000914603B14607D024F7812112FE9F50A5A
:104EAC00C3940A4003024F78E50845097003024F8A
:104EBC0078750C06750D00780C121AA4EEFCEFFD3B
:104ECC00AA08AB091212D37402121837024F787564
:104EDC000C00750E06750F00780E121AA4EEFCEF7E
:104EEC00FDE50C75F00EA4F8A9F0746228FA7407AD
:104EFC0039FB1212E57402121837E9700B050CE538
:104F0C000CC3940A506680CA850C0AE50AC3940A3D
:104F1C00505A8049750C00AC18AD197A1075F00612
:104F2C00E50CA42423F9121417E9701C7C1079FFEA
:104F3C00AA18AB19121351E9700EEEFCEFFDAA186A
:104F4C00AB191205B9E9600B050CE50CC3940A50BA
:104F5C001B80C4850C0AE50AC3940A500FE508456A
:104F6C00096009AA08AB09A90A121129A90A741027
:104F7C001218377F0802196374F412189189097595
:104F8C00081574FF6A700374FF6B70277E00AC0900
:104F9C007A027B00EEF912110BE960037508000E22
:104FAC00EEC3940A40E8E50960537A597B11120A62
:104FBC00ED804A120ABD8A0A8B0BAE0AAF0BEE4F7C
:104FCC0060387C007D00EE2405FAE43FFB8E828F76
:104FDC0083A3A3A3A3E0F91210EDE9F9C3940A503B
:104FEC000CAC097A027B0012110B750800E5096004
:104FFC000CEEFAEFFB1211598003750814024C6287
:10500C0074F2121891ECFEEDFF750815740E12185F
:10501C006DE0F50AA3E0F50B74FF6A700374FF6B87
:10502C007021750900AC0AAD0BEEFAEFFBA9091261
:10503C001111E960037508000509E509C3940A50CC
:10504C003F80E2120ABD8A828B83E5824583602D04
:10505C007C007D00E5822405FAE43583FBA3A3A341
:10506C00A3E0F91210EDE9F9C3940A5013AC0AADA0
:10507C000BEEFAEFFB121111750800800375081482
:10508C00A9087F06021963C082C08390075AEAF010
:10509C00A3EBF0900740E0FC7D007A267B00120524
:1050AC0053900740E0F9120817025B7774EE121860
:1050BC009174EC1218218A088B09EA240CF510E47F
:1050CC003509F5118A828B83A385820C85830DEAC1
:1050DC002405F50EE43509F50FEA2409F50AE43543
:1050EC0009F50BEA2403FEE43509FF8A828B83A3BE
:1050FC00A3E024FA700302537C24FD700302529C3B
:10510C0014700302519614601024FD700302527F38
:10511C001470030252D4025382125E746044E0F5A0
:10512C0083888212538E880C890DE8450D60338577
:10513C001082851183E0F50E780E121AA8EA240B62
:10514C00F582E43509F583E0F9125E680A0A0AEF84
:10515C00FB850C82850D8312188F7401121837028F
:10516C005382850A82850B83121ABB90075612173D
:10517C00031205EF7402121837E970030253827997
:10518C0001850A82850B8302534C750A00850C82BB
:10519C00850D83E0600302524C850E82850F83E0FF
:1051AC00A2E0400302524C9007F4125E77600302B7
:1051BC00524C7C0E7D007900AA18AB191212EB85AB
:1051CC001082851183125B42EA4B6010750A0675DA
:1051DC000B00780A121AA4EA2410801B125B3E12F0
:1051EC000ABDEA4B7003025382750A06750B0078F0
:1051FC000A121AA4EA2405FCE43BFD740212187F7F
:10520C001212D37402121837850E82850F83E0A216
:10521C00E25004D2F08002C2F0A2F0E433F8740C35
:10522C0012186D125CF6121123E970117A027B00D0
:10523C00900740E0F912132D7900025384750A157A
:10524C00125E7470030253821253A37003025382D2
:10525C00850C82850D83E0FC790112539412188F12
:10526C00E50A7003025382FC7903125B3E125AF971
:10527C00025377125E7470030253821253A37003AD
:10528C00025382850C82850D83E0FC7902025374F3
:10529C007C007D00EA2404FAE43509FB8E828F83BE
:1052AC00E0F91210EDE9F8C3940A4003025382E5C9
:1052BC0008240AFCE43509FD7A0475F006E8A424F8
:1052CC0025F9121411025382125B3E900755E060CF
:1052DC0007901722E0F9806B90171FE07004790596
:1052EC008061120ABD8A0C8B0DA80CA90DE84970BF
:1052FC0003025382E82404F50CE439F50D85088289
:10530C00850983A3A3A3A3A3A3A3E0A2E05039859B
:10531C000C82850D83E0F508602E850A82850B834F
:10532C00A3E054027022740E121887E82405FAE4E4
:10533C0039FBA9081210EDE9700E79038E828F8368
:10534C00125B421205E9802EAC0EAD0F850C8285E6
:10535C000D83E0F9125B3E121165125E7460171238
:10536C0053A360127C00790012539412188F80069C
:10537C00125B3E1210E7790174141218377F0A027F
:10538C001963E0F8A3E0F9228E828F83E0FAA3E0A0
:10539C00FB888285098322125B07F98909E8450994
:1053AC002274F512189174F2121821EAFE8C0A7507
:1053BC00F006E9A42420F508AC18AD197A0EF91200
:1053CC001417E970467C0679FFAA18AB1912135111
:1053DC00E97038740C12186D125B42EAF8E50A6039
:1053EC0005EEC8488004EEF4C858F8EA687001EB82
:1053FC006015740C12186DE8F0A3E4F0AC18AD193C
:10540C007A0EA908121411790180027900740E1217
:10541C0018377F0302196374F212189174E612188C
:10542C0021890A8A088B09ECFEEDFF740C1218878F
:10543C007A0E75F006E9A42420F9121417E960031A
:10544C000255087C0679FF740C12187F121351E96F
:10545C0060030255087470250AF50BAC18AD197A67
:10546C000CF9121417E96003025504AA18AB1912AF
:10547C00111DE5084509701D7C0C7900AA18AB19A3
:10548C00121351E970727C0C7D007900AA18AB19CB
:10549C001212EB8051AC18AD19AA08AB09121117F6
:1054AC008A0C8B0DA80CA90DE8497022EE4F604CAC
:1054BC00AC18AD197A007B00121117EAF8EBF9EA77
:1054CC004B603988828983E508F0A3E509F0125511
:1054DC0081FAEE6A7001EF601FEEF04F700888825F
:1054EC008983E4F0A3F0AA18AB1912111DAC18AD06
:1054FC00197A0CA90B121411790180027900741A13
:10550C0012183702508E74F71218917E00EE75F057
:10551C0003A4F8A9F0EC28F8ED125545E06A7003E5
:10552C00A3E06B7006E8FAE9FB800B0EEEC3940463
:10553C0040DB7A007B0002585D39F988828983222E
:10554C0074F71218917C00EC75F003A4F8A9F0EA3A
:10555C0028F8EB125545E0F4FEA3E0F4FF888289AD
:10556C0083EEF0A3EFF0125581F4F00CECC394042D
:10557C0040D502585DE82402F582E439F583E02237
:10558C0074F412189174F4121821EAFEEBFF8C08D3
:10559C008D099007F4125E77704FEE4F700302572F
:1055AC0005EC4509700302570512112FE9901725D8
:1055BC00F0C3940A4033750B007C0679FFE50B753C
:1055CC00F00EA4FAABF0745C2AFA74073BFB1213CE
:1055DC0051E96003025666050BE50BC3940A40D9EA
:1055EC00750A0AE50A901725F0901725E0C3940A6E
:1055FC00400302570575F006E0A4FB9007F4125E19
:10560C0077705CEEFCEFFD7A0E74202BF9121411FE
:10561C007C0C7D0079FFAA18AB191212EBAC18ADFB
:10562C00197A0C901725E02470F9121411750A0ED2
:10563C00750B00780A121AA4EEFCEFFD901725E00A
:10564C001257BE1212D374021218379007F4E508E1
:10565C00F0A3E509F07900025707850B0A8084E076
:10566C00C8240612572060197A1B74212BF91214C6
:10567C001112570C2406F582E438F583E4F0A3806C
:10568C00D312570C240A12572060107A1B74222B49
:10569C00F912141112570C240A80DB12570C240C2B
:1056AC0012572060107A1074232BF9121411125710
:1056BC000C240C80C112571512572060307A1074CC
:1056CC00242BF9121411125715F582E438F583E0E6
:1056DC002410FCA3E03400FD7A0475F00690172525
:1056EC00E0A42425F912141112571580899007E8AB
:1056FC00E0600312116B12115F7901740C024C669D
:10570C009007F4E0F8A3E0C8229007F4E0F8A3E0D7
:10571C00C8240822F582E438F583125E6EEC4D2223
:10572C0074F412189174F2121821EAFEEBFFE9C31B
:10573C00940A5004EE4F700479028034AC18AD1901
:10574C007A0E75F006E9A42420F9121417E9F5086D
:10575C00701C750A06750B00780A121AA4740212D2
:10576C001887EEFAEFFB1212D37402121837A9083D
:10577C00740E024C6674F4121891EAFEEBFF750875
:10578C0000750A06750B00780A121AA4EEFCEFFDE0
:10579C00E5081257BE1212E57402121837E96004BC
:1057AC00A908800B0508E508C3940A40D4790A02BD
:1057BC004C6975F00EA4F8A9F0745C28FA740739DA
:1057CC00FB2274F7121891750800E50875F00EA409
:1057DC00F8A9F0745C28FE740739FFEEFCEFFD7A33
:1057EC000E75F006E508A42420F9121417E96029B7
:1057FC007C067D0079FFEEFAEFFB1212EB7C067D46
:10580C000079FFEE2CFAE43FFB1212EBEE240CF5C0
:10581C0082E43FF583E4F0A3F00508E508C3940A9D
:10582C0040A89007E8E0600312116B12115F802111
:10583C0074F71218917E007F007C06EF1257BE7928
:10584C00FF121351E970010E0FEFC3940A40EAEEF8
:10585C00F97F0102196374F71218917E00EEF912A8
:10586C001147E9F90EEEC3940A5003E960EF80E1A9
:10587C0074F312189174CB1218218908901725E033
:10588C006508701B7A017B00900740E0F912133316
:10589C007A027B00900740E0F912133312117775EE
:1058AC00F006E508A4FF74202FFE74271218877ADF
:1058BC000EEEF9121417E960030259847C0679FF85
:1058CC00742712187F121351E960030259847C0E5D
:1058DC007D0079FF742712187F1212EB7C1B7D0060
:1058EC0079FF740C12187F1212EB7C0C7D0079FF7F
:1058FC00AA18AB191212EB74271218877A0EEEF94C
:10590C00121411E9FE740C1218877A1B74212FF9EA
:10591C00121411E9F509740C1218877A1B74222FD2
:10592C00F9121411E9F50A740C1218877A10742301
:10593C002FF9121411E9F50B740C1218877A1074E4
:10594C00242FF9121411E9F50C740C1218877A042F
:10595C0074252FF9121411E9FFAC18AD197A0C74D7
:10596C00702508F9121411E9F8E509450A450B45AB
:10597C000C4F48CE4EFE80027E00EEF974351218A4
:10598C00377F0502196374F7121891E9900740F0FC
:10599C0012113502585D74F2121891EAFEEBFF54A5
:1059AC00807003025A61900740E0F91213158A08BF
:1059BC008B09EA45097003025A5A7A01E508240555
:1059CC00F50AE43509F50BE5082404F8E43509F982
:1059DC00880C890D8508828B83E024506036146016
:1059EC000624E16058805D88828983E070598508BF
:1059FC00828B83A3A3A3A3A3A3A3121ABB125E68D7
:105A0C008508828B83A3A3125B421210F9740212D5
:105A1C001837803388828983E0641E700F79008583
:105A2C0008828B83A3A3125B421210F3850C828530
:105A3C000D83E0F9AA0AAB0B120811800AAA08120E
:105A4C001105E9FAEA6007AA08AB09121303EEFA8A
:105A5C00EF6480802AEE54026028EE6402FE7C0023
:105A6C007D007A007B00121123E960047A01800228
:105A7C007A027B00900740E0F912132DEEFAEFFB4F
:105A8C008068EEA2E050556401F508EFF509125B51
:105A9C0017121171E96033125E746029125B0F12D8
:105AAC00538EE8FEE9FFEE4F601B7C007901125B20
:105ABC00178E828F8312188F7C007903125B17125A
:105ACC005AF912188F121177800C7A017B0090070B
:105ADC0040E0F912132DAA08AB09800E540460069D
:105AEC00EE6404FA80047A007B0002508E90075A10
:105AFC00E0F8A3125B07F583888222125B0FE0F8B3
:105B0C00A3E022E0F5838882A3A3229007F4125E1F
:105B1C0058E0FAA3E0FB227F02021963C082C08323
:105B2C00900740E0F98A828B83A3125B421208B380
